:04000000CCEF72F0DF
:10E42C0035EC72F0C580120035EC72F0C584120028
:10E43C0035EC72F002C0C9FF1200036E8C940350CD
:10E44C008EEC73F01200036E8C8403508EEC73F020
:10E45C00120028000A000200030003000200C7B4E7
:10E46C00FED7C5CF01F01F0E0116D8B41200F7D796
:10E47C000850AA6E07C0A9FFA69EA69CA680A6B0AF
:10E48C00FED7A8501200036E000E026E3A0E036007
:10E49C0005D02F0E036402D0010E026E02C001F0F3
:10E4AC0001301200A1EC72F042EC73F0100E0E6E03
:10E4BC00270E0F6E000E106E000E116EB9EC73F07D
:10E4CC00F29E120001500302F3CF05F0F4CF06F0D8
:10E4DC0001500402F350062602500302F3500626A4
:10E4EC0005C001F006C002F01200026E35EC72F0AD
:10E4FC00C58635EC72F0C9CF03F035EC72F00250E2
:10E50C00D8A402D0C58A01D0C59AC5880350120080
:10E51C000850AA6E07C0A9FF09C0A8FFA69EA69C1A
:10E52C00A684550EA76EAA0EA76EA682A1A8FED72A
:10E53C00A198A694120092689368000E946E000E37
:10E54C00956E000E966E000E8A6E000E8B6E000E8F
:10E55C008C6E000E8D6E000EC26EC168F19E1200A4
:10E56C00800E23EC72F0890E1F6EFE0E206EE5EC11
:10E57C0072F0C00E23EC72F0890E1F6EFE0E206E30
:10E58C00E5EC72F0800E23EC72F012005E0EF66E6B
:10E59C00E40EF76E000EF86E00EE69F010EE0CF063
:10E5AC000900F5CFEEFFE550E150FAE100EE59F02D
:10E5BC00100EEE6AE806FDE1000167EF78F0000E40
:10E5CC00296E000E2A6E520E2B6EE40E2C6E210E4E
:10E5DC00276E000E286E290E0D6E000E0E6E1FC0DB
:10E5EC000FF020C010F0270E116E000E126E41ECD1
:10E5FC007CF012000A500B10D8B418D0010E0C6E1F
:10E60C0004D0D8900A360B360C2A0BAEFAD70A5027
:10E61C00085C0B500958D8A004D00A50085E0B5067
:10E62C00095AD8900B320A320C2EF1D708C008F0D8
:10E63C0009C009F012001FC027F020C028F0000EFE
:10E64C00296E000E2A6E230E256E000E266E270EE6
:10E65C000D6E000E0E6E21C00FF022C010F0250EB4
:10E66C00116E000E126E41EC7CF027C0D9FF28C051
:10E67C00DAFF000EDF6E1200270E046EF50EE82E88
:10E68C00FED7042EFCD700F0330E23EC72F0320EC2
:10E69C0023EC72F0280E23EC72F00F0E23EC72F0C8
:10E6AC00060E23EC72F0010E23EC72F0270E046EB2
:10E6BC00F50EE82EFED7042EFCD700F01200000E4B
:10E6CC00066E000E056E03500410D8B41CD0010E5B
:10E6DC00076E04D0D89003360436072A04AEFAD756
:10E6EC00D890053606360350015C04500258D8A069
:10E6FC0005D00350015E0450025A0580D8900432B4
:10E70C000332072EEDD705C001F006C002F012004F
:10E71C00026E0250F00B016E8C500F0B8C6E015080
:10E72C008C108C6E8C96100EE82EFED700D08C863A
:10E73C00100EE82EFED700D00238F00B026E0250FD
:10E74C00F00B016E8C500F0B8C6E01508C108C6E7C
:10E75C008C96100EE82EFED700D08C86100EE82E6C
:10E76C00FED700D01200000EC76E280EC66E000E2B
:10E77C00C56E000E016E120E026E7A0E036E000E46
:10E78C00046E0EC012F00FC013F010C014F011C0C4
:10E79C0015F0020ED8901236133614361536E82EB4
:10E7AC00F9D712C005F013C006F014C007F015C05D
:10E7BC0008F056EC74F00104C86E9486948812002C
:10E7CC0016EC72F0000E036ED00E026E1EEC72F0A0
:10E7DC00000E036E000E026E1EEC72F01AEC72F05C
:10E7EC0016EC72F0000E036ED10E026E1EEC72F07F
:10E7FC00000E046E050E046401D00ED00450010D01
:10E80C00600EF324D96E000EF420DA6E010E7BEC50
:10E81C0072F0DF6E042AEED7000E7BEC72F0666E9F
:10E82C001AEC72F0120030D067046810D8A42CD007
:10E83C00E6EC73F0800E23EC72F0D20E1F6EFF0E1E
:10E84C00206E65C021F0226A64C023F0246AE5ECD6
:10E85C0072F0700E1F6EFF0E206E62C021F0226AE5
:10E86C0061C023F0246A60C025F0266AE5EC72F0E2
:10E87C00020E2E6E860E2D6E990EE82EFED72D2EC4
:10E88C00FCD72E2EFAD700F081A2CED781380F0BF1
:10E89C000F0B2F6E81B2FED700F000F02F5012003C
:10E8AC00000E096E000E0A6E000E0B6E000E0C6E42
:10E8BC000550061007100810D8B42AD0010E0D6EA2
:10E8CC0006D0D89005360636073608360D2A08AE1F
:10E8DC00F8D7D89009360A360B360C360550015C41
:10E8EC00065002580750035808500458D8A009D0B5
:10E8FC000550015E0650025A0750035A0850045A3C
:10E90C000980D89008320732063205320D2EE1D735
:10E91C0009C001F00AC002F00BC003F00CC004F0F7
:10E92C001200B6EC72F024D0B6EC72F0EB0E1F6E47
:10E93C00FF0E206EE5EC72F030D0B6EC72F0000EEB
:10E94C001F6EFF0E206EE5EC72F027D0B6EC72F065
:10E95C00100E1F6EFF0E206EE5EC72F01ED0B6ECA2
:10E96C0072F0200E1F6EFF0E206EE5EC72F015D0CB
:10E97C002DC02FF02EC030F03050000AD8A40DD08E
:10E98C002F50000AD8B4D0D7010AD8B4D6D7030A6E
:10E99C00D8B4DCD7010AD8B4E2D7C00E23EC72F09D
:10E9AC00DE0E1F6EFE0E206EE5EC72F01200000EF5
:10E9BC00046E000E036E045017E1320E035CD8B0E7
:10E9CC0013D08282E40E00D000D0E82EFCD700D009
:10E9DC0000D08292320E016EDE0EE82EFED7012E92
:10E9EC00FCD7034A042AE7D7150E026E4B0E016EB4
:10E9FC00BE0EE82EFED7012EFCD7022EFAD700D081
:10EA0C00000E046E000E036E045018E1320E035C0F
:10EA1C00D8B014D082820A0E016E580EE82EFED7A2
:10EA2C00012EFCD700D082922B0E016E980EE82E90
:10EA3C00FED7012EFCD7034A042AE6D7150E026E28
:10EA4C004B0E016EBE0EE82EFED7012EFCD7022E09
:10EA5C00FAD700D01200B6EC72F03BD0B6EC72F0E4
:10EA6C009B0E1F6EFF0E206EE5EC72F047D0E6ECAD
:10EA7C0073F0B6EC72F0D20E1F6EFF0E206E65C0F6
:10EA8C0021F0226A64C023F0246AE5EC72F0700E67
:10EA9C001F6EFF0E206E62C021F0226A61C023F04F
:10EAAC00246A60C025F0266AE5EC72F027D0B6EC3B
:10EABC0072F08D0E1F6EFF0E206EE5EC72F01ED004
:10EACC00B6EC72F0BC0E1F6EFE0E206EE5EC72F012
:10EADC0015D02DC02FF02EC030F03050000AD8A425
:10EAEC000DD02F50000AD8B4B9D7010AD8B4BFD76B
:10EAFC00030AD8B4DCD7010AD8B4E2D7C00E23EC91
:10EB0C0072F0CD0E1F6EFE0E206EE5EC72F0120050
:10EB1C00000E346E060E336E33C02DF034C02EF062
:10EB2C0035EC77F019EC74F0316E3150010D310E7B
:10EB3C00F324F66EFE0EF420F76EF86A000EF8223F
:10EB4C000800F5CF32F0400EF66EFE0EF76EF86A46
:10EB5C000800F5503218D8B41200350EF66EFE0EC1
:10EB6C00F76EF86A0800F5503218D8A413D0335059
:10EB7C003410D8A405D0000E346E060E336E03D0BC
:10EB8C003306D8A0340633C02DF034C02EF035EC4B
:10EB9C0077F0C8D7370EF66EFE0EF76EF86A0800DF
:10EBAC00F5503218D8A4BED7060E33183410D8A49A
:10EBBC0005D0000E346E000E336E02D0334A342A68
:10EBCC0033C02DF034C02EF035EC77F0ABD702D03B
:10EBDC00074A082A07C0D9FF08C0DAFF200EDE1842
:10EBEC00D8B4F6D707C0D9FF08C0DAFF090EDE1873
:10EBFC00D8B4EED7000E0D6E000E0C6E000E0B6E20
:10EC0C0007C0D9FF08C0DAFF2D0EDE18D8A402D039
:10EC1C000B2A24D007C0D9FF08C0DAFF2B0EDE1850
:10EC2C00D8A41ED01BD00CC001F00DC002F0000EF9
:10EC3C00046E0A0E036E68EC72F007C0D9FF08C0B0
:10EC4C00DAFFDF50096E0A6A0150092602500A22C7
:10EC5C00D00E09240C6EFF0E0A200D6E074A082AEE
:10EC6C0007C0D9FF08C0DAFFDF5049EC72F0D8B00A
:10EC7C00DAD70B50D8B40DD00CC009F00DC00AF087
:10EC8C00091E0A1E094A0A2A09C007F00AC008F020
:10EC9C0012000CC007F00DC008F01200000E2E6E12
:10ECAC00000E2D6E310E1F6E000E206E7A0E216E30
:10ECBC00FF0E226E60C023F0246A21EC73F0310E3B
:10ECCC00076E000E086EEDEC75F007502D260850FF
:10ECDC002E22310E1F6E000E206E7A0E216EFF0E4C
:10ECEC00226E61C023F0246A21EC73F0310E076EA2
:10ECFC00000E086EEDEC75F007C02FF008C030F078
:10ED0C002FC001F030C002F0000E046E3C0E036EFA
:10ED1C0068EC72F001502D2602502E22310E1F6E1F
:10ED2C00000E206E7A0E216EFF0E226E62C023F052
:10ED3C00246A21EC73F0310E076E000E086EEDECB8
:10ED4C0075F007C02FF008C030F02FC001F030C0B4
:10ED5C0002F00E0E046E100E036E68EC72F0015091
:10ED6C002D2602502E222DC02BF02EC02CF012007E
:10ED7C00000E106E000E0F6E10BE06D0105036E155
:10ED8C00060E0F5CD8B032D00FC001F010C002F0EC
:10ED9C00000E046E0C0E036E68EC72F001C00BF0EA
:10EDAC0002C00CF009C001F00AC002F0000E046EA3
:10EDBC00C80E036E68EC72F001500B24076E025003
:10EDCC000C20086E3EEC72F00D6E0E6AD8900F346B
:10EDDC00D96E1034DA6E690ED926000EDA220DC007
:10EDEC00DEFF0EC0DDFF0F4A102AC6D7000E106ED4
:10EDFC00000E0F6E10BE06D0105030E1070E0F5CE7
:10EE0C00D8B01200590E0F24D96E000E1020DA6EF5
:10EE1C00060E0F24016E000E1020026E000E046E02
:10EE2C000C0E036E68EC72F001C00BF002C00CF01B
:10EE3C0009C001F00AC002F0000E046EC80E036E89
:10EE4C0068EC72F001500B24076E02500C20086E17
:10EE5C003EEC72F0DF6E0F4A102ACCD71200B6ECE3
:10EE6C0072F06CD0B6EC72F0600E1F6EFF0E206E5E
:10EE7C0069C021F06AC022F0E5EC72F07DD0B6ECEE
:10EE8C0072F0B70E1F6EFF0E206E6BC021F06CC0BF
:10EE9C0022F0E5EC72F070D0B6EC72F0A90E1F6E99
:10EEAC00FF0E206E6DC021F06EC022F0E5EC72F00A
:10EEBC0063D0B6EC72F0500E1F6EFF0E206E6FC05A
:10EECC0021F070C022F0E5EC72F056D0B6EC72F086
:10EEDC00400E1F6EFF0E206E71C021F072C022F02A
:10EEEC00E5EC72F049D0B6EC72F0EF0E1F6EFE0E30
:10EEFC00206E73C021F074C022F0E5EC72F03CD0AF
:10EF0C00B6EC72F0D20E1F6EFF0E206E5EC021F0BA
:10EF1C00226A5DC023F0246AE5EC72F0700E1F6E5D
:10EF2C00FF0E206E5BC021F0226A5AC023F0246AC7
:10EF3C0059C025F0266AE5EC72F01ED02DC02FF0DA
:10EF4C002EC030F03050000AD8A416D02F50000A32
:10EF5C00D8B488D7010AD8B492D7030AD8B49CD7AE
:10EF6C00010AD8B4A6D7070AD8B4B0D7010AD8B4C6
:10EF7C00BAD7030AD8B4C4D7C00E23EC72F0660E0D
:10EF8C001F6EFE0E206EE5EC72F0120001500210A6
:10EF9C00D8A421D0000E066E000E056E065005E1B9
:10EFAC00320E055CD8B080D001D07ED08284E40EC5
:10EFBC0000D000D0E82EFCD700D000D08294320EC6
:10EFCC00036EDE0EE82EFED7032EFCD7054A062A6A
:10EFDC0006506AE1E5D701040210D8A41ED0000E39
:10EFEC00066E000E056E06505FE1320E055CD8B061
:10EFFC005BD08284040E036EE40EE82EFED7032E43
:10F00C00FCD700D08294310E036E0C0EE82EFED786
:10F01C00032EFCD7054A062AE6D7020E0118021069
:10F02C00D8A41ED0000E066E000E056E06503CE1F4
:10F03C00320E055CD8B038D08284060E036EB60E44
:10F04C00E82EFED7032EFCD782942F0E036E3A0EB9
:10F05C00E82EFED7032EFCD700D0054A062AE6D7A9
:10F06C00030E01180210D8A41FD0000E066E000E5D
:10F07C00056E065019E1320E055CD8B015D08284AD
:10F08C00080E036E870EE82EFED7032EFCD700F079
:10F09C0082942D0E036E690EE82EFED7032EFCD73C
:10F0AC0000F0054A062AE5D7150E046E4B0E036ECA
:10F0BC00BE0EE82EFED7032EFCD7042EFAD700D0B6
:10F0CC00120058EC72F067C02DF068C02EF031ECD5
:10F0DC0075F019EC74F0566E5650010D310EF32488
:10F0EC00F66EFE0EF420F76EF86A000EF822080099
:10F0FC00F5CF58F0340EF66EFE0EF76EF86A080077
:10F10C00F5505818D8B423D03ED017EC7BF034D03F
:10F11C00000E026E000E016ECCEC77F0000E026E4B
:10F12C00010E016ECCEC77F0000E026E020E016E39
:10F13C00CCEC77F0000E026E030E016ECCEC77F087
:10F14C001BD00AEC7AF018D08EEC75F015D067C095
:10F15C0056F068C057F05750000AD8A40DD056503E
:10F16C00000AD8B4D2D7010AD8B4D2D7030AD8B47B
:10F17C00E8D7010AD8B4E8D767C02DF068C02EF0E4
:10F18C0031EC75F039D0350EF66EFE0EF76EF86A6E
:10F19C000800F5505818D8A413D067506810D8A49C
:10F1AC0005D0000E686E030E676E03D06706D8A0FC
:10F1BC00680667C02DF068C02EF031EC75F01CD0DD
:10F1CC00370EF66EFE0EF76EF86A0800F5505818FA
:10F1DC00D8A412D0030E67186810D8A405D0000E5E
:10F1EC00686E000E676E02D0674A682A67C02DF001
:10F1FC0068C02EF031EC75F067046810D8A469D79C
:10F20C0067C02DF068C02EF031EC75F062D7000E9F
:10F21C000E6E000E0D6E0EBE06D00E5031E10D0EB0
:10F22C000D5CD8B02DD00DC001F00EC002F0000E58
:10F23C00046E0C0E036E68EC72F0900E0124076ED7
:10F24C00010E0220086E3EEC72F00A6E0A500B6E34
:10F25C000C6A0DC001F00EC002F0000E046E0C0E14
:10F26C00036E68EC72F0580E0124076E020E022039
:10F27C00086E0BC009F08EEC72F00D4A0E2ACBD73B
:10F28C00000E0E6E000E0D6E0EBE06D00E5031E14D
:10F29C000D0E0D5CD8B02DD00DC001F00EC002F0DB
:10F2AC00000E046E0C0E036E68EC72F0C80E012496
:10F2BC00076E000E0220086E3EEC72F00A6E0A50C9
:10F2CC000B6E0C6A0DC001F00EC002F0000E046E45
:10F2DC000C0E036E68EC72F0900E0124076E010E9A
:10F2EC000220086E0BC009F08EEC72F00D4A0E2A4B
:10F2FC00CBD7000E0E6E000E0D6E0EBE06D00E504D
:10F30C002FE10D0E0D5CD8B02BD00DC001F00EC04E
:10F31C0002F0000E046E0C0E036E68EC72F001C06D
:10F32C0007F002C008F03EEC72F00A6E0A500B6E49
:10F33C000C6A0DC001F00EC002F0000E046E0C0E33
:10F34C00036E68EC72F0C80E0124076E000E0220EA
:10F35C00086E0BC009F08EEC72F00D4A0E2ACDD758
:10F36C00000E0E6E000E0D6E0EBE06D00E5022E17B
:10F37C00060E0D5CD8B01ED00DC001F00EC002F010
:10F38C00000E046E0C0E036E68EC72F001C007F0F8
:10F39C0002C008F0D8900D34D96E0E34DA6E690EB6
:10F3AC00D926000EDA22DF50096E8EEC72F00D4A6F
:10F3BC000E2ADAD7000E0E6E000E0D6E0EBE06D0A3
:10F3CC000E5021E1070E0D5CD8B01200060E0D2474
:10F3DC00016E000E0E20026E000E046E0C0E036EFB
:10F3EC0068EC72F001C007F002C008F0590E0D2451
:10F3FC00D96E000E0E20DA6EDF50096E8EEC72F0B4
:10F40C000D4A0E2ADBD71200000E536E000E526E00
:10F41C0052C02DF053C02EF097EC74F019EC74F030
:10F42C00356E3550010D310EF324F66EFE0EF420C0
:10F43C00F76EF86A000EF8220800F5CF51F0340E82
:10F44C00F66EFE0EF76EF86A0800F5505118D8A447
:10F45C00A4D0000E556E000E546E55BE06D05550FD
:10F46C001DE1060E545CD8B019D0D8905434D96E26
:10F47C005534DA6E690ED926000EDA22D89054343F
:10F48C00E16E5534E26E450EE126000EE222DECF2F
:10F49C00E6FFDDCFE5FF544A552ADFD7000E556E47
:10F4AC00000E546E55BE06D055501DE1070E545C2F
:10F4BC00D8B019D0590E5424D96E000E5520DA6EDE
:10F4CC00DF50356E366AD8905434D96E5534DA6EB6
:10F4DC00370ED926000EDA2235C0DEFF36C0DDFF2E
:10F4EC00544A552ADFD752C009F053C00AF0BEEC7B
:10F4FC0076F08EEC75F052C02DF053C02EF097ECD8
:10F50C0074F0000E556E000E546E55BE06D055505C
:10F51C001DE1060E545CD8B019D0D8905434D96E75
:10F52C005534DA6E450ED926000EDA22D8905434B2
:10F53C00E16E5534E26E690EE126000EE222DECF5A
:10F54C00E6FFDDCFE5FF544A552ADFD7000E556E96
:10F55C00000E546E55BE08D0555005E1070E545C94
:10F56C00D8B05CD701D05AD7D8905434D96E553412
:10F57C00DA6E370ED926000EDA22590E5424E16EBB
:10F58C00000E5520E26EDFCFE7FF544A552A55BED8
:10F59C00EBD7555001E1E2D741D7400EF66EFE0E87
:10F5AC00F76EF86A0800F5505118D8B41200350EF1
:10F5BC00F66EFE0EF76EF86A0800F5505118D8A4D6
:10F5CC0013D052505310D8A405D0000E536E030E16
:10F5DC00526E03D05206D8A0530652C02DF053C021
:10F5EC002EF097EC74F01AD7370EF66EFE0EF76EFF
:10F5FC00F86A0800F5505118D8A410D7030E521809
:10F60C005310D8A405D0000E536E000E526E02D0CB
:10F61C00524A532A52C02DF053C02EF097EC74F07E
:10F62C00FDD68280000E3B6E000E3A6E000E3D6ED3
:10F63C00000E3C6E000E416E000E406E41BE06D0B8
:10F64C00415014E1060E405CD8B010D0D890403434
:10F65C00D96E4134DA6E690ED926000EDA22000E0C
:10F66C00DE6E000EDD6E404A412AE8D7B6EC72F031
:10F67C00300E1F6EFF0E206EE5EC72F0E6EC73F0B0
:10F68C0054EC76F02BC035F02CC036F089D0C00E7F
:10F69C0023EC72F07F0E1F6EFF0E206EE5EC72F005
:10F6AC0080B0FED780A07CD0C00E23EC72F0AB0EE5
:10F6BC001F6EFE0E206EE5EC72F00B0E346E260EF5
:10F6CC00336E5E0EE82EFED7332EFCD7342EFAD7CF
:10F6DC0080B20DD0C00E23EC72F0FB0E1F6EFF0E2D
:10F6EC00206EE5EC72F0000E3B6E000E0CD0C00EDE
:10F6FC0023EC72F0F60E1F6EFF0E206EE5EC72F02E
:10F70C00000E3B6E010E3A6E80B480A601D00AD07A
:10F71C00DF0E1F6EFF0E206EE5EC72F0000E3D6EDC
:10F72C00000E09D0C50E1F6EFF0E206EE5EC72F0B8
:10F73C00000E3D6E010E3C6E6B4A6C2A3AC033F0E3
:10F74C003BC034F0D890333634363C5033263D50E1
:10F75C003422020E33243E6E000E34203F6ED890BD
:10F76C003E34D96E3F34DA6E690ED926000EDA2299
:10F77C00DE2A000EDD220B0E346E260E336E5E0E6C
:10F78C00E82EFED7332EFCD7342EFAD7FE0E3E24AD
:10F79C00016EFF0E3F20026ECCEC77F0DDEC74F0C6
:10F7AC006CBE75D76C5004E10A0E6B5CD8A06FD799
:10F7BC008290B6EC72F0540E1F6EFE0E206EE5ECCD
:10F7CC0072F0C00E23EC72F09A0E1F6EFE0E206EBD
:10F7DC00E5EC72F0E6EC73F054EC76F02BC037F0FD
:10F7EC002CC038F035C033F036C034F0331E341E24
:10F7FC00334A342A37503324696E385034206A6EB9
:10F80C00000E416E000E406E41BE06D0415015E117
:10F81C00070E405CD8B011D0600E4024D96E000E9B
:10F82C004120DA6E590E4024E16E000E4120E26E4A
:10F83C00DFCFE7FF404A412AE7D70DEC79F019EC0E
:10F84C0074F0336E3350010D310EF324F66EFE0E50
:10F85C00F420F76EF86A000EF8220800F5CF39F0A4
:10F86C00340EF66EFE0EF76EF86A0800F550391875
:10F87C00D8B41200E4D7C4D2250E1E18D8B436D092
:10F88C0020EE02F00D50D9260E50DA22DE50DE109A
:10F89C00D8B416D020EE02F00D50D9260E50DA2234
:10F8AC00DECF13F0DDCF14F001D8AAD20500FA6E2A
:10F8BC001350FD6E1450FE6EFF6AFA501E5012006B
:10F8CC000DC0D9FF0EC0DAFFDECF13F0DDCF14F080
:10F8DC0013C0D9FF14C0DAFF1EC0DFFF0DC0D9FF63
:10F8EC000EC0DAFFDE2A000EDD228AD2000E1D6E5B
:10F8FC00000E1C6E000E1B6E03D01B840F4A102AC8
:10F90C000FC0F6FF10C0F7FFF86A0800F550300A78
:10F91C00D8B4F3D70FC0F6FF10C0F7FFF86A080091
:10F92C00F55049EC72F0D8A037D0000E1D6E000EC9
:10F93C001C6E1CC001F01DC002F0000E046E0A0EFD
:10F94C00036E68EC72F001C01CF002C01DF0D00E0A
:10F95C00136EFF0E146E0FC0F6FF10C0F7FFF86A9F
:10F96C000800F550156E166A135015261450162201
:10F97C0015501C2616501D220F4A102A0FC0F6FFD8
:10F98C0010C0F7FFF86A0800F55049EC72F0D8A0E7
:10F99C0003D0CFD71B8E18D00FC0F6FF10C0F7FFC7
:10F9AC000F4A102AF86A0800F5CF1EF01E50000A04
:10F9BC00D8B433D2640AD8B407D00D0AD8B404D062
:10F9CC00110AD8B4E7D71CD21BBE1DD011C0D9FF69
:10F9DC0012C0DAFFDFCF13F0020EDE26DFCF14F0F9
:10F9EC00000EDD2213C0D9FF14C0DAFFDECF19F0F0
:10F9FC00DDCF1AF01AAE52D0030E1B12196C1A1E60
:10FA0C00D8B01A2A4BD011C0D9FF12C0DAFFDFCF01
:10FA1C0013F0020EDE26DFCF14F0000EDD2213C031
:10FA2C00D9FF14C0DAFFDECF19F0DDCF1AF036D0D3
:10FA3C00010E1E6E050E1E18D8B438D01E50020DC5
:10FA4C00420EF324F66EFE0EF420F76EF86A000EEA
:10FA5C00F8220900F550195C0900F5501A58D8A085
:10FA6C0025D01E2AE7D7010E1E6E040E1E18D8B420
:10FA7C001DD01E50020D4C0EF324F66EFE0EF4201B
:10FA8C00F76EF86A000EF8220900F550195C0900AF
:10FA9C00F5501A58D8A00AD01E2AE7D71B50800B55
:10FAAC00000AD8B4C5D7800AD8B4DDD71C501D10B5
:10FABC00D8B409D01BC013F0030E1316D8B403D05E
:10FACC001C06D8A01D06800E1EBE7F0E136E1C5089
:10FADC001E5C1D50800A1358D8B007D01E501C5EF7
:10FAEC00000E1EBEFF0E1D5A04D0000E1D6E000E21
:10FAFC001C6E1BA478D01BC013F0030E1316D8B4C5
:10FB0C0035D020EE02F00D50D9260E50DA22DE5000
:10FB1C00DE10D8B416D020EE02F00D50D9260E50BF
:10FB2C00DA22DECF13F0DDCF14F001D81FD00500A0
:10FB3C00FA6E1350FD6E1450FE6EFF6AFA502D0EC5
:10FB4C0012000DC0D9FF0EC0DAFFDECF13F0DDCFEF
:10FB5C0014F013C0D9FF14C0DAFF2D0EDF6E0DC0E8
:10FB6C00D9FF0EC0DAFFDE2A000EDD221C501D105C
:10FB7C00D8B4B4D020EE02F00D50D9260E50DA22B3
:10FB8C00DE50DE10D8B416D020EE02F00D50D9267F
:10FB9C000E50DA22DECF13F0DDCF14F001D81FD0D7
:10FBAC000500FA6E1350FD6E1450FE6EFF6AFA508B
:10FBBC00300E12000DC0D9FF0EC0DAFFDECF13F0ED
:10FBCC00DDCF14F013C0D9FF14C0DAFF300EDF6E96
:10FBDC000DC0D9FF0EC0DAFFDE2A000EDD221C0696
:10FBEC00D8A01D06C3D71C501D10D8B43CD020EE95
:10FBFC0002F00D50D9260E50DA22DE50DE10D8B4A9
:10FC0C0016D020EE02F00D50D9260E50DA22DECF9F
:10FC1C0013F0DDCF14F001D81FD00500FA6E13508D
:10FC2C00FD6E1450FE6EFF6AFA50200E12000DC0CD
:10FC3C00D9FF0EC0DAFFDECF13F0DDCF14F013C006
:10FC4C00D9FF14C0DAFF200EDF6E0DC0D9FF0EC035
:10FC5C00DAFFDE2A000EDD221C06D8A01D061C5081
:10FC6C001D10D8A4C4D71BC013F0030E1316D8B4A0
:10FC7C0035D020EE02F00D50D9260E50DA22DE508F
:10FC8C00DE10D8B416D020EE02F00D50D9260E504E
:10FC9C00DA22DECF13F0DDCF14F001D81FD005002F
:10FCAC00FA6E1350FD6E1450FE6EFF6AFA502D0E54
:10FCBC0012000DC0D9FF0EC0DAFFDECF13F0DDCF7E
:10FCCC0014F013C0D9FF14C0DAFF2D0EDF6E0DC077
:10FCDC00D9FF0EC0DAFFDE2A000EDD221EC018F09E
:10FCEC008BD01850020D420EF324F66EFE0EF4204B
:10FCFC00F76EF86A000EF8220900F5CF03F00A003F
:10FD0C00F5CF04F019C001F01AC002F065EC73F0E5
:10FD1C0001C008F002C009F0000E0B6E0A0E0A6E4C
:10FD2C0000EC73F00850300F1E6E31D019C001F08A
:10FD3C001AC002F01850020D4C0EF324F66EFE0E93
:10FD4C00F420F76EF86A000EF8220900F5CF03F0E4
:10FD5C000A00F5CF04F065EC73F001500F0B176E31
:10FD6C001750010D780EF324F66EFE0EF420F76E8C
:10FD7C00F86A000EF8220800F5CF1EF008D01B50D0
:10FD8C00800B000AD8B4ADD7800AD8B4CFD720EEF8
:10FD9C0002F00D50D9260E50DA22DE50DE10D8B407
:10FDAC0016D020EE02F00D50D9260E50DA22DECFFE
:10FDBC0013F0DDCF14F001D81FD00500FA6E1350EC
:10FDCC00FD6E1450FE6EFF6AFA501E5012000DC0EC
:10FDDC00D9FF0EC0DAFFDECF13F0DDCF14F013C065
:10FDEC00D9FF14C0DAFF1EC0DFFF0DC0D9FF0EC053
:10FDFC00DAFFDE2A000EDD2218061828D8A4BFD799
:10FE0C000FC0F6FF10C0F7FF0F4A102AF86A08005F
:10FE1C00F5CF1EF01E50D8A42FD5000E0E6E000E7E
:10FE2C000D6E1200003132334134353642373839D9
:10FE3C00432A3023440001000A006400E803102721
:10FE4C000100100000010010434F4D504C4554452B
:10FE5C00442121212020202020003C3420204261FC
:10FE6C00636B3A2020442020363E20003031323360
:10FE7C00343536373839616263646566002020207A
:10FE8C002020202020202020202020202000412065
:10FE9C00746F206261636B202020202020200042A0
:10FEAC004F54544C4520494E534944452020200082
:10FEBC00416363657373204C6173742052756E20BB
:10FECC00003C34202053746172743A204120203657
:10FEDC003E003C3420204E61763A20412F442020B5
:10FEEC00363E0045736B6120772F6F204361703A6B
:10FEFC0020256900202020506173742052756E20DB
:10FF0C0032202000202020506173742052756E2006
:10FF1C0033202000202020506173742052756E20F5
:10FF2C00342020002E2E2E4F7065726174696E671E
:10FF3C002E2E2E0045736B6120772F204361703A73
:10FF4C0020256900596F7020772F6F204361703A1C
:10FF5C002025690054696D652074616B656E3A20CB
:10FF6C0025697300253032783A253032783A2530BD
:10FF7C003278004E4F20424F54544C4520202020C4
:10FF8C000041636365737320454550524F4D0042E9
:10FF9C006567696E20536F7274696E6700596F7074
:10FFAC0020772F4361703A202569002320426F741B
:10FFBC00746C65733A2025690020772F6F2043619C
:10FFCC00702020202000253032782F2530327820E8
:10FFDC0020200020772F2043617020202020005209
:10FFEC006563656E742052756E0045534B41005924
:04FFFC004F50000062
:020000040020DA
:08000000FFFFFFFFFFFFFFFF00
:020000040030CA
:0E000000FF021F1EFF8381FF0FC00FE00F40A5
:00000001FF
