:04000000E1EF0CF030
:10100000003132334134353642373839432A3023C0
:10101000440001000A006400E8031027202020207B
:1010200020202020202020202020202000232054A9
:101030006F74616C20426F74746C65733F00507202
:10104000657373204420746F20737461727400237D
:101050002045736B6120772F6F204361703F002321
:101060002045736B6120772F204361703F00232060
:10107000596F7020772F6F204361703F00232059F4
:101080006F7020772F204361703F00736572766F19
:101090002074657374696E670031372F30312F32D9
:1010A000342D257300286E756C6C29005442256917
:1010B00020004543256920005943256920005469D3
:0F10C0006D653F00452569200059256920000016
:1010D000000E946E000E956E9368000E8A6E000EE0
:1010E0008B6E000EC26EC1682CEC0CF0000E3E6ED2
:1010F000000E3D6E80EC0BF0BE0E0D6E100E0E6EEF
:1011000044EC0AF025D081A2FED781380F0B0F0BDB
:10111000396E81B2FED700F000F03950010D010E9A
:10112000F324F66E100EF420F76EF86A000EF82223
:101130000800F5CF3FF0290E3D24D96E000E3E2069
:10114000DA6E3FC0DFFF3F50D5EC0CF03D4A3E2A3F
:101150003EBED9D73E5004E1060E3D5CD8A0D3D7A1
:1011600070EC0CF0990E0D6E100E0E6E290E0F6EB7
:10117000000E106E44EC0AF0C00EDBEC0CF03E0EDC
:101180000D6E100E0E6E44EC0AF081A2FED781386F
:101190000F0B0F0B3A6E81B2FED700F000F03A5001
:1011A000010D010EF324F66E100EF420F76EF86AAE
:1011B000000EF8220800F5CF3BF0100EF66E100E70
:1011C000F76EF86A0800F5CF3CF03C503B18D8A405
:1011D000DCD770EC0CF02D0E1D6E100E1E6E030E83
:1011E0001F6E1FEC0BF01DC02FF01EC030F06E0EF6
:1011F0001D6E100E1E6E030E1F6E1FEC0BF01DC039
:1012000031F01EC032F07D0E1D6E100E1E6E0F0EE0
:101210001F6E1FEC0BF01DC033F01EC034F04F0EDC
:101220001D6E100E1E6E0F0E1F6E1FEC0BF01DC0FC
:1012300035F01EC036F05F0E1D6E100E1E6E0F0EC6
:101240001F6E1FEC0BF01DC037F01EC038F070ECA5
:101250000CF0AC0E0D6E100E0E6E2FC00FF030C0E5
:1012600010F044EC0AF0C90E0D6E100E0E6E31C077
:101270000FF032C010F044EC0AF0B80E0D6E100EF4
:101280000E6E33C00FF034C010F044EC0AF0C00E04
:10129000DBEC0CF0C40E0D6E100E0E6E35C00FF0B0
:1012A00036C010F044EC0AF0B20E0D6E100E0E6E49
:1012B00037C00FF038C010F044EC0AF0FFD70DC073
:1012C000D9FF0EC0DAFFDF501C6E0D4A0E2A1C50EB
:1012D0009AEC0CF0D8B0F3D7000E186E000E196E11
:1012E000000E1A6E000E1B6E000E176E2D0E1C18CF
:1012F000D8A406D0010E176E07D00D4A0E2A0BD0C7
:101300002B0E1C18D8A407D00DC0D9FF0EC0DAFFD1
:10131000DF501C6EF2D7300E1C18D8A42ED00DC092
:10132000D9FF0EC0DAFFDF501C6E0D4A0E2A115095
:101330001210D8B405D0100E11181210D8A415D060
:10134000780E1C18D8B404D0580E1C18D8A40DD090
:10135000000E126E100E116E0DC0D9FF0EC0DAFF16
:10136000DF501C6E0D4A0E2A08D011501210D8A45E
:1013700004D0000E126E080E116E11501210D8A477
:1013800004D0000E126E0A0E116E1C5086EC0CF08A
:10139000D8A006D01C50CBEC0CF0C90F1C6E07D0A7
:1013A0001C50ADEC0CF0D8A037D0300E1C5E1C5099
:1013B000136E146A1150135C1450800A156E12508B
:1013C000800A1558D8B028D011C001F012C002F020
:1013D000000E02BEFF0E036E046E18C005F019C0A9
:1013E00006F01AC007F01BC008F0ADEC0BF01C5063
:1013F0000124186E000E0220196E000E03201A6ED2
:10140000000E04201B6E0DC0D9FF0EC0DAFFDF50A6
:101410001C6E0D4A0E2AB9D70F501010D8B40ED03A
:10142000FF0E0D24136EFF0E0E20146E0FC0D9FF99
:1014300010C0DAFF13C0DEFF14C0DDFF1750D8B4B0
:101440001AD018C013F019C014F01AC015F01BC040
:1014500016F0131E141E151E161E132A000E14223B
:101460001522162213C00DF014C00EF015C00FF097
:1014700016C010F0120018C00DF019C00EF01AC0FE
:101480000FF01BC010F012000F0E146E000E156E40
:10149000C8D0250E1A18D8B404D01A50D5EC0CF0C8
:1014A000C0D0000E126E3FD014C0D9FF15C0DAFFB5
:1014B000DECF16F0DDCF17F0020E1426000E152237
:1014C00016501710D8A41AD0A50E166E100E176E4F
:1014D00015D016C0F6FF17C0F7FF000EF86E0F0EFE
:1014E000F76403D00800F55005D0F6CFE9FFF7CF39
:1014F000EAFFEF50D5EC0CF0164A172A16C0F6FF9B
:1015000017C0F7FF000EF86E0F0EF76403D0080047
:10151000F55005D0F6CFE9FFF7CFEAFFEF5000090D
:10152000D8B47FD0D6D70DC0F6FF0EC0F7FF0D4A56
:101530000E2AF86A0800F5CF1AF01A50000AD8B43B
:101540001200640AD8B407D00D0AD8B404D01A0A1D
:10155000D8B4AAD766D014C0D9FF15C0DAFFDECF41
:1015600018F0DDCF19F0020E1426000E152219AE68
:1015700006D0030E1212186C191ED8B0192A010ECB
:101580001A6E050E1A18D8B415D01A50020D120E84
:10159000F324F66E100EF420F76EF86A000EF822AF
:1015A0000900F550185C0900F5501958D8A002D070
:1015B0001A2AE7D712C011F0030E1116D8B403D0BF
:1015C0002D0ED5EC0CF01AC013F027D01350020DDD
:1015D000120EF324F66E100EF420F76EF86A000E69
:1015E000F8220900F5CF03F00A00F5CF04F018C087
:1015F00001F019C002F003EC0CF001C008F002C0C9
:1016000009F0000E0B6E0A0E0A6E4FEC0CF008503B
:10161000300F1A6E1A50D5EC0CF013061328D8A40C
:10162000D5D70DC0F6FF0EC0F7FF0D4A0E2AF86A97
:101630000800F5CF1AF01A50D8B412002AD7000EBD
:10164000276E000E266EA20E0D6E100E0E6E1DC0C1
:101650000FF01EC010F044EC0AF0C00EDBEC0CF0F2
:1016600081A2FED781380F0B0F0B246E81B2FED7FB
:1016700000F000F02450010D010EF324F66E100E60
:10168000F420F76EF86A000EF8220800F5CF28F073
:10169000100EF66E100EF76EF86A0800F5CF25F002
:1016A00025502818D8B413D0020E26182710D8B405
:1016B0000ED0200E2624D96E000E2720DA6E28C008
:1016C000DFFF2850D5EC0CF0264A272AC9D770EC4A
:1016D0000CF0200E0D6E000E0E6E220E0F6E000E20
:1016E000106E000E126E0A0E116E5FEC09F00DC046
:1016F00020F00EC021F020C01DF021C01EF012000D
:10170000700ED36E0C0EBD6EFB0E946E960ECA6EEE
:10171000CB68120EBE6E8B0E0D6E100E0E6E44EC6C
:101720000AF081A2FED71A0E1B6EF80EE82EFED725
:101730001B2EFCD700D0180EBE6002D0BE2A02D0ED
:101740000C0EBE6E81B2FED71A0E1B6EF80EE82E7E
:10175000FED71B2EFCD700D0DED7000E096E000E80
:101760000A6E000E0B6E000E0C6E01A008D0055024
:10177000092606500A2207500B2208500C22D89046
:101780000536063607360836D89004320332023260
:1017900001320150021003100410D8A4E6D709C08A
:1017A00001F00AC002F00BC003F00CC004F01200FC
:1017B000026E0250F00B016E8C500F0B8C6E0150BC
:1017C0008C108C6E8C96100EE82EFED700D08C8676
:1017D000100EE82EFED700D00238F00B026E025039
:1017E000F00B016E8C500F0B8C6E01508C108C6EB8
:1017F0008C96100EE82EFED700D08C86100EE82EA8
:10180000FED700D01200000E066E000E056E0350CB
:101810000410D8B41CD0010E076E04D0D890033643
:101820000436072A04AEFAD7D89005360636035098
:10183000015C04500258D8A005D00350015E04504A
:10184000025A0580D89004320332072EEDD705C026
:1018500001F006C002F01200270E046EF50EE82E0D
:10186000FED7042EFCD700F0330EDBEC0CF0320E6A
:10187000DBEC0CF0280EDBEC0CF00F0EDBEC0CF0CC
:10188000060EDBEC0CF0010EDBEC0CF0270E046E08
:10189000F50EE82EFED7042EFCD700F012000A50F9
:1018A0000B10D8B418D0010E0C6E04D0D8900A36A4
:1018B0000B360C2A0BAEFAD70A50085C0B500958AD
:1018C000D8A004D00A50085E0B50095AD8900B32A9
:1018D0000A320C2EF1D708C008F009C009F0120036
:1018E000800EDBEC0CF01C0E0D6E100E0E6E44EC38
:1018F0000AF0C00EDBEC0CF01C0E0D6E100E0E6E1E
:1019000044EC0AF0800EDBEC0CF01200066E010EC7
:10191000056E7B0E066003D0610E066007D0065090
:10192000BCEC0CF0D8B002D0000E056E05C004F07F
:1019300004301200036E010E026E200E0318D8B49C
:1019400008D00E0E036003D0090E036002D0000E13
:10195000026E02C001F001301200036E000E026E32
:101960003A0E036005D02F0E036402D0010E026E02
:1019700002C001F001301200036E000E026E5B0E19
:10198000036005D0400E036402D0010E026E02C057
:1019900001F001301200016E7B0E016004D0600E78
:1019A000016401D0019A01501200036E8C8403502F
:1019B000D8EC0BF01200036E8C940350D8EC0BF0B3
:0819C0001200000168EF08F0BD
:020000040020DA
:08000000FFFFFFFFFFFFFFFF00
:020000040030CA
:0E000000FF021F1EFF8381FF0FC00FE00F40A5
:00000001FF
