:0400000007EF00F016
:1000080051829BED0EF057EF1AF024D3250E000114
:100018009D19D8B43AD0000120EE02F08C51D926AF
:100028008D51DA22DE50DE10D8B419D0000120EE4E
:1000380002F08C51D9268D51DA22DECF92F0DDCF35
:1000480093F001D807D30500FA6E00019251FD6EB6
:100058009351FE6EFF6AFA5000019D5112008CC048
:10006800D9FF8DC0DAFFDECF92F0DDCF93F092C0DA
:10007800D9FF93C0DAFF9DC0DFFF8CC0D9FF8DC0C8
:10008800DAFFDE2A000EDD22E5D2000E00019C6FA9
:10009800000E9B6F000E00019A6F05D000019A8533
:1000A80000018E4B8F2B8EC0F6FF8FC0F7FFF86ACA
:1000B8000800F550300AD8B4F1D78EC0F6FF8FC0CB
:1000C800F7FFF86A0800F55056EC1BF0D8A046D0A8
:1000D800000E00019C6F000E9B6F9BC080F09CC0BF
:1000E80081F0000E0001836F0A0E826FD5EC1AF0C2
:1000F80080C09BF081C09CF0D00E0001926FFF0E73
:100108000001936F8EC0F6FF8FC0F7FFF86A0800F2
:10011800F5500001946F956B0001925100019427EE
:1001280000019351000195230001945100019B2780
:100138000001955100019C2300018E4B8F2B8EC02E
:10014800F6FF8FC0F7FFF86A0800F55056EC1BF071
:10015800D8A004D0C2D700019A8F1AD08EC0F6FF5B
:100168008FC0F7FF00018E4B8F2BF86A0800F5CF80
:100178009DF000019D51000AD8B47BD2640AD8B41E
:1001880007D00D0AD8B404D0110AD8B4E4D762D283
:1001980000019ABF20D090C0D9FF91C0DAFFDFCF0D
:1001A80092F0020EDE26DFCF93F0000EDD2292C021
:1001B800D9FF93C0DAFFDECF98F0DDCF99F00001C8
:1001C80099AF60D0030E00019A130001986D991F32
:1001D800D8B0992B57D090C0D9FF91C0DAFFDFCFA4
:1001E80092F0020EDE26DFCF93F0000EDD2292C0E1
:1001F800D9FF93C0DAFFDECF98F0DDCF99F042D077
:10020800010E00019D6F050E00019D19D8B443D061
:1002180000019D51020D420EF324F66EFE0EF420ED
:10022800F76EF86A000EF8220900F5500001985D93
:100238000900F55000019959D8A02DD000019D2B37
:10024800E2D7010E00019D6F040E00019D19D8B47C
:1002580022D000019D51020D4C0EF324F66EFE0EC5
:10026800F420F76EF86A000EF8220900F550000134
:10027800985D0900F55000019959D8A00CD00001EB
:100288009D2BE2D700019A51800B000AD8B4B8D749
:10029800800AD8B4D6D700019B5100019C11D8B46C
:1002A8000BD09AC092F0030E00019217D8B404D074
:1002B80000019B07D8A09C07800E00019DBF7F0E00
:1002C8000001926F00019B5100019D5D00019C514E
:1002D800800A00019259D8B00BD000019D5100014D
:1002E8009B5F000E00019DBFFF0E00019C5B05D0C7
:1002F800000E00019C6F000E9B6F00019AA582D032
:100308009AC092F0030E00019217D8B438D00001B9
:1003180020EE02F08C51D9268D51DA22DE50DE1003
:10032800D8B418D0000120EE02F08C51D9268D5196
:10033800DA22DECF92F0DDCF93F001D820D005008D
:10034800FA6E00019251FD6E9351FE6EFF6AFA50EB
:100358002D0E12008CC0D9FF8DC0DAFFDECF92F0CF
:10036800DDCF93F092C0D9FF93C0DAFF2D0EDF6E78
:100378008CC0D9FF8DC0DAFFDE2A000EDD22000115
:100388009B5100019C11D8B4C4D0000120EE02F0AA
:100398008C51D9268D51DA22DE50DE10D8B418D00F
:1003A800000120EE02F08C51D9268D51DA22DECFE1
:1003B80092F0DDCF93F001D820D00500FA6E00014D
:1003C8009251FD6E9351FE6EFF6AFA50300E120084
:1003D8008CC0D9FF8DC0DAFFDECF92F0DDCF93F06D
:1003E80092C0D9FF93C0DAFF300EDF6E8CC0D9FF00
:1003F8008DC0DAFFDE2A000EDD2200019B07D8A09F
:100408009C07BDD700019B5100019C11D8B442D074
:10041800000120EE02F08C51D9268D51DA22DE50EF
:10042800DE10D8B418D0000120EE02F08C51D92685
:100438008D51DA22DECF92F0DDCF93F001D820D0B3
:100448000500FA6E00019251FD6E9351FE6EFF6A2F
:10045800FA50200E12008CC0D9FF8DC0DAFFDECF13
:1004680092F0DDCF93F092C0D9FF93C0DAFF200E4F
:10047800DF6E8CC0D9FF8DC0DAFFDE2A000EDD22C8
:1004880000019B07D8A09C0700019B5100019C110B
:10049800D8A4BED79AC092F0030E00019217D8B420
:1004A80038D0000120EE02F08C51D9268D51DA2285
:1004B800DE50DE10D8B418D0000120EE02F08C51C6
:1004C800D9268D51DA22DECF92F0DDCF93F001D814
:1004D80020D00500FA6E00019251FD6E9351FE6E18
:1004E800FF6AFA502D0E12008CC0D9FF8DC0DAFFBA
:1004F800DECF92F0DDCF93F092C0D9FF93C0DAFF40
:100508002D0EDF6E8CC0D9FF8DC0DAFFDE2A000EFB
:10051800DD229DC097F098D000019751020D420E40
:10052800F324F66EFE0EF420F76EF86A000EF82239
:100538000900F5CF82F00A00F5CF83F098C080F06B
:1005480099C081F073EC17F080C087F081C088F003
:10055800000E00018A6F0A0E896FBAEC18F00001CC
:100568008751300F00019D6F36D098C080F099C038
:1005780081F000019751020D4C0EF324F66EFE0E29
:10058800F420F76EF86A000EF8220900F5CF82F021
:100598000A00F5CF83F073EC17F0000180510F0BC0
:1005A8000001966F00019651010D800EF324F66E3E
:1005B800FE0EF420F76EF86A000EF8220800F5CF58
:1005C8009DF009D000019A51800B000AD8B4A4D735
:1005D800800AD8B4CAD7000120EE02F08C51D9267F
:1005E8008D51DA22DE50DE10D8B419D0000120EE89
:1005F80002F08C51D9268D51DA22DECF92F0DDCF70
:1006080093F001D821D00500FA6E00019251FD6ED9
:100618009351FE6EFF6AFA5000019D5112008CC082
:10062800D9FF8DC0DAFFDECF92F0DDCF93F092C014
:10063800D9FF93C0DAFF9DC0DFFF8CC0D9FF8DC002
:10064800DAFFDE2A000EDD22000197070001972954
:10065800D8A4B8D78EC0F6FF8FC0F7FF00018E4B25
:100668008F2BF86A0800F5CF9DF000019D51D8A4A2
:10067800CDD4000E00018D6F000E8C6F1200C4D215
:10068800250E1E18D8B436D020EE02F00D50D9260B
:100698000E50DA22DE50DE10D8B416D020EE02F06A
:1006A8000D50D9260E50DA22DECF13F0DDCF14F02C
:1006B80001D8AAD20500FA6E1350FD6E1450FE6ED2
:1006C800FF6AFA501E5012000DC0D9FF0EC0DAFFA3
:1006D800DECF13F0DDCF14F013C0D9FF14C0DAFF5A
:1006E8001EC0DFFF0DC0D9FF0EC0DAFFDE2A000EE4
:1006F800DD228AD2000E1D6E000E1C6E000E1B6ECF
:1007080003D01B840F4A102A0FC0F6FF10C0F7FF52
:10071800F86A0800F550300AD8B4F3D70FC0F6FFCE
:1007280010C0F7FFF86A0800F550DAEC1BF0D8A003
:1007380037D0000E1D6E000E1C6E1CC001F01DC0CF
:1007480002F0000E046E0A0E036EA5EC1BF001C049
:100758001CF002C01DF0D00E136EFF0E146E0FC0F9
:10076800F6FF10C0F7FFF86A0800F550156E166A14
:10077800135015261450162215501C2616501D22EB
:100788000F4A102A0FC0F6FF10C0F7FFF86A0800DA
:10079800F550DAEC1BF0D8A003D0CFD71B8E18D0B9
:1007A8000FC0F6FF10C0F7FF0F4A102AF86A0800BA
:1007B800F5CF1EF01E50000AD8B433D2640AD8B45C
:1007C80007D00D0AD8B404D0110AD8B4E7D71CD280
:1007D8001BBE1DD011C0D9FF12C0DAFFDFCF13F046
:1007E800020EDE26DFCF14F0000EDD2213C0D9FF83
:1007F80014C0DAFFDECF19F0DDCF1AF01AAE52D0EE
:10080800030E1B12196C1A1ED8B01A2A4BD011C02D
:10081800D9FF12C0DAFFDFCF13F0020EDE26DFCFDA
:1008280014F0000EDD2213C0D9FF14C0DAFFDECFAA
:1008380019F0DDCF1AF036D0010E1E6E050E1E1807
:10084800D8B438D01E50020D420EF324F66EFE0EB8
:10085800F420F76EF86A000EF8220900F550195CCA
:100868000900F5501A58D8A025D01E2AE7D7010E3E
:100878001E6E040E1E18D8B41DD01E50020D4C0E4C
:10088800F324F66EFE0EF420F76EF86A000EF822D6
:100898000900F550195C0900F5501A58D8A00AD07B
:1008A8001E2AE7D71B50800B000AD8B4C5D7800A88
:1008B800D8B4DDD71C501D10D8B409D01BC013F014
:1008C800030E1316D8B403D01C06D8A01D06800E3C
:1008D8001EBE7F0E136E1C501E5C1D50800A1358DE
:1008E800D8B007D01E501C5E000E1EBEFF0E1D5A4B
:1008F80004D0000E1D6E000E1C6E1BA478D01BC009
:1009080013F0030E1316D8B435D020EE02F00D50B4
:10091800D9260E50DA22DE50DE10D8B416D020EEDA
:1009280002F00D50D9260E50DA22DECF13F0DDCFBB
:1009380014F001D81FD00500FA6E1350FD6E145044
:10094800FE6EFF6AFA502D0E12000DC0D9FF0EC0C0
:10095800DAFFDECF13F0DDCF14F013C0D9FF14C0D7
:10096800DAFF2D0EDF6E0DC0D9FF0EC0DAFFDE2ACA
:10097800000EDD221C501D10D8B4B4D020EE02F0B9
:100988000D50D9260E50DA22DE50DE10D8B416D01B
:1009980020EE02F00D50D9260E50DA22DECF13F0E9
:1009A800DDCF14F001D81FD00500FA6E1350FD6E8C
:1009B8001450FE6EFF6AFA50300E12000DC0D9FFB7
:1009C8000EC0DAFFDECF13F0DDCF14F013C0D9FF6D
:1009D80014C0DAFF300EDF6E0DC0D9FF0EC0DAFF8B
:1009E800DE2A000EDD221C06D8A01D06C3D71C5027
:1009F8001D10D8B43CD020EE02F00D50D9260E5070
:100A0800DA22DE50DE10D8B416D020EE02F00D50F7
:100A1800D9260E50DA22DECF13F0DDCF14F001D83C
:100A28001FD00500FA6E1350FD6E1450FE6EFF6A5B
:100A3800FA50200E12000DC0D9FF0EC0DAFFDECF2B
:100A480013F0DDCF14F013C0D9FF14C0DAFF200E65
:100A5800DF6E0DC0D9FF0EC0DAFFDE2A000EDD22E0
:100A68001C06D8A01D061C501D10D8A4C4D71BC036
:100A780013F0030E1316D8B435D020EE02F00D5043
:100A8800D9260E50DA22DE50DE10D8B416D020EE69
:100A980002F00D50D9260E50DA22DECF13F0DDCF4A
:100AA80014F001D81FD00500FA6E1350FD6E1450D3
:100AB800FE6EFF6AFA502D0E12000DC0D9FF0EC04F
:100AC800DAFFDECF13F0DDCF14F013C0D9FF14C066
:100AD800DAFF2D0EDF6E0DC0D9FF0EC0DAFFDE2A59
:100AE800000EDD221EC018F08BD01850020D420EE9
:100AF800F324F66EFE0EF420F76EF86A000EF82264
:100B08000900F5CF03F00A00F5CF04F019C001F091
:100B18001AC002F09CEC19F001C008F002C009F0FC
:100B2800000E0B6E0A0E0A6E78EC1AF00850300FA1
:100B38001E6E31D019C001F01AC002F01850020D13
:100B48004C0EF324F66EFE0EF420F76EF86A000ED3
:100B5800F8220900F5CF03F00A00F5CF04F09CEC69
:100B680019F001500F0B176E1750010D800EF3246A
:100B7800F66EFE0EF420F76EF86A000EF8220800F2
:100B8800F5CF1EF008D01B50800B000AD8B4ADD7A3
:100B9800800AD8B4CFD720EE02F00D50D9260E50D7
:100BA800DA22DE50DE10D8B416D020EE02F00D5056
:100BB800D9260E50DA22DECF13F0DDCF14F001D89B
:100BC8001FD00500FA6E1350FD6E1450FE6EFF6ABA
:100BD800FA501E5012000DC0D9FF0EC0DAFFDECF4A
:100BE80013F0DDCF14F013C0D9FF14C0DAFF1EC014
:100BF800DFFF0DC0D9FF0EC0DAFFDE2A000EDD22AE
:100C080018061828D8A4BFD70FC0F6FF10C0F7FFE2
:100C18000F4A102AF86A0800F5CF1EF01E50D8A413
:100C28002FD5000E0E6E000E0D6E12004FEC1CF04C
:100C3800000E0001BC6F000EBB6F000E0001BE6FFE
:100C4800000EBD6F000E0001C46F000EC36F0001DF
:100C5800C4BF08D00001C45118E1060E0001C35DED
:100C6800D8B013D0D8900001C335D96E0001C4356F
:100C7800DA6EF10ED926000EDA22000EDE6E000EB4
:100C8800DD6E0001C34BC42BE2D70BEC1BF0270E23
:100C980000019E6FFF0E00019F6FECEC19F0AFECA6
:100CA80017F005EC11F0AAC0B4F0ABC0B5F005EC34
:100CB80011F01ED1C00E27EC1CF083A0FED783A034
:100CC8001BD1C00E27EC1CF0760E00019E6FFF0EA4
:100CD80000019F6FECEC19F0060E0001B36F130EC4
:100CE8000001B26FAD0EE82EFED7B22FFCD7B32F9E
:100CF800FAD700D0EAEC17F0060E0001B36F130E16
:100D08000001B26FAD0EE82EFED7B22FFCD7B32F7D
:100D1800FAD700D080B215D0C00E27EC1CF0FA0E1E
:100D280000019E6FFF0E00019F6FECEC19F0000EA2
:100D38000001EA6F000EE96F000E0001BC6F000EA3
:100D480014D0C00E27EC1CF0000E0001EA6F010E53
:100D5800E96FF50E00019E6FFF0E00019F6FECEC2E
:100D680019F0000E0001BC6F010EBB6F57EC15F0B7
:100D78000001A6510001A711D8B40DD0D60E00016C
:100D88009E6FFF0E00019F6FECEC19F0000E000142
:100D9800BE6F000E0CD0BC0E00019E6FFF0E00014E
:100DA8009F6FECEC19F0000E0001BE6F010EBD6FD5
:100DB8000001F34BF42BBBC0B2F0BCC0B3F0D89029
:100DC8000001B237B3370001BD510001B22700015D
:100DD800BE510001B323020E0001B2250001BF6F0E
:100DE800000E0001B3210001C06FD8900001BF358B
:100DF800D96E0001C035DA6EF10ED926000EDA225E
:100E0800DE2A000EDD220B0E0001B36F260E000154
:100E1800B26F5D0EE82EFED7B22FFCD7B32FFAD7EC
:100E280000D0FE0E0001BF250001C16FFF0E0001BA
:100E3800C0210001C26F0001EB510001C15D00013A
:100E4800C251800A0001B26F0001EC51800A000112
:100E5800B259D8A012D0EBC0B2F0ECC0B3F0000188
:100E6800B21FB31FB24BB32B0001C1510001B22511
:100E78000001B96F0001C25127D00001EB510001F8
:100E8800C15D0001C251800A0001B26F0001EC513E
:100E9800800A0001B259D8B01BD0EBC0B2F0ECC048
:100EA800B3F00001B21FB31FB24BB32B0001C15105
:100EB8000001B2270001C2510001B323040E000152
:100EC800B2250001B96F000E0001B3210001BA6F0D
:100ED800B9C080F0BAC081F0A9EC16F0C1C0EBF03F
:100EE800C2C0ECF0F29E1EEC18F0F28E05EC11F088
:100EF800AAC0EDF0ABC0EEF00001F4BFDBD60001F4
:100F0800F45105E10A0E0001F35DD8A0D3D64BECED
:100F18001CF00BEC1BF05C0E00019E6FFE0E000136
:100F28009F6FECEC19F0C00E27EC1CF0A20E00012C
:100F38009E6FFE0E00019F6FECEC19F0AFEC17F0FE
:100F480005EC11F0AAC0B6F0ABC0B7F0B4C0B2F06F
:100F5800B5C0B3F00001B21FB31FB24BB32B0001F1
:100F6800B6510001B2250001F16F0001B75100012F
:100F7800B3210001F26F000E0001C46F000EC36FB1
:100F88000001C4BF08D00001C4511BE1070E0001D5
:100F9800C35DD8B016D0E20E0001C325D96E000E8D
:100FA8000001C421DA6EDB0E0001C325E16E000EDC
:100FB8000001C421E26EDFCFE7FF0001C34BC42B61
:100FC800DFD773EC09F025EC1BF00001B86F340E85
:100FD800F66EFE0EF76EF86A0800F5500001B819B3
:100FE800D8B41200F0D7000E0001D36F000ED26FF4
:100FF800D2C0ACF0D3C0ADF009EC16F025EC1BF074
:101008000001D16F560EF66EFE0EF76E000EF86EEA
:101018000900F5CFB5F00900F5CFB6F0310E0001A3
:10102800B525F66EFE0EB621F76EF86A000EF822A8
:101038000800F5500001D119D8A4CBD0000E00014A
:10104800D56F000ED46F0001D5BF08D00001D5516F
:1010580023E1060E0001D45DD8B01ED0D89000015F
:10106800D435D96E0001D535DA6EF10ED926000EC9
:10107800DA22D8900001D435E16E0001D535E26E50
:10108800C50EE126000EE222DECFE6FFDDCFE5FF4A
:101098000001D44BD52BD7D7000E0001D56F000E19
:1010A800D46F0001D5BF08D00001D55124E1070E47
:1010B8000001D45DD8B01FD0DB0E0001D425D96E55
:1010C800000E0001D521DA6EDF500001B56FB66B56
:1010D800D8900001D435D96E0001D535DA6EB70E37
:1010E800D926000EDA22B5C0DEFFB6C0DDFF00014A
:1010F800D44BD52BD6D7D2C088F0D3C089F0D6EC44
:101108000FF070EC10F0D2C0ACF0D3C0ADF009EC29
:1011180016F0000E0001D56F000ED46F0001D5BF88
:1011280008D00001D55123E1060E0001D45DD8B0E6
:101138001ED0D8900001D435D96E0001D535DA6EAD
:10114800C50ED926000EDA22D8900001D435E16EFA
:101158000001D535E26EF10EE126000EE222DECF67
:10116800E6FFDDCFE5FF0001D44BD52BD7D7000E26
:101178000001D56F000ED46F0001D5BF0AD0000161
:10118800D55106E1070E0001D45DD8B037D701D09C
:1011980035D7D8900001D435D96E0001D535DA6E2F
:1011A800B70ED926000EDA22DB0E0001D425E16E37
:1011B800000E0001D521E26EDFCFE7FF0001D44B1E
:1011C800D52B0001D5BFE5D70001D55101E1DAD70C
:1011D80015D7540EF66EFE0EF76E000EF86E090067
:1011E800F5CFB5F00900F5CFB6F0310E0001B52501
:1011F800F66EFE0EB621F76EF86A000EF8220800A9
:10120800F5500001D119D8B41200580EF66EFE0E32
:10121800F76E000EF86E0900F5CFB5F00900F5CFAE
:10122800B6F0310E0001B525F66EFE0EB621F76E4A
:10123800F86A000EF8220800F5500001D119D8A468
:1012480019D0D20E0001806F000E0001816F000ED0
:101258000001836F000E826F000E0001856F030E80
:10126800846FB7EC1AF0D2C0ACF0D3C0ADF009EC83
:1012780016F0C4D65A0EF66EFE0EF76E000EF86E15
:101288000900F5CFB5F00900F5CFB6F0310E000131
:10129800B525F66EFE0EB621F76EF86A000EF82236
:1012A8000800F5500001D119D8A4A8D6D20E000123
:1012B800806F000E0001816F000E0001836F000E29
:1012C800826F000E0001856F030E846F99EC1AF08F
:1012D800D2C0ACF0D3C0ADF009EC16F08FD6000E3A
:1012E80000018D6F000E8C6F00018DBF08D00001CA
:1012F8008D5140E10D0E00018C5DD8B03BD08CC003
:1013080080F08DC081F0000E0001836F0C0E826F9B
:10131800D5EC1AF0900E000180250001866F010EB1
:10132800000181210001876FE9EC1BF00001896F42
:101338000001895100018A6F8B6B8CC080F08DC0D1
:1013480081F0000E0001836F0C0E826FD5EC1AF04D
:10135800580E000180250001866F020E00018121D0
:101368000001876F8AC088F06BEC1BF000018C4B82
:101378008D2BBAD7000E00018D6F000E8C6F000107
:101388008DBF08D000018D5140E10D0E00018C5D2C
:10139800D8B03BD08CC080F08DC081F0000E000129
:1013A800836F0C0E826FD5EC1AF0C80E00018025F1
:1013B8000001866F000E000181210001876FE9ECB2
:1013C8001BF00001896F0001895100018A6F8B6B46
:1013D8008CC080F08DC081F0000E0001836F0C0E70
:1013E800826FD5EC1AF0900E000180250001866FFF
:1013F800010E000181210001876F8AC088F06BEC23
:101408001BF000018C4B8D2BBAD7000E00018D6F9D
:10141800000E8C6F00018DBF08D000018D513AE19C
:101428000D0E00018C5DD8B035D08CC080F08DC019
:1014380081F0000E0001836F0C0E826FD5EC1AF05C
:1014480080C086F081C087F0E9EC1BF00001896F4D
:101458000001895100018A6F8B6B8CC080F08DC0B0
:1014680081F0000E0001836F0C0E826FD5EC1AF02C
:10147800C80E000180250001866F000E0001812141
:101488000001876F8AC088F06BEC1BF000018C4B61
:101498008D2BC0D7000E00018D6F000E8C6F0001E0
:1014A8008DBF08D000018D5128E1060E00018C5D2A
:1014B800D8B023D08CC080F08DC081F0000E000120
:1014C800836F0C0E826FD5EC1AF080C086F081C055
:1014D80087F0D89000018C35D96E00018D35DA6E11
:1014E800F10ED926000EDA22DF500001886F6BEC6E
:1014F8001BF000018C4B8D2BD2D7000E00018D6F95
:10150800000E8C6F00018DBF08D000018D512BE1BA
:10151800070E00018C5DD8B01200060E00018C2564
:101528000001806F000E00018D210001816F000E07
:101538000001836F0C0E826FD5EC1AF080C086F024
:1015480081C087F0DB0E00018C25D96E000E0001EA
:101558008D21DA6EDF500001886F6BEC1BF0000103
:101568008C4B8D2BCFD7120082C0D9FF83C0DAFFF6
:10157800DF500001846F0001845100018A6F8B6B7A
:10158800000120EE01F08251D9268351DA22DF5082
:101598000001846F0001845100018C6F8D6B000184
:1015A80020EE02F08251D9268351DA22DF50000161
:1015B800846F000184510001866F876B000120EE63
:1015C80003F08251D9268351DA22DF500001846F5B
:1015D800000184510001886F896B020E0001801997
:1015E80000018111D8A46BD000018BBF35D0000158
:1015F8008B5105E1BF0E00018A5DD8A02DD00001F6
:101608008DBF2AD000018D5105E1650E00018C5D6A
:10161800D8A022D0000187BF1FD00001875105E163
:10162800650E0001865DD8A017D0000189BF14D0CF
:101638000001895105E1650E0001885DD8A00CD034
:101648000001E9050001EA11D8A406D0000E000146
:10165800816F010E806F120000018BBF2AD000013C
:101668008B5105E1650E00018A5DD8A022D00001EA
:101678008DBF08D000018D511CE1640E00018C5D06
:10168800D8B017D0000189BF08D00001895111E1F5
:10169800AA0E0001885DD8B00CD00001E951000104
:1016A800EA11D8A406D0000E0001816F010E806FE8
:1016B8001200000E0001816F000E806F1200000101
:1016C800800500018111D8A4120000018BBF2AD027
:1016D80000018B5105E1510E00018A5DD8A022D08E
:1016E80000018C51000186250001846F00018D5195
:1016F800000187210001856F000185BF08D0040E15
:101708000001845D010E00018559D8B00BD000019D
:1017180089BF08D00001895126E1470E0001885D84
:10172800D8B021D000018BBF08D000018B5127E130
:10173800780E00018A5DD8B022D000018DBF1FD07D
:1017480000018D5105E1B50E00018C5DD8A017D0C0
:10175800000189BF14D00001895105E1510E000133
:10176800885DD8A00CD00001E9510001EA11D8A485
:1017780006D0000E0001816F010E806F120000017B
:101788008C5100018A250001846F00018D510001F0
:101798008B210001856F000186510001842700011B
:1017A800875100018523000185BF08D05E0E000126
:1017B800845D010E00018559D8B00CD00001E905FF
:1017C8000001EA11D8A406D0000E0001816F010EB5
:1017D800806F1200000E0001816F000E806F1200F2
:1017E8000BEC1BF081D00BEC1BF0570E00019E6F29
:1017F800FF0E00019F6FF1C0A0F0F2C0A1F0ECEC69
:1018080019F092D00BEC1BF0AE0E00019E6FFF0E8C
:1018180000019F6FF3C0A0F0F4C0A1F0ECEC19F048
:1018280083D00BEC1BF0A00E00019E6FFF0E000191
:101838009F6FF5C0A0F0F6C0A1F0ECEC19F074D0E1
:101848000BEC1BF0470E00019E6FFF0E00019F6F0F
:10185800F7C0A0F0F8C0A1F0ECEC19F065D00BECE3
:101868001BF0370E00019E6FFF0E00019F6FF9C03D
:10187800A0F0FAC0A1F0ECEC19F056D00BEC1BF07C
:10188800E60E00019E6FFE0E00019F6FFBC0A0F0E8
:10189800FCC0A1F0ECEC19F047D00BEC1BF0C90E22
:1018A80000019E6FFF0E00019F6FE0C0A0F00001D5
:1018B800A16BDFC0A2F00001A36BECEC19F0670E7E
:1018C80000019E6FFF0E00019F6FDDC0A0F00001B8
:1018D800A16BDCC0A2F00001A36BDBC0A4F0000187
:1018E800A56BECEC19F020D0ACC0AEF0ADC0AFF0F9
:1018F8000001AF51000AD8A417D00001AE51000A68
:10190800D8B471D7010AD8B47DD7030AD8B489D717
:10191800010AD8B495D7070AD8B4A1D7010AD8B410
:10192800ADD7030AD8B4B9D7C00E27EC1CF06E0E99
:1019380000019E6FFE0E00019F6FECEC19F0120083
:101948008AC08EF000018F6B906B00018935000111
:101958008E3701E38F8100018E510001916F0001E4
:101968009151D8A40AD0000E0001886F000E000122
:10197800896F000E00018A6F12008DC08EF0000181
:101988008F6B906B00018C3500018E3701E38F81DE
:1019980000018E510001966F00019651D8A40AD01B
:1019A800000E0001886F000E0001896F000E000113
:1019B8008A6F1200000196517B0F000191278AC09F
:1019C80096F000018D510001961B800E00019617BC
:1019D8000001898F00018C8FFF0E00018B17FF0E0D
:1019E80000018C17000E00018D17000E0001926F88
:1019F800000E0001936F000E0001946F070E0001A6
:101A0800956F000188A10CD000018B51000192272D
:101A180000018C510001932300018D510001942392
:101A28000001D8908A33893388330001D8908B37E6
:101A38008C378D370001952FE4D7090E0001956F7B
:101A4800000188A10CD000018B51000192270001F0
:101A58008C510001932300018D5100019423000152
:101A6800D8908A33893388330001D89094339333DC
:101A780092330001952FE4D792C080F093C081F093
:101A880094C082F091C083F096C084F093EC11F07A
:101A980080C088F081C089F082C08AF0120099C0A5
:101AA8009DF000019E6B9F6B0001983500019D37EA
:101AB80001E39E8100019D510001A46F0001A45122
:101AC800D8A40AD0000E0001976F000E0001986F8D
:101AD800000E0001996F12009CC09DF000019E6BE2
:101AE8009F6B00019B3500019D3701E39E8100013A
:101AF8009D510001A56F0001A551D8A40AD0000E80
:101B08000001976F000E0001986F000E0001996F99
:101B18001200000E0001A16F000E0001A26F000E5E
:101B28000001A36F0001A551890F0001A45F99C0AE
:101B3800A5F000019C510001A51B800E0001A5170E
:101B48000001988FFF0E00019717FF0E00019817EC
:101B5800000E0001991700019B8FFF0E00019A17D4
:101B6800FF0E00019B17000E00019C17180E0001C4
:101B7800A06F0001D890A137A237A33700019A516E
:101B88000001975D00019B510001985900019C518B
:101B980000019959D8A00ED000019A510001975F11
:101BA80000019B510001985B00019C510001995B69
:101BB8000001A1810001D890973798379937000123
:101BC800A02FD7D7A1C080F0A2C081F0A3C082F017
:101BD800A4C083F0A5C084F093EC11F080C097F006
:101BE80081C098F082C099F01200A8C0AAF0000144
:101BF800AB6BAC6B0001A7350001AA3701E3AB81E1
:101C08000001AA510001B46F0001B451D8A40AD050
:101C1800000E0001A66F000EA76F000EA86F000E41
:101C2800A96F1200170E0001AA6FA6C0ABF0A7C0DB
:101C3800ACF0A8C0ADF00001AA290001AE6F05D034
:101C48000001D890AD33AC33AB330001AE2FF8D7D9
:101C58000001AB510001AF6F0001A78FFF0E00011B
:101C6800A617FF0E0001A717000E0001A817000114
:101C7800A6510001B06F0001A7510001B16F00012A
:101C8800A8510001B26F0001B36B8E0E0001B45F62
:101C98000001B4AF1AD00001B451800A8F0FD8B038
:101CA8000AD0000E0001A66F000EA76F000EA86FE5
:101CB800000EA96F12000001D890B333B233B133CC
:101CC800B0330001B43FF7D71BD0170E0001B4653D
:101CD80012D0000E0001A66F000EA76F000EA86FAD
:101CE800000EA96F12000001D890B037B137B23793
:101CF800B3370001B4070001B4510001D8A4F3D7E9
:101D08000001AF510001D8B409D00001B31FB21FC0
:101D1800B11FB06D000EB123B223B323B0C0A6F03B
:101D2800B1C0A7F0B2C0A8F0B3C0A9F01200060075
:101D3800FACF36F0FBCF37F0E9CF38F0EACF39F0F9
:101D4800E1CF3AF0E2CF3BF0D9CF3CF0DACF3DF02B
:101D5800F3CF3EF0F4CF3FF0F6CF40F0F7CF41F0AD
:101D6800F8CF42F0F5CF43F0F29EF2BAF2A411D0C8
:101D7800260E4D184E10D8A409D086EC18F034EC75
:101D88001AF0000E4E6E000E4D6E02D04D4A4E2ACD
:101D9800F2949DB09EA04CD0C9EC1BF04950091894
:101DA8000AE14A500A18D8A406D08282000E4A6E68
:101DB800000E496E03D08292494A4A2A9E90000E2C
:101DC800446E200E456E410E466E000E1B6E000ED0
:101DD8001C6E410E1D6E000E0C6EFA0E0D6E440E3A
:101DE8000E6E44C009F045C00AF046C00BF093ECF3
:101DF80013F009C018F00AC019F00BC01AF086ECED
:101E080014F018C027F019C028F01AC029F019ECEE
:101E180013F0271E281E274A282AFF0E2724476E5C
:101E2800FF0E2820486E4850CF6E47C0CEFFCD80A9
:101E3800F28E43C0F5FF42C0F8FF41C0F7FF40C033
:101E4800F6FF3FC0F4FF3EC0F3FF3DC0DAFF3CC0E1
:101E5800D9FF3BC0E2FF3AC0E1FF39C0EAFF38C012
:101E6800E9FF37C0FBFF36C0FAFF51921100B8EC0A
:101E78001BF025EC1BF00001DA6F560EF66EFE0E15
:101E8800F76E000EF86E0900F5CFD8F00900F5CF0F
:101E9800D9F0310E0001D825F66EFE0ED921F76E65
:101EA800F86A000EF8220800F5500001DA19D8A4E3
:101EB80003D0C5EC19F0DDD7580EF66EFE0EF76E9E
:101EC800000EF86E0900F5CFD8F00900F5CFD9F06B
:101ED800310E0001D825F66EFE0ED921F76EF86A8C
:101EE800000EF8220800F5500001DA19D8A415D020
:101EF800EF0E0001806F000E0001816F000E0001DF
:101F0800836F000E826F000E0001856F030E846FD1
:101F1800B7EC1AF05BEC16F0ACD75A0EF66EFE0E64
:101F2800F76E000EF86E0900F5CFD8F00900F5CF6E
:101F3800D9F0310E0001D825F66EFE0ED921F76EC4
:101F4800F86A000EF8220800F5500001DA19D8A442
:101F580015D0EF0E0001806F000E0001816F000E9A
:101F68000001836F000E826F000E0001856F030E63
:101F7800846F99EC1AF05BEC16F07BD7310EF66E95
:101F8800FE0EF76E000EF86E0800F5500001DA1923
:101F9800D8A46FD7000E0001816F010E806FA9ECE5
:101FA80016F067D7000E00018F6F000E8E6F0001CC
:101FB8008FBF08D000018F5143E1060E00018E5DEE
:101FC800D8B03ED08EC080F08FC081F0000E0001E6
:101FD800836F0C0E826FD5EC1AF080C08AF081C036
:101FE8008BF088C080F089C081F0000E0001836FFB
:101FF800C80E826FD5EC1AF00001805100018A25C5
:102008000001866F0001815100018B210001876F5B
:10201800E9EC1BF000018C6F8D6BD89000018E35B8
:10202800D96E00018F35DA6EF10ED926000EDA224C
:102038008CC0DEFF8DC0DDFF00018E4B8F2BB7D724
:10204800000E00018F6F000E8E6F00018FBF08D049
:1020580000018F5140E1070E00018E5DD8B01200DB
:10206800DB0E00018E25D96E000E00018F21DA6E7D
:10207800060E00018E250001806F000E00018F21E1
:102088000001816F000E0001836F0C0E826FD5EC8A
:102098001AF080C08AF081C08BF088C080F089C0B7
:1020A80081F0000E0001836FC80E826FD5EC1AF024
:1020B8000001805100018A250001866F00018151CD
:1020C80000018B210001876FE9EC1BF0DF6E000136
:1020D8008E4B8F2BBAD71200000E0001B46F060E7C
:1020E800B36FB3C0ACF0B4C0ADF0F4EC0BF025ECBA
:1020F8001BF00001B26F540EF66EFE0EF76E000E66
:10210800F86E0900F5CFB0F00900F5CFB1F0310E47
:102118000001B025F66EFE0EB121F76EF86A000ECA
:10212800F8220800F5500001B219D8B41200580E70
:10213800F66EFE0EF76E000EF86E0900F5CFB0F0E1
:102148000900F5CFB1F0310E0001B025F66EFE0E94
:10215800B121F76EF86A000EF8220800F550000168
:10216800B219D8A419D0B30E0001806F000E000177
:10217800816F000E0001836F000E826F000E000158
:10218800856F060E846FB7EC1AF0B3C0ACF0B4C01C
:10219800ADF0F4EC0BF0ABD75A0EF66EFE0EF76E00
:1021A800000EF86E0900F5CFB0F00900F5CFB1F0D8
:1021B800310E0001B025F66EFE0EB121F76EF86AF9
:1021C800000EF8220800F5500001B219D8A48FD7E4
:1021D800B30E0001806F000E0001816F000E000138
:1021E800836F000E826F000E0001856F060E846FEC
:1021F80099EC1AF0B3C0ACF0B4C0ADF0F4EC0BF04D
:1022080076D7000E0001AD6F000EAC6FB00E000166
:102218009E6F000E00019F6F710E0001A06FFF0EF0
:102228000001A16FE2C0A2F00001A36B73EC19F0EA
:10223800B00E0001866F000E0001876F0DEC14F0E0
:10224800000186510001AC27000187510001AD2330
:10225800B00E00019E6F000E00019F6F710E00010D
:10226800A06FFF0E0001A16FE3C0A2F00001A36BF5
:1022780073EC19F0B00E0001866F000E0001876F35
:102288000DEC14F086C0AEF087C0AFF0AEC080F0A1
:10229800AFC081F0000E0001836F3C0E826FD5EC59
:1022A8001AF0000180510001AC27000181510001A2
:1022B800AD23B00E00019E6F000E00019F6F710EDE
:1022C8000001A06FFF0E0001A16FE4C0A2F00001A1
:1022D800A36B73EC19F0B00E0001866F000E0001BD
:1022E800876F0DEC14F086C0AEF087C0AFF0AEC0BB
:1022F80080F0AFC081F00E0E0001836F100E826F68
:10230800D5EC1AF0000180510001AC270001815181
:102318000001AD23ACC0AAF0ADC0ABF012000001C3
:1023280083510001D8B408D0000180510001811107
:1023380000018211D8A411D0000E0001806F000E98
:102348000001816F000E0001826F12000001832BD3
:102358000001D890823381338033000E000180154C
:102368000001856F000E000181150001866FFE0EC9
:10237800000182150001876F000185510001861157
:1023880000018711D8B411D0E1D70001832B010EC9
:1023980000018027000E00018123000E0001822326
:1023A8000001D890823381338033000E00018015FC
:1023B8000001856F000E000181150001866FFF0E78
:1023C800000182150001876F000185510001861107
:1023D80000018711D8B408D0D8D7000183070001BD
:1023E800D890803781378237000181BF04D0020E30
:1023F80000018361F2D7000183B102D00001819FFF
:102408000001D89083330001835100018213000139
:1024180084510001D8B402D00001828F80C080F0BE
:1024280081C081F082C082F0120057EC1CF0000ECF
:102438000001826F520E816F41EC1CF0000E00010A
:10244800826F800E816F41EC1CF0000E0001826FDC
:10245800030E816F41EC1CF053EC1CF057EC1CF0A0
:10246800000E0001826F520E816F41EC1CF0000ECD
:102478000001826FB40E816F41EC1CF057EC1CF028
:10248800000E0001826F530E816F41EC1CF0010EAB
:102498003FEC1BF00001A16F010E3FEC1BF00001A7
:1024A800A06F010E3FEC1BF000019B6F010E3FEC8B
:1024B8001BF000019A6F010E3FEC1BF000019D6FAD
:1024C800010E3FEC1BF000019C6F010E3FEC1BF06E
:1024D80000019F6F000E3FEC1BF000019E6F53EC54
:1024E8001CF09BC0A2F09DC0A3F09FC0A4F0A1C0A7
:1024F800A5F0A2C092F00001936BA3C094F0000174
:10250800956BA4C096F00001976BA5C098F00001E8
:10251800996B90C080F091C081F0A20E0001826F8B
:10252800000E0001836FB8EC0AF080C08EF081C005
:102538008FF01200F00ED36E9B8C92689368180E81
:10254800946E010E956E000E966E000E896E000E4A
:102558008A6E000E8B6E000E8C6E000E8D6E000E55
:10256800C26EC168F19E000EB56EB496C08ED5805D
:10257800D582D584D596D59AD58C800ECD6ECD8A48
:10258800CD88CD96CD84CD92000E0001B56F200E7A
:102598000001B66F410E0001B76F000E00019A6F7F
:1025A800000E00019B6F410E00019C6F000E0001A0
:1025B8008B6FFA0E00018C6F440E00018D6FB5C051
:1025C80088F0B6C089F0B7C08AF0A4EC0CF088C0D7
:1025D80097F089C098F08AC099F053EC0DF097C035
:1025E800A6F098C0A7F099C0A8F0F9EC0DF000018A
:1025F800A61F0001A71F0001A64BA72BFF0E000175
:10260800A6250001B86FFF0E0001A7210001B96FD0
:102618000001B951CF6EB8C0CEFFF28AF284D58ED0
:102628009D909E80CD80F28C120029C02BF02C6AE0
:102638002D6A28342B3601E32C802B50356E35500B
:10264800D8A409D0000E276E000E286E000E296E41
:10265800000E2A6E1200170E2B6E27C02CF028C011
:102668002DF029C02EF02B282F6E04D0D8902E32B2
:102678002D322C322F2EFAD72C50306E288EFF0E8A
:102688002716FF0E2816000E29162750316E2850DF
:10269800326E2950336E346A8E0E355E35AE16D0E2
:1026A8003550800A8F0FD8B009D0000E276E000E63
:1026B800286E000E296E000E2A6E1200D890343251
:1026C800333232323132353EF9D715D0170E3564F0
:1026D8000FD0000E276E000E286E000E296E000E19
:1026E8002A6E1200D89031363236333634363506F3
:1026F8003550D8A4F7D73050D8B408D0341E331E7C
:10270800321E316C000E32223322342231C027F0BF
:1027180032C028F033C029F034C02AF012000BC0B0
:102728000FF0106A116A0A340F3601E310800F5057
:10273800126E1250D8A407D0000E096E000E0A6E51
:10274800000E0B6E12000EC00FF0106A116A0D34E5
:102758000F3601E310800F50176E1750D8A407D01A
:10276800000E096E000E0A6E000E0B6E1200175056
:102778007B0F12260BC017F00E50171A800E171673
:102788000A8E0D8EFF0E0C16FF0E0D16000E0E167D
:10279800000E136E000E146E000E156E070E166EE8
:1027A80009A006D00C5013260D5014220E501522E5
:1027B800D8900B320A320932D8900C360D360E36C4
:1027C800162EEED7090E166E09A006D00C50132649
:1027D8000D5014220E501522D8900B320A320932AD
:1027E800D890153214321332162EEED713C001F0DA
:1027F80014C002F015C003F012C004F017C005F0B1
:10280800B2EC15F001C009F002C00AF003C00BF0E9
:10281800120003D00001864B872B86C0D9FF87C0E2
:10282800DAFF200EDE18D8B4F5D786C0D9FF87C0E6
:10283800DAFF090EDE18D8B4EDD7000E00018C6F50
:10284800000E8B6F000E00018A6F86C0D9FF87C00B
:10285800DAFF2D0EDE18D8A403D000018A2B2ED063
:1028680086C0D9FF87C0DAFF2B0EDE18D8A429D07E
:1028780025D08BC080F08CC081F0000E0001836FE2
:102888000A0E826FD5EC1AF086C0D9FF87C0DAFF2E
:10289800DF500001886F896B000180510001882793
:1028A8000001815100018923D00E00018825000113
:1028B8008B6FFF0E0001892100018C6F0001864B90
:1028C800872B86C0D9FF87C0DAFFDF5056EC1BF094
:1028D800D8B0CFD700018A510001D8B40ED08BC030
:1028E80088F08CC089F00001881F891F884B892BCC
:1028F80088C086F089C087F012008BC086F08CC033
:1029080087F012001AC01EF01F6A206A19341E369A
:1029180001E31F801E50256E2550D8A407D0000E55
:10292800186E000E196E000E1A6E12001DC01EF0F1
:102938001F6A206A1C341E3601E31F801E50266E53
:102948002650D8A407D0000E186E000E196E000E7F
:102958001A6E1200000E226E000E236E000E246EF8
:102968002650890F255E1AC026F01D50261A800EA3
:102978002616198EFF0E1816FF0E1916000E1A16B7
:102988001C8EFF0E1B16FF0E1C16000E1D16180EB1
:10299800216ED8902236233624361B50185C1C50E2
:1029A80019581D501A58D8A007D01B50185E1C5033
:1029B800195A1D501A5A2280D890183619361A36C4
:1029C800212EE7D722C001F023C002F024C003F073
:1029D80025C004F026C005F0B2EC15F001C018F0CF
:1029E80002C019F003C01AF01200000E0001886F2F
:1029F800000E896F000E8A6F000E8B6F00018451E4
:102A0800000185110001861100018711D8B442D058
:102A1800010E00018C6F08D00001D89084378537EB
:102A28008637873700018C2B000187AFF5D7000167
:102A3800D890883789378A378B370001845100014D
:102A4800805D000185510001815900018651000116
:102A580082590001875100018359D8A012D0000182
:102A680084510001805F000185510001815B0001F4
:102A780086510001825B000187510001835B0001E0
:102A880088810001D89087338633853384330001E9
:102A98008C2FCDD788C080F089C081F08AC082F0A1
:102AA8008BC083F01200000E0001B16F000EB06FF2
:102AB8000001B1BF08D00001B15113E1040E0001BB
:102AC800B05DD8B00ED0A80E0001B025D96E000EAA
:102AD8000001B121DA6E000EDF6E0001B04BB12BA0
:102AE800E7D7000E0001846F020E836F32EC17F0F7
:102AF800A80E00018E6F000E00018F6F000E0001FE
:102B0800916F020E906F19EC12F08EC0ACF08FC06E
:102B1800ADF0000E0001846F010E836F32EC17F0E8
:102B2800A80E00018E6F000E00018F6F000E0001CD
:102B3800916F010E906F19EC12F08EC0AEF08FC03D
:102B4800AFF00001AE510001AC110001A66F000109
:102B5800AF510001AD110001A76F12000450D8B4A5
:102B680005D0015002100310D8A40CD0000E016E3D
:102B7800000E026E000E036E1200042AD890033273
:102B880002320132000E0114066E000E0214076EA6
:102B9800FE0E0314086E065007100810D8B40CD0A7
:102BA800ECD7042A010E0126000E0222000E032291
:102BB800D890033202320132000E0114066E000E64
:102BC8000214076EFF0E0314086E06500710081053
:102BD800D8B406D0E6D70406D890013602360336B4
:102BE80002BE03D0020E0460F6D704A0029ED8905D
:102BF8000432045003120550D8A4038E01C001F01A
:102C080002C002F003C003F012000BEC1BF02CD042
:102C18000BEC1BF0E20E00019E6FFF0E00019F6F90
:102C2800ECEC19F038D00BEC1BF0F70E00019E6F9E
:102C3800FE0E00019F6FECEC19F02DD00BEC1BF091
:102C4800070E00019E6FFF0E00019F6FECEC19F05C
:102C580022D00BEC1BF0170E00019E6FFF0E000137
:102C68009F6FECEC19F017D0ACC0AEF0ADC0AFF070
:102C78000001AF51000AD8A40ED00001AE51000ADD
:102C8800D8B4C6D7010AD8B4CED7030AD8B4D6D791
:102C9800010AD8B4DED7C00E27EC1CF0C40E000120
:102CA8009E6FFE0E00019F6FECEC19F012000BEC0A
:102CB8001BF026D00BEC1BF0920E00019E6FFF0E4E
:102CC80000019F6FECEC19F032D0AFEC17F01BEC61
:102CD80019F02DD00BEC1BF0840E00019E6FFF0E37
:102CE80000019F6FECEC19F022D00BEC1BF0B30E37
:102CF80000019E6FFE0E00019F6FECEC19F017D0DB
:102D0800EFC0AEF0F0C0AFF00001AF51000AD8A498
:102D18000ED00001AE51000AD8B4CCD7010AD8B4FD
:102D2800D4D7030AD8B4D6D7010AD8B4DED7C00E90
:102D380027EC1CF0D50E00019E6FFE0E00019F6F60
:102D4800ECEC19F014EC1CF0120031D08382060E62
:102D58000001826FB50EE82EFED7822FFCD700D077
:102D680083922F0E0001826F3A0EE82EFED7822F33
:102D7800FCD700F080A015D01AD08382060E00017F
:102D8800826FB50EE82EFED7822FFCD700D0839233
:102D98002F0E0001826F3A0EE82EFED7822FFCD745
:102DA80000F080A0EAD700018007D8A081070001C1
:102DB800805100018111D8A4C9D7040E0001836F86
:102DC8000C0E0001826F330EE82EFED7822FFCD73F
:102DD800832FFAD700D01200000E066E04AE06D07C
:102DE800036C041ED8B0042A010E066E02AE06D08B
:102DF800016C021ED8B0022A010E061A000E086ED7
:102E0800000E076E03500410D8B41CD0010E056ED6
:102E180004D0D89003360436052A04AEFAD7D890E1
:102E2800073608360350015C04500258D8A005D074
:102E38000350015E0450025A0780D89004320332CE
:102E4800052EEDD70650D8B404D0076C081ED8B0AC
:102E5800082A07C001F008C002F01200000183052B
:102E680000018411D8A41AD057EC1CF0000E000100
:102E7800826FE00E816F41EC1CF0000E0001826F42
:102E8800800E816F41EC1CF0000E0001826F800EF5
:102E9800816F41EC1CF053EC1CF01200020E000193
:102EA800831900018411D8A4120057EC1CF0000EFD
:102EB8000001826FE00E816F41EC1CF0000E0001F2
:102EC800826F800E816F41EC1CF0000E0001826F52
:102ED800040E816F41EC1CF053EC1CF01200000E44
:102EE8000001856F000E846F00018251000183117B
:102EF800D8B42CD0010E0001866F06D00001D890FE
:102F0800823783370001862B000183AFF7D7000192
:102F1800D89084378537000182510001805D000117
:102F2800835100018159D8A00AD0000182510001C3
:102F3800805F000183510001815B000184810001F1
:102F4800D890833382330001862FE1D784C080F084
:102F580085C081F0120057EC1CF0000E0001826F52
:102F6800D00E816F41EC1CF0000E0001826F000E44
:102F7800816F41EC1CF053EC1CF057EC1CF0000E78
:102F88000001826FD10E816F41EC1CF0000E000130
:102F9800836F050E0001836501D010D000018351B5
:102FA800010DE20EF324D96E000EF420DA6E010E44
:102FB8003FEC1BF0DF6E0001832BEBD7000E3FECDC
:102FC8001BF00001E86F53EC1CF01200000E00012A
:102FD800836F000E826F000183511DE1140E000102
:102FE800825DD8B018D08284080E0001806F440E2C
:102FF800E82EFED7802FFCD700F082942D0E00011A
:10300800806FAB0EE82EFED7802FFCD700D00001D2
:10301800824B832BE0D7060E0001816F130E00014F
:10302800806FAD0EE82EFED7802FFCD7812FFAD700
:1030380000D01200000E0001836F000E826F0001A5
:1030480083511DE1140E0001825DD8B018D082842E
:10305800050E0001806FAB0EE82EFED7802FFCD73F
:1030680000D08294300E0001806F440EE82EFED707
:10307800802FFCD700F00001824B832BE0D7060E8F
:103088000001816F130E0001806FAD0EE82EFED790
:10309800802FFCD7812FFAD700D012000001816F52
:1030A80000018151F00B0001806F8C500F0B8C6E6A
:1030B800000180518C108C6E8C96100EE82EFED775
:1030C80000D08C86100EE82EFED700D00001813982
:1030D800F00B0001816F00018151F00B0001806F3E
:1030E8008C500F0B8C6E000180518C108C6E8C965E
:1030F800100EE82EFED700D08C86100EE82EFED7D4
:1031080000D012005FEC1CF0000E036ED00E026EB1
:1031180046EC1CF0000E036E000E026E46EC1CF02E
:103128005BEC1CF05FEC1CF0000E036ED10E026E1F
:1031380046EC1CF0000E046E050E046401D00ED09F
:103148000450010DE20EF324D96E000EF420DA6E5D
:10315800010E92EC1BF0DF6E042AEED7000E92EC03
:103168001BF00001E86F5BEC1CF0120000018951B4
:1031780000018A11D8B426D0010E00018B6F06D049
:103188000001D89089378A3700018B2B00018AAF5C
:10319800F7D7000189510001875D00018A510001BC
:1031A8008859D8A008D0000189510001875F000123
:1031B8008A510001885B0001D8908A338933000165
:1031C8008B2FE7D787C087F088C088F01200000EE1
:1031D800C76E280EC66E000EC56E000E0001806F09
:1031E800120E816F7A0E826F000E836F8DC091F080
:1031F8008EC092F08FC093F090C094F0020ED890D9
:1032080000019137923793379437E82EF8D791C059
:1032180084F092C085F093C086F094C087F0F9ECF2
:1032280014F000018005C86E948694881200800E00
:1032380027EC1CF0C90E00019E6FFF0E00019F6F66
:10324800E7C0A0F00001A16BE6C0A2F00001A36BEB
:10325800ECEC19F0670E00019E6FFF0E00019F6FE6
:10326800010E0001E4250001A06F0001A16B000E12
:10327800A123E3C0A2F00001A36BE2C0A4F0000107
:10328800A56BECEC19F01200026E0250F00B016E07
:103298008C500F0B8C6E01508C108C6E8C96100E0F
:1032A800E82EFED700D08C86100EE82EFED700D070
:1032B8000238F00B026E0250F00B016E8C500F0BAF
:1032C8008C6E01508C108C6E8C96100EE82EFED7EA
:1032D80000D08C86100EE82EFED700D012009EC0BB
:1032E800A6F09FC0A7F0000E0001A86F000E000115
:1032F800A96FA20E0001A46F000E0001A56FA60E13
:1033080000018C6F000E00018D6FA0C08EF0A1C06F
:103318008FF0A40E0001906F000E0001916F09EC70
:1033280000F0A6C0D9FFA7C0DAFF000EDF6E1200BA
:10333800000E066E000E056E03500410D8B41CD0A3
:10334800010E076E04D0D89003360436072A04AE5F
:10335800FAD7D890053606360350015C0450025857
:10336800D8A005D00350015E0450025A0580D890B9
:1033780004320332072EEDD705C001F006C002F073
:1033880012000CD01AEC06F020D07FEC1BF01DD0F8
:10339800F7EC07F01AD070EC10F017D0EFC0D6F0A9
:1033A800F0C0D7F00001D751000AD8A40ED0000110
:1033B800D651000AD8B4E6D7010AD8B4E6D7030A2A
:1033C800D8B4E6D7010AD8B4E6D75BEC16F01200F9
:1033D800000E0001A86F000E0001A96FEA0E00019F
:1033E800AA6F370E0001AB6FA00E0001A66F000E8A
:1033F8000001A76FA80E00018C6F000E00018D6FF1
:103408009EC08EF09FC08FF0A60E0001906F000E38
:103418000001916F09EC00F01200270E0001836F84
:10342800F50EE82EFED7832FFCD7330E27EC1CF0C1
:10343800320E27EC1CF0280E27EC1CF00F0E27ECA0
:103448001CF0060E27EC1CF0010E27EC1CF0270ED2
:103458000001836FF50EE82EFED7832FFCD71200EC
:10346800800E3BEC1CF0C90E1F6EFF0E206EE7C0ED
:1034780021F0226AE6C023F0246AF0EC1AF0670E05
:103488001F6EFF0E206E010E0001E425216E226AD8
:10349800000E2222E3C023F0246AE2C025F0266A47
:1034A800F0EC1AF012005E0EF66E380EF76E000E93
:1034B800F86E00EEF1F010EE0CF00900F5CFEEFF1B
:1034C800E550E150FAE100EEDBF0160EEE6AE80690
:1034D800FDE100EE49F0080EEE6AE806FDE15190C4
:1034E800519200013BEF0FF00A500B10D8B418D0DE
:1034F800010E0C6E04D0D8900A360B360C2A0BAE8F
:10350800FAD70A50085C0B500958D8A004D00A50C2
:10351800085E0B50095AD8900B320A320C2EF1D79C
:1035280008C008F009C009F0120080C0D9FF81C0A6
:10353800DAFF00018451DE180EE100018551DE1822
:10354800D8A409D080C0D9FF81C0DAFF82C0DEFFCD
:1035580083C0DDFF120080C0D9FF81C0DAFFDE2AF8
:10356800000EDD22120080C0D9FF81C0DAFF000101
:103578008251DE180EE100018351DE18D8A409D06B
:1035880080C0D9FF81C0DAFF84C0DEFF85C0DDFFBF
:10359800120080C0D9FF81C0DAFFDE06000EDD5AB6
:1035A80012000001805100018203F3CF84F0F4CFB0
:1035B80085F00001805100018303F3500001852745
:1035C8000001815100018203F3500001852784C066
:1035D80080F085C081F01200000E296E000E2A6E60
:1035E8006A0E2B6E380E2C6E210E276E000E286E7A
:1035F800290E0D6E000E0E6E1FC00FF020C010F0C9
:10360800270E116E000E126E43EC03F01200800EAE
:1036180027EC1CF0910E00019E6FFE0E00019F6FBB
:10362800ECEC19F0C00E27EC1CF0910E00019E6F17
:10363800FE0E00019F6FECEC19F0800E27EC1CF0D9
:10364800120081A2FED781380F0B0F0B0001806F8B
:1036580081B2FED700F000F000018051010D310E5B
:10366800F324F66EFE0EF420F76EF86A000EF822C8
:103678000800F55012000001816F0AEC1CF0C586A5
:103688000AEC1CF0C9CF82F00AEC1CF00001815151
:103698000001D8A402D0C58A01D0C59AC588000106
:1036A800825112000001826F000E0001816F3A0EF4
:1036B8000001826107D02F0E0001826503D0010E40
:1036C8000001816F81C080F000018031120000018B
:1036D8008751AA6E86C0A9FF88C0A8FFA69EA69C8F
:1036E800A684550EA76EAA0EA76EA682A1A8FED71D
:1036F800A198A6941200EAEC17F00B0E0001856F52
:10370800260E0001846F5D0EE82EFED7842FFCD7AD
:10371800852FFAD700D01EEC18F01200026E1EECAE
:103728001CF0C5861EEC1CF0C9CF03F01EEC1CF083
:103738000250D8A402D0C58A01D0C59AC5880350C2
:10374800120001500302F3CF05F0F4CF06F0015048
:103758000402F350062602500302F350062605C061
:1037680001F006C002F012009EEC12F0100E0001EB
:103778008D6F270E8E6F000E8F6F000E906FEBEC23
:1037880018F0F29E00EC1CF01200F3C001F0F4C037
:1037980002F0000E046E020E036EF0EC16F0050E39
:1037A8000124096E000E02200A6E1200036E000E3C
:1037B800026E3A0E036005D02F0E036402D0010E8C
:1037C800026E02C001F00130120000018751AA6E9A
:1037D80086C0A9FFA69EA69CA680A6B0FED7A85024
:1037E800120051B235EF1CF00001826F8C84000189
:1037F800825152EC18F0120011EC1AF0000E000180
:10380800AD6F000EAC6F5BEC16F01200C7B4FED7BC
:10381800C5CF80F01F0E00018017D8B41200F6D76C
:103828000001EF050001F011D8A402D0F28E1200B9
:10383800F29E1200C7B4FED7C5CF01F01F0E0116C5
:10384800D8B41200F7D70001826F8C94000182511E
:1038580052EC18F0120028000A00020003000300CE
:103868000200036E8C84035048EC19F01200036EBA
:103878008C94035048EC19F012000AEC1CF081C03B
:10388800C9FF12001EEC1CF002C0C9FF1200F29E14
:10389800F28A9D901200F29A9D80F28E12000AEC34
:1038A8001CF0C58412000AEC1CF0C58012001EEC46
:0E38B8001CF0C58412001EEC1CF0C58012002E
:10FE3000003132334134353642373839432A3023A2
:10FE4000440001000A006400E803102701001000CC
:10FE5000000100100000030004000600434F4D5055
:10FE60004C455445442121212020202020003C34B1
:10FE700020204261636B3A2020312020363E200052
:10FE80003031323334353637383961626364656610
:10FE90000020202020202020202020202020202082
:10FEA00020004120746F206261636B20202020209D
:10FEB000202000416363657373204C61737420528A
:10FEC000756E20003C3420204E61763A20412F315F
:10FED0002020363E003C34202053746172743A2056
:10FEE000412020363E0045736B6120772F6F204301
:10FEF00061703A20256900202020506173742052DF
:10FF0000756E203220200020202050617374205212
:10FF1000756E203320200020202050617374205201
:10FF2000756E20342020002E2E2E4F706572617465
:10FF3000696E672E2E2E0045736B6120772F20434C
:10FF400061703A20256900596F7020772F6F204328
:10FF500061703A2025690054696D652074616B6594
:10FF60006E3A2025697300253032783A2530327890
:10FF70003A25303278003F3F3F20494E53494445AF
:10FF80002020200041636365737320454550524F24
:10FF90004D00426567696E20536F7274696E670029
:10FFA000596F7020772F4361703A20256900232014
:10FFB000426F74746C65733A2025690020772F6F47
:10FFC000204361702020202000253032782F2530FA
:10FFD00032782020200020772F20436170202020BD
:10FFE0002000526563656E742052756E00617979E8
:0FFFF0006C6D616F0045534B4100594F5000003D
:020000040020DA
:08000000FFFFFFFFFFFFFFFF00
:020000040030CA
:0E000000FF021F1EFF8381FF0FC00FE00F40A5
:00000001FF
