:0400000007EF73F0A3
:10E4440041EC72F0C580120041EC72F0C5841200F8
:10E4540041EC72F002C0C9FF1200036E8C940350A9
:10E46400F2EC73F01200036E8C840350F2EC73F040
:10E47400120028000A000200030003000200C7B4CF
:10E48400FED7C5CF01F01F0E0116D8B41200F7D77E
:10E494007DEC73F0000E2E6E000E2D6E4EEC76F0B9
:10E4A40012000850AA6E07C0A9FFA69EA69CA680CB
:10E4B400A6B0FED7A8501200036E000E026E3A0EEC
:10E4C400036005D02F0E036402D0010E026E02C059
:10E4D40001F001301200DCEC72F0100E0E6E270E0B
:10E4E4000F6E000E106E000E116E1DEC74F0F29E95
:10E4F4004AEC72F0120001500302F3CF05F0F4CF9E
:10E5040006F001500402F350062602500302F350B1
:10E51400062605C001F006C002F01200026E41ECAE
:10E5240072F0C58641EC72F0C9CF03F041EC72F091
:10E534000250D8A402D0C58A01D0C59AC588035018
:10E54400120068506910D8A405D0000E696E030E3D
:10E55400686E03D06806D8A0690668C02DF069C04B
:10E564002EF04EEC76F01200030E68186910D8A451
:10E5740005D0000E696E000E686E02D0684A692AE2
:10E5840068C02DF069C02EF04EEC76F012000850F1
:10E59400AA6E07C0A9FF09C0A8FFA69EA69CA684D0
:10E5A400550EA76EAA0EA76EA682A1A8FED7A198A3
:10E5B400A694120092689368000E946E000E956EF5
:10E5C400000E966E000E8A6E000E8B6E000E8C6E20
:10E5D400000E8D6E000EC26EC168F19E1200800E98
:10E5E4002FEC72F0890E1F6EFE0E206E20EC73F07D
:10E5F400C00E2FEC72F0890E1F6EFE0E206E20EC02
:10E6040073F0800E2FEC72F01200760EF66EE40EAC
:10E61400F76E000EF86E00EE6AF010EE0CF00900D2
:10E62400F5CFEEFFE550E150FAE100EE5AF0100E9E
:10E63400EE6AE806FDE10001F2EF75F0000E296EC6
:10E64400000E2A6E6A0E2B6EE40E2C6E210E276EBF
:10E65400000E286E290E0D6E000E0E6E1FC00FF0F8
:10E6640020C010F0270E116E000E126E3DEC7CF0EF
:10E6740012000A500B10D8B418D0010E0C6E04D03E
:10E68400D8900A360B360C2A0BAEFAD70A50085C1F
:10E694000B500958D8A004D00A50085E0B50095AF0
:10E6A400D8900B320A320C2EF1D708C008F009C0FA
:10E6B40009F012001FC027F020C028F0000E296EB8
:10E6C400000E2A6E230E256E000E266E270E0D6E8A
:10E6D400000E0E6E21C00FF022C010F0250E116E38
:10E6E400000E126E3DEC7CF027C0D9FF28C0DAFF83
:10E6F400000EDF6E1200270E046EF50EE82EFED714
:10E70400042EFCD700F0330E2FEC72F0320E2FECF7
:10E7140072F0280E2FEC72F00F0E2FEC72F0060E32
:10E724002FEC72F0010E2FEC72F0270E046EF50E32
:10E73400E82EFED7042EFCD700F01200000E066E61
:10E74400000E056E03500410D8B41CD0010E076EE1
:10E7540004D0D89003360436072A04AEFAD7D890EA
:10E76400053606360350015C04500258D8A005D083
:10E774000350015E0450025A0580D89004320332DB
:10E78400072EEDD705C001F006C002F012000CD030
:10E7940021EC7BF01ED09EEC75F01BD022EC7AF0BD
:10E7A40018D04DEC75F015D068C055F069C056F01E
:10E7B4005650000AD8A40DD05550000AD8B4E8D752
:10E7C400010AD8B4E8D7030AD8B4E8D7010AD8B400
:10E7D400E8D768C02DF069C02EF04EEC76F0120038
:10E7E400026E0250F00B016E8C500F0B8C6E0150B8
:10E7F4008C108C6E8C96100EE82EFED700D08C8672
:10E80400100EE82EFED700D00238F00B026E025034
:10E81400F00B016E8C500F0B8C6E01508C108C6EB3
:10E824008C96100EE82EFED700D08C86100EE82EA3
:10E83400FED700D01200000EC76E280EC66E000E62
:10E84400C56E000E016E120E026E7A0E036E000E7D
:10E85400046E0EC012F00FC013F010C014F011C0FB
:10E8640015F0020ED8901236133614361536E82EEB
:10E87400F9D712C005F013C006F014C007F015C094
:10E8840008F07DEC74F00104C86E9486948812003C
:10E8940022EC72F0000E036ED00E026E2AEC72F0BF
:10E8A400000E036E000E026E2AEC72F026EC72F07B
:10E8B40022EC72F0000E036ED10E026E2AEC72F09E
:10E8C400000E046E050E046401D00ED00450010D38
:10E8D400610EF324D96E000EF420DA6E010E90EC72
:10E8E40072F0DF6E042AEED7000E90EC72F0676EC1
:10E8F40026EC72F01200000E096E000E0A6E000E75
:10E904000B6E000E0C6E0550061007100810D8B4DC
:10E914002AD0010E0D6E06D0D8900536063607367D
:10E9240008360D2A08AEF8D7D89009360A360B36C1
:10E934000C360550015C0650025807500358085025
:10E944000458D8A009D00550015E0650025A075059
:10E95400035A0850045A0980D89008320732063204
:10E9640005320D2EE1D709C001F00AC002F00BC038
:10E9740003F00CC004F01200F1EC72F024D0F1ECBE
:10E9840072F0EB0E1F6EFF0E206E20EC73F030D091
:10E99400F1EC72F0000E1F6EFF0E206E20EC73F08F
:10E9A40027D0F1EC72F0100E1F6EFF0E206E20ECDB
:10E9B40073F01ED0F1EC72F0200E1F6EFF0E206E6D
:10E9C40020EC73F015D02DC02FF02EC030F0305055
:10E9D400000AD8A40DD02F50000AD8B4D0D7010A09
:10E9E400D8B4D6D7030AD8B4DCD7010AD8B4E2D74E
:10E9F400C00E2FEC72F0DE0E1F6EFE0E206E20ECA9
:10EA040073F0120030D068046910D8A42CD04AECFA
:10EA140074F0800E2FEC72F0D20E1F6EFF0E206E7B
:10EA240066C021F0226A65C023F0246A20EC73F0EA
:10EA3400700E1F6EFF0E206E63C021F0226A62C04A
:10EA440023F0246A61C025F0266A20EC73F0020EDC
:10EA54002E6E860E2D6E990EE82EFED72D2EFCD727
:10EA64002E2EFAD700F081A2CED781380F0B0F0BD0
:10EA74002F6E81B2FED700F000F02F50010D290E49
:10EA8400F324F66EFE0EF420F76EF86A000EF822F8
:10EA94000800F5501200000E336E060E326E32C0BE
:10EAA4002DF033C02EF0F3EC77F004EC75F0316EFA
:10EAB400380EF66EFE0EF76EF86A0800F55031183F
:10EAC400D8B412002D0EF66EFE0EF76EF86A08002A
:10EAD400F5503118D8A413D032503310D8A405D02F
:10EAE400000E336E060E326E03D03206D8A0330603
:10EAF40032C02DF033C02EF0F3EC77F0D6D72F0EC2
:10EB0400F66EFE0EF76EF86A0800F5503118D8A4B8
:10EB1400CCD7060E32183310D8A405D0000E336EAD
:10EB2400000E326E02D0324A332A32C02DF033C086
:10EB34002EF0F3EC77F0B9D7000E046E000E036EDE
:10EB4400045017E1320E035CD8B013D08282E40E75
:10EB540000D000D0E82EFCD700D000D08292320E34
:10EB6400016EDE0EE82EFED7012EFCD7034A042ADE
:10EB7400E7D7150E026E4B0E016EBE0EE82EFED7C1
:10EB8400012EFCD7022EFAD700D0000E046E000E20
:10EB9400036E045018E1320E035CD8B014D08282A4
:10EBA4000A0E016E580EE82EFED7012EFCD700D0B7
:10EBB40082922B0E016E980EE82EFED7012EFCD702
:10EBC400034A042AE6D7150E026E4B0E016EBE0EE2
:10EBD400E82EFED7012EFCD7022EFAD700D0120061
:10EBE4006DEC72F004EC75F0596E4E0EF66EFE0E7E
:10EBF400F76E000EF86E0900F5CF57F00900F5CF57
:10EC040058F0290E5724F66EFE0E5820F76EF86A57
:10EC1400000EF8220800F5505918D8A403D0C9EC06
:10EC240073F0E0D7500EF66EFE0EF76E000EF86E1F
:10EC34000900F5CF57F00900F5CF58F0290E5724F5
:10EC4400F66EFE0E5820F76EF86A000EF8220800E1
:10EC5400F5505918D8A403D0A3EC72F0C3D7520EC0
:10EC6400F66EFE0EF76E000EF86E0900F5CF57F043
:10EC74000900F5CF58F0290E5724F66EFE0E5820E1
:10EC8400F76EF86A000EF8220800F5505918D8A457
:10EC9400A9D7B6EC72F0A6D7F1EC72F03BD0F1EC48
:10ECA40072F09B0E1F6EFF0E206E20EC73F047D0A7
:10ECB4004AEC74F0F1EC72F0D20E1F6EFF0E206E6F
:10ECC40066C021F0226A65C023F0246A20EC73F048
:10ECD400700E1F6EFF0E206E63C021F0226A62C0A8
:10ECE40023F0246A61C025F0266A20EC73F027D053
:10ECF400F1EC72F08D0E1F6EFF0E206E20EC73F09F
:10ED04001ED0F1EC72F0BC0E1F6EFE0E206E20ECD5
:10ED140073F015D02DC02FF02EC030F03050000A03
:10ED2400D8A40DD02F50000AD8B4B9D7010AD8B44A
:10ED3400BFD7030AD8B4DCD7010AD8B4E2D7C00ECF
:10ED44002FEC72F0CD0E1F6EFE0E206E20EC73F0D1
:10ED5400120002D0074A082A07C0D9FF08C0DAFF08
:10ED6400200EDE18D8B4F6D707C0D9FF08C0DAFFE2
:10ED7400090EDE18D8B4EED7000E0D6E000E0C6E20
:10ED8400000E0B6E07C0D9FF08C0DAFF2D0EDE1887
:10ED9400D8A402D00B2A24D007C0D9FF08C0DAFFB8
:10EDA4002B0EDE18D8A41ED01BD00CC001F00DC051
:10EDB40002F0000E046E0A0E036E7DEC72F007C0C2
:10EDC400D9FF08C0DAFFDF50096E0A6A015009262C
:10EDD40002500A22D00E09240C6EFF0E0A200D6E7A
:10EDE400074A082A07C0D9FF08C0DAFFDF505EECE3
:10EDF40072F0D8B0DAD70B50D8B40DD00CC009F0EB
:10EE04000DC00AF0091E0A1E094A0A2A09C007F0A1
:10EE14000AC008F012000CC007F00DC008F0120080
:10EE2400000E2E6E000E2D6E310E1F6E000E206E23
:10EE34007A0E216EFF0E226E61C023F0246A5CEC10
:10EE440073F0310E076E000E086EABEC76F00750CF
:10EE54002D2608502E22310E1F6E000E206E7A0EC3
:10EE6400216EFF0E226E62C023F0246A5CEC73F004
:10EE7400310E076E000E086EABEC76F007C02FF073
:10EE840008C030F02FC001F030C002F0000E046E54
:10EE94003C0E036E7DEC72F001502D2602502E22A2
:10EEA400310E1F6E000E206E7A0E216EFF0E226E42
:10EEB40063C023F0246A5CEC73F0310E076E000E1D
:10EEC400086EABEC76F007C02FF008C030F02FC00E
:10EED40001F030C002F00E0E046E100E036E7DECD5
:10EEE40072F001502D2602502E222DC02BF02EC080
:10EEF4002CF01200000E106E000E0F6E10BE06D025
:10EF0400105036E1060E0F5CD8B032D00FC001F0BD
:10EF140010C002F0000E046E0C0E036E7DEC72F055
:10EF240001C00BF002C00CF009C001F00AC002F0ED
:10EF3400000E046EC80E036E7DEC72F001500B24BB
:10EF4400076E02500C20086E53EC72F00D6E0E6AC0
:10EF5400D8900F34D96E1034DA6E6A0ED926000EAA
:10EF6400DA220DC0DEFF0EC0DDFF0F4A102AC6D71D
:10EF7400000E106E000E0F6E10BE06D0105030E161
:10EF8400070E0F5CD8B012005A0E0F24D96E000E73
:10EF94001020DA6E060E0F24016E000E1020026E91
:10EFA400000E046E0C0E036E7DEC72F001C00BF0CB
:10EFB40002C00CF009C001F00AC002F0000E046E99
:10EFC400C80E036E7DEC72F001500B24076E0250E4
:10EFD4000C20086E53EC72F0DF6E0F4A102ACCD767
:10EFE4001200F1EC72F06CD0F1EC72F0600E1F6E56
:10EFF400FF0E206E6AC021F06BC022F020EC73F08B
:10F004007DD0F1EC72F0B70E1F6EFF0E206E6CC057
:10F0140021F06DC022F020EC73F070D0F1EC72F0AE
:10F02400A90E1F6EFF0E206E6EC021F06FC022F07D
:10F0340020EC73F063D0F1EC72F0500E1F6EFF0EF3
:10F04400206E70C021F071C022F020EC73F056D015
:10F05400F1EC72F0400E1F6EFF0E206E72C021F0B4
:10F0640073C022F020EC73F049D0F1EC72F0EF0E93
:10F074001F6EFE0E206E74C021F075C022F020ECCD
:10F0840073F03CD0F1EC72F0D20E1F6EFF0E206EC6
:10F094005FC021F0226A5EC023F0246A20EC73F082
:10F0A400700E1F6EFF0E206E5CC021F0226A5BC0E2
:10F0B40023F0246A5AC025F0266A20EC73F01ED08F
:10F0C4002DC02FF02EC030F03050000AD8A416D036
:10F0D4002F50000AD8B488D7010AD8B492D7030AAB
:10F0E400D8B49CD7010AD8B4A6D7070AD8B4B0D7E5
:10F0F400010AD8B4BAD7030AD8B4C4D7C00E2FECC7
:10F1040072F0660E1F6EFE0E206E20EC73F012007D
:10F1140001500210D8A421D0000E066E000E056E18
:10F12400065005E1320E055CD8B080D001D07ED007
:10F134008284E40E00D000D0E82EFCD700D000D0AA
:10F144008294320E036EDE0EE82EFED7032EFCD719
:10F15400054A062A06506AE1E5D701040210D8A43C
:10F164001ED0000E066E000E056E06505FE1320ED4
:10F17400055CD8B05BD08284040E036EE40EE82EE6
:10F18400FED7032EFCD700D08294310E036E0C0EF2
:10F19400E82EFED7032EFCD7054A062AE6D7020E30
:10F1A40001180210D8A41ED0000E066E000E056EC3
:10F1B40006503CE1320E055CD8B038D08284060E8D
:10F1C400036EB60EE82EFED7032EFCD782942F0EC4
:10F1D400036E3A0EE82EFED7032EFCD700D0054A64
:10F1E400062AE6D7030E01180210D8A41FD0000E79
:10F1F400066E000E056E065019E1320E055CD8B09D
:10F2040015D08284080E036E870EE82EFED7032ED7
:10F21400FCD700F082942D0E036E690EE82EFED703
:10F22400032EFCD700F0054A062AE5D7150E046E16
:10F234004B0E036EBE0EE82EFED7032EFCD7042E13
:10F24400FAD700D01200000E0E6E000E0D6E0EBE28
:10F2540006D00E5031E10D0E0D5CD8B02DD00DC08E
:10F2640001F00EC002F0000E046E0C0E036E7DEC75
:10F2740072F0900E0124076E010E0220086E53EC0A
:10F2840072F00A6E0A500B6E0C6A0DC001F00EC0CB
:10F2940002F0000E046E0C0E036E7DEC72F0580E3C
:10F2A4000124076E020E0220086E0BC009F0C9EC9F
:10F2B40072F00D4A0E2ACBD7000E0E6E000E0D6EA4
:10F2C4000EBE06D00E5031E10D0E0D5CD8B02DD01F
:10F2D4000DC001F00EC002F0000E046E0C0E036EA1
:10F2E4007DEC72F0C80E0124076E000E0220086E39
:10F2F40053EC72F00A6E0A500B6E0C6A0DC001F0EA
:10F304000EC002F0000E046E0C0E036E7DEC72F063
:10F31400900E0124076E010E0220086E0BC009F046
:10F32400C9EC72F00D4A0E2ACBD7000E0E6E000EF9
:10F334000D6E0EBE06D00E502FE10D0E0D5CD8B032
:10F344002BD00DC001F00EC002F0000E046E0C0EA6
:10F35400036E7DEC72F001C007F002C008F053ECBC
:10F3640072F00A6E0A500B6E0C6A0DC001F00EC0EA
:10F3740002F0000E046E0C0E036E7DEC72F0C80EEB
:10F384000124076E000E0220086E0BC009F0C9ECC0
:10F3940072F00D4A0E2ACDD7000E0E6E000E0D6EC1
:10F3A4000EBE06D00E5022E1060E0D5CD8B01ED063
:10F3B4000DC001F00EC002F0000E046E0C0E036EC0
:10F3C4007DEC72F001C007F002C008F0D8900D3453
:10F3D400D96E0E34DA6E6A0ED926000EDA22DF50A8
:10F3E400096EC9EC72F00D4A0E2ADAD7000E0E6EC1
:10F3F400000E0D6E0EBE06D00E5021E1070E0D5C00
:10F40400D8B01200060E0D24016E000E0E20026EFE
:10F41400000E046E0C0E036E7DEC72F001C007F05A
:10F4240002C008F05A0E0D24D96E000E0E20DA6EBA
:10F43400DF50096EC9EC72F00D4A0E2ADBD71200B8
:10F44400000E526E000E516E51C02DF052C02EF0BF
:10F45400BEEC74F004EC75F0506E2C0EF66EFE0EDD
:10F46400F76EF86A0800F5505018D8A4A4D0000E1E
:10F47400546E000E536E54BE06D054501DE1060E59
:10F48400535CD8B019D0D8905334D96E5434DA6E52
:10F494006A0ED926000EDA22D8905334E16E543421
:10F4A400E26E440EE126000EE222DECFE6FFDDCF5F
:10F4B400E5FF534A542ADFD7000E546E000E536EF4
:10F4C40054BE06D054501DE1070E535CD8B019D079
:10F4D4005A0E5324D96E000E5420DA6EDF50346E67
:10F4E400356AD8905334D96E5434DA6E360ED92630
:10F4F400000EDA2234C0DEFF35C0DDFF534A542A41
:10F50400DFD751C009F052C00AF07CEC77F04DEC23
:10F5140075F051C02DF052C02EF0BEEC74F0000E08
:10F52400546E000E536E54BE06D054501DE1060EA8
:10F53400535CD8B019D0D8905334D96E5434DA6EA1
:10F54400440ED926000EDA22D8905334E16E543496
:10F55400E26E6A0EE126000EE222DECFE6FFDDCF88
:10F56400E5FF534A542ADFD7000E546E000E536E43
:10F5740054BE08D0545005E1070E535CD8B06AD786
:10F5840001D068D7D8905334D96E5434DA6E360E1D
:10F59400D926000EDA225A0E5324E16E000E5420AE
:10F5A400E26EDFCFE7FF534A542A54BEEBD75450E0
:10F5B40001E1E2D74FD7380EF66EFE0EF76EF86A09
:10F5C4000800F5505018D8B412002D0EF66EFE0E39
:10F5D400F76EF86A0800F5505018D8A413D05150AB
:10F5E4005210D8A405D0000E526E030E516E03D0F3
:10F5F4005106D8A0520651C02DF052C02EF0BEECD8
:10F6040074F028D72F0EF66EFE0EF76EF86A080017
:10F61400F5505018D8A41ED7030E51185210D8A470
:10F6240005D0000E526E000E516E02D0514A522A7D
:10F6340051C02DF052C02EF0BEEC74F00BD7828076
:10F64400000E3B6E000E3A6E000E3D6E000E3C6ED8
:10F65400000E416E000E406E41BE06D0415014E1D2
:10F66400060E405CD8B010D0D8904034D96E4134E6
:10F67400DA6E6A0ED926000EDA22000EDE6E000E55
:10F68400DD6E404A412AE8D7F1EC72F0300E1F6E6D
:10F69400FF0E206E20EC73F04AEC74F012EC77F05D
:10F6A4002BC035F02CC036F089D0C00E2FEC72F090
:10F6B4007F0E1F6EFF0E206E20EC73F080B0FED71D
:10F6C40080A07CD0C00E2FEC72F0AB0E1F6EFE0E2D
:10F6D400206E20EC73F00B0E346E260E336E5E0E2D
:10F6E400E82EFED7332EFCD7342EFAD780B20DD0B5
:10F6F400C00E2FEC72F0FB0E1F6EFF0E206E20EC7E
:10F7040073F0000E3B6E000E0CD0C00E2FEC72F0A6
:10F71400F60E1F6EFF0E206E20EC73F0000E3B6E93
:10F72400010E3A6E80B480A601D00AD0DF0E1F6E9F
:10F73400FF0E206E20EC73F0000E3D6E000E09D01B
:10F74400C50E1F6EFF0E206E20EC73F0000E3D6E92
:10F75400010E3C6E6C4A6D2A3AC033F03BC034F063
:10F76400D890333634363C5033263D503422020E82
:10F7740033243E6E000E34203F6ED8903E34D96E52
:10F784003F34DA6E6A0ED926000EDA22DE2A000E23
:10F79400DD220B0E346E260E336E5E0EE82EFED77F
:10F7A400332EFCD7342EFAD7FE0E3E24016EFF0E04
:10F7B4003F20026E8AEC78F09EEC75F06DBE75D732
:10F7C4006D5004E10A0E6C5CD8A06FD78290F1EC06
:10F7D40072F0540E1F6EFE0E206E20EC73F0C00EFD
:10F7E4002FEC72F09A0E1F6EFE0E206E20EC73F05A
:10F7F4004AEC74F012EC77F02BC037F02CC038F0E0
:10F8040035C033F036C034F0331E341E334A342A44
:10F81400375033246A6E385034206B6E000E416EBC
:10F82400000E406E41BE06D0415015E1070E405C0B
:10F83400D8B011D0610E4024D96E000E4120DA6E8A
:10F844005A0E4024E16E000E4120E26EDFCFE7FF46
:10F85400404A412AE7D725EC79F004EC75F0396E7B
:10F864002C0EF66EFE0EF76EF86A0800F550391885
:10F87400D8B41200F2D7C4D2250E1E18D8B436D08C
:10F8840020EE02F00D50D9260E50DA22DE50DE10A2
:10F89400D8B416D020EE02F00D50D9260E50DA223C
:10F8A400DECF13F0DDCF14F001D8AAD20500FA6E32
:10F8B4001350FD6E1450FE6EFF6AFA501E50120073
:10F8C4000DC0D9FF0EC0DAFFDECF13F0DDCF14F088
:10F8D40013C0D9FF14C0DAFF1EC0DFFF0DC0D9FF6B
:10F8E4000EC0DAFFDE2A000EDD228AD2000E1D6E63
:10F8F400000E1C6E000E1B6E03D01B840F4A102AD0
:10F904000FC0F6FF10C0F7FFF86A0800F550300A80
:10F91400D8B4F3D70FC0F6FF10C0F7FFF86A080099
:10F92400F5505EEC72F0D8A037D0000E1D6E000EBC
:10F934001C6E1CC001F01DC002F0000E046E0A0E05
:10F94400036E7DEC72F001C01CF002C01DF0D00EFD
:10F95400136EFF0E146E0FC0F6FF10C0F7FFF86AA7
:10F964000800F550156E166A135015261450162209
:10F9740015501C2616501D220F4A102A0FC0F6FFE0
:10F9840010C0F7FFF86A0800F5505EEC72F0D8A0DA
:10F9940003D0CFD71B8E18D00FC0F6FF10C0F7FFCF
:10F9A4000F4A102AF86A0800F5CF1EF01E50000A0C
:10F9B400D8B433D2640AD8B407D00D0AD8B404D06A
:10F9C400110AD8B4E7D71CD21BBE1DD011C0D9FF71
:10F9D40012C0DAFFDFCF13F0020EDE26DFCF14F001
:10F9E400000EDD2213C0D9FF14C0DAFFDECF19F0F8
:10F9F400DDCF1AF01AAE52D0030E1B12196C1A1E68
:10FA0400D8B01A2A4BD011C0D9FF12C0DAFFDFCF09
:10FA140013F0020EDE26DFCF14F0000EDD2213C039
:10FA2400D9FF14C0DAFFDECF19F0DDCF1AF036D0DB
:10FA3400010E1E6E050E1E18D8B438D01E50020DCD
:10FA44003A0EF324F66EFE0EF420F76EF86A000EFA
:10FA5400F8220900F550195C0900F5501A58D8A08D
:10FA640025D01E2AE7D7010E1E6E040E1E18D8B428
:10FA74001DD01E50020D440EF324F66EFE0EF4202B
:10FA8400F76EF86A000EF8220900F550195C0900B7
:10FA9400F5501A58D8A00AD01E2AE7D71B50800B5D
:10FAA400000AD8B4C5D7800AD8B4DDD71C501D10BD
:10FAB400D8B409D01BC013F0030E1316D8B403D066
:10FAC4001C06D8A01D06800E1EBE7F0E136E1C5091
:10FAD4001E5C1D50800A1358D8B007D01E501C5EFF
:10FAE400000E1EBEFF0E1D5A04D0000E1D6E000E29
:10FAF4001C6E1BA478D01BC013F0030E1316D8B4CD
:10FB040035D020EE02F00D50D9260E50DA22DE5008
:10FB1400DE10D8B416D020EE02F00D50D9260E50C7
:10FB2400DA22DECF13F0DDCF14F001D81FD00500A8
:10FB3400FA6E1350FD6E1450FE6EFF6AFA502D0ECD
:10FB440012000DC0D9FF0EC0DAFFDECF13F0DDCFF7
:10FB540014F013C0D9FF14C0DAFF2D0EDF6E0DC0F0
:10FB6400D9FF0EC0DAFFDE2A000EDD221C501D1064
:10FB7400D8B4B4D020EE02F00D50D9260E50DA22BB
:10FB8400DE50DE10D8B416D020EE02F00D50D92687
:10FB94000E50DA22DECF13F0DDCF14F001D81FD0DF
:10FBA4000500FA6E1350FD6E1450FE6EFF6AFA5093
:10FBB400300E12000DC0D9FF0EC0DAFFDECF13F0F5
:10FBC400DDCF14F013C0D9FF14C0DAFF300EDF6E9E
:10FBD4000DC0D9FF0EC0DAFFDE2A000EDD221C069E
:10FBE400D8A01D06C3D71C501D10D8B43CD020EE9D
:10FBF40002F00D50D9260E50DA22DE50DE10D8B4B1
:10FC040016D020EE02F00D50D9260E50DA22DECFA7
:10FC140013F0DDCF14F001D81FD00500FA6E135095
:10FC2400FD6E1450FE6EFF6AFA50200E12000DC0D5
:10FC3400D9FF0EC0DAFFDECF13F0DDCF14F013C00E
:10FC4400D9FF14C0DAFF200EDF6E0DC0D9FF0EC03D
:10FC5400DAFFDE2A000EDD221C06D8A01D061C5089
:10FC64001D10D8A4C4D71BC013F0030E1316D8B4A8
:10FC740035D020EE02F00D50D9260E50DA22DE5097
:10FC8400DE10D8B416D020EE02F00D50D9260E5056
:10FC9400DA22DECF13F0DDCF14F001D81FD0050037
:10FCA400FA6E1350FD6E1450FE6EFF6AFA502D0E5C
:10FCB40012000DC0D9FF0EC0DAFFDECF13F0DDCF86
:10FCC40014F013C0D9FF14C0DAFF2D0EDF6E0DC07F
:10FCD400D9FF0EC0DAFFDE2A000EDD221EC018F0A6
:10FCE4008BD01850020D3A0EF324F66EFE0EF4205B
:10FCF400F76EF86A000EF8220900F5CF03F00A0047
:10FD0400F5CF04F019C001F01AC002F0A0EC73F0B2
:10FD140001C008F002C009F0000E0B6E0A0E0A6E54
:10FD24003BEC73F00850300F1E6E31D019C001F057
:10FD34001AC002F01850020D440EF324F66EFE0EA3
:10FD4400F420F76EF86A000EF8220900F5CF03F0EC
:10FD54000A00F5CF04F0A0EC73F001500F0B176EFE
:10FD64001750010D780EF324F66EFE0EF420F76E94
:10FD7400F86A000EF8220800F5CF1EF008D01B50D8
:10FD8400800B000AD8B4ADD7800AD8B4CFD720EE00
:10FD940002F00D50D9260E50DA22DE50DE10D8B40F
:10FDA40016D020EE02F00D50D9260E50DA22DECF06
:10FDB40013F0DDCF14F001D81FD00500FA6E1350F4
:10FDC400FD6E1450FE6EFF6AFA501E5012000DC0F4
:10FDD400D9FF0EC0DAFFDECF13F0DDCF14F013C06D
:10FDE400D9FF14C0DAFF1EC0DFFF0DC0D9FF0EC05B
:10FDF400DAFFDE2A000EDD2218061828D8A4BFD7A1
:10FE04000FC0F6FF10C0F7FF0F4A102AF86A080067
:10FE1400F5CF1EF01E50D8A42FD5000E0E6E000E86
:10FE24000D6E1200003132334134353642373839E1
:10FE3400432A3023440001000A006400E803102729
:10FE440001001000000100100F0003000400060070
:10FE5400434F4D504C45544544212121202020201E
:10FE640020003C3420204261636B3A20204420204F
:10FE7400363E20003031323334353637383961621A
:10FE8400636465660020202020202020202020207C
:10FE94002020202020004120746F206261636B20A9
:10FEA40020202020202000424F54544C4520494E0D
:10FEB4005349444520202000416363657373204CFB
:10FEC4006173742052756E20003C34202053746199
:10FED40072743A20412020363E003C3420204E618A
:10FEE400763A20412F442020363E0045736B612032
:10FEF400772F6F204361703A20256900202020501D
:10FF04006173742052756E2032202000202020500E
:10FF14006173742052756E203320200020202050FD
:10FF24006173742052756E20342020002E2E2E4FC3
:10FF34007065726174696E672E2E2E0045736B6155
:10FF440020772F204361703A20256900596F702073
:10FF5400772F6F204361703A2025690054696D65DD
:10FF64002074616B656E3A20256973002530327800
:10FF74003A253032783A25303278004E4F20424FBD
:10FF840054544C4520202020004163636573732042
:10FF9400454550524F4D00426567696E20536F725C
:10FFA40074696E6700596F7020772F4361703A202F
:10FFB4002569002320426F74746C65733A202569A7
:10FFC4000020772F6F2043617020202020002530EF
:10FFD40032782F253032782020200020772F2043BC
:10FFE40061702020202000526563656E7420527574
:0CFFF4006E0045534B4100594F50000077
:020000040020DA
:08000000FFFFFFFFFFFFFFFF00
:020000040030CA
:0E000000FF021F1EFF8381FF0FC00FE00F40A5
:00000001FF
