:0400000007EF00F016
:100008004F82A8ED0CF07BEF16F024D3250E0001EB
:100018009D19D8B43AD0000120EE02F08C51D926AF
:100028008D51DA22DE50DE10D8B419D0000120EE4E
:1000380002F08C51D9268D51DA22DECF92F0DDCF35
:1000480093F001D807D30500FA6E00019251FD6EB6
:100058009351FE6EFF6AFA5000019D5112008CC048
:10006800D9FF8DC0DAFFDECF92F0DDCF93F092C0DA
:10007800D9FF93C0DAFF9DC0DFFF8CC0D9FF8DC0C8
:10008800DAFFDE2A000EDD22E5D2000E00019C6FA9
:10009800000E9B6F000E00019A6F05D000019A8533
:1000A80000018E4B8F2B8EC0F6FF8FC0F7FFF86ACA
:1000B8000800F550300AD8B4F1D78EC0F6FF8FC0CB
:1000C800F7FFF86A0800F55099EC17F0D8A046D069
:1000D800000E00019C6F000E9B6F9BC080F09CC0BF
:1000E80081F0000E0001836F0A0E826F18EC17F082
:1000F80080C09BF081C09CF0D00E0001926FFF0E73
:100108000001936F8EC0F6FF8FC0F7FFF86A0800F2
:10011800F5500001946F956B0001925100019427EE
:1001280000019351000195230001945100019B2780
:100138000001955100019C2300018E4B8F2B8EC02E
:10014800F6FF8FC0F7FFF86A0800F55099EC17F032
:10015800D8A004D0C2D700019A8F1AD08EC0F6FF5B
:100168008FC0F7FF00018E4B8F2BF86A0800F5CF80
:100178009DF000019D51000AD8B47BD2640AD8B41E
:1001880007D00D0AD8B404D0110AD8B4E4D762D283
:1001980000019ABF20D090C0D9FF91C0DAFFDFCF0D
:1001A80092F0020EDE26DFCF93F0000EDD2292C021
:1001B800D9FF93C0DAFFDECF98F0DDCF99F00001C8
:1001C80099AF60D0030E00019A130001986D991F32
:1001D800D8B0992B57D090C0D9FF91C0DAFFDFCFA4
:1001E80092F0020EDE26DFCF93F0000EDD2292C0E1
:1001F800D9FF93C0DAFFDECF98F0DDCF99F042D077
:10020800010E00019D6F050E00019D19D8B443D061
:1002180000019D51020D3A0EF324F66EFE0EF420F5
:10022800F76EF86A000EF8220900F5500001985D93
:100238000900F55000019959D8A02DD000019D2B37
:10024800E2D7010E00019D6F040E00019D19D8B47C
:1002580022D000019D51020D440EF324F66EFE0ECD
:10026800F420F76EF86A000EF8220900F550000134
:10027800985D0900F55000019959D8A00CD00001EB
:100288009D2BE2D700019A51800B000AD8B4B8D749
:10029800800AD8B4D6D700019B5100019C11D8B46C
:1002A8000BD09AC092F0030E00019217D8B404D074
:1002B80000019B07D8A09C07800E00019DBF7F0E00
:1002C8000001926F00019B5100019D5D00019C514E
:1002D800800A00019259D8B00BD000019D5100014D
:1002E8009B5F000E00019DBFFF0E00019C5B05D0C7
:1002F800000E00019C6F000E9B6F00019AA582D032
:100308009AC092F0030E00019217D8B438D00001B9
:1003180020EE02F08C51D9268D51DA22DE50DE1003
:10032800D8B418D0000120EE02F08C51D9268D5196
:10033800DA22DECF92F0DDCF93F001D820D005008D
:10034800FA6E00019251FD6E9351FE6EFF6AFA50EB
:100358002D0E12008CC0D9FF8DC0DAFFDECF92F0CF
:10036800DDCF93F092C0D9FF93C0DAFF2D0EDF6E78
:100378008CC0D9FF8DC0DAFFDE2A000EDD22000115
:100388009B5100019C11D8B4C4D0000120EE02F0AA
:100398008C51D9268D51DA22DE50DE10D8B418D00F
:1003A800000120EE02F08C51D9268D51DA22DECFE1
:1003B80092F0DDCF93F001D820D00500FA6E00014D
:1003C8009251FD6E9351FE6EFF6AFA50300E120084
:1003D8008CC0D9FF8DC0DAFFDECF92F0DDCF93F06D
:1003E80092C0D9FF93C0DAFF300EDF6E8CC0D9FF00
:1003F8008DC0DAFFDE2A000EDD2200019B07D8A09F
:100408009C07BDD700019B5100019C11D8B442D074
:10041800000120EE02F08C51D9268D51DA22DE50EF
:10042800DE10D8B418D0000120EE02F08C51D92685
:100438008D51DA22DECF92F0DDCF93F001D820D0B3
:100448000500FA6E00019251FD6E9351FE6EFF6A2F
:10045800FA50200E12008CC0D9FF8DC0DAFFDECF13
:1004680092F0DDCF93F092C0D9FF93C0DAFF200E4F
:10047800DF6E8CC0D9FF8DC0DAFFDE2A000EDD22C8
:1004880000019B07D8A09C0700019B5100019C110B
:10049800D8A4BED79AC092F0030E00019217D8B420
:1004A80038D0000120EE02F08C51D9268D51DA2285
:1004B800DE50DE10D8B418D0000120EE02F08C51C6
:1004C800D9268D51DA22DECF92F0DDCF93F001D814
:1004D80020D00500FA6E00019251FD6E9351FE6E18
:1004E800FF6AFA502D0E12008CC0D9FF8DC0DAFFBA
:1004F800DECF92F0DDCF93F092C0D9FF93C0DAFF40
:100508002D0EDF6E8CC0D9FF8DC0DAFFDE2A000EFB
:10051800DD229DC097F098D000019751020D3A0E48
:10052800F324F66EFE0EF420F76EF86A000EF82239
:100538000900F5CF82F00A00F5CF83F098C080F06B
:1005480099C081F09BEC13F080C087F081C088F0DF
:10055800000E00018A6F0A0E896FE2EC14F00001A8
:100568008751300F00019D6F36D098C080F099C038
:1005780081F000019751020D440EF324F66EFE0E31
:10058800F420F76EF86A000EF8220900F5CF82F021
:100598000A00F5CF83F09BEC13F0000180510F0B9C
:1005A8000001966F00019651010D780EF324F66E46
:1005B800FE0EF420F76EF86A000EF8220800F5CF58
:1005C8009DF009D000019A51800B000AD8B4A4D735
:1005D800800AD8B4CAD7000120EE02F08C51D9267F
:1005E8008D51DA22DE50DE10D8B419D0000120EE89
:1005F80002F08C51D9268D51DA22DECF92F0DDCF70
:1006080093F001D821D00500FA6E00019251FD6ED9
:100618009351FE6EFF6AFA5000019D5112008CC082
:10062800D9FF8DC0DAFFDECF92F0DDCF93F092C014
:10063800D9FF93C0DAFF9DC0DFFF8CC0D9FF8DC002
:10064800DAFFDE2A000EDD22000197070001972954
:10065800D8A4B8D78EC0F6FF8FC0F7FF00018E4B25
:100668008F2BF86A0800F5CF9DF000019D51D8A4A2
:10067800CDD4000E00018D6F000E8C6F1200C4D215
:10068800250E1E18D8B436D020EE02F00D50D9260B
:100698000E50DA22DE50DE10D8B416D020EE02F06A
:1006A8000D50D9260E50DA22DECF13F0DDCF14F02C
:1006B80001D8AAD20500FA6E1350FD6E1450FE6ED2
:1006C800FF6AFA501E5012000DC0D9FF0EC0DAFFA3
:1006D800DECF13F0DDCF14F013C0D9FF14C0DAFF5A
:1006E8001EC0DFFF0DC0D9FF0EC0DAFFDE2A000EE4
:1006F800DD228AD2000E1D6E000E1C6E000E1B6ECF
:1007080003D01B840F4A102A0FC0F6FF10C0F7FF52
:10071800F86A0800F550300AD8B4F3D70FC0F6FFCE
:1007280010C0F7FFF86A0800F550F9EC17F0D8A0E8
:1007380037D0000E1D6E000E1C6E1CC001F01DC0CF
:1007480002F0000E046E0A0E036ED5EC17F001C01D
:100758001CF002C01DF0D00E136EFF0E146E0FC0F9
:10076800F6FF10C0F7FFF86A0800F550156E166A14
:10077800135015261450162215501C2616501D22EB
:100788000F4A102A0FC0F6FF10C0F7FFF86A0800DA
:10079800F550F9EC17F0D8A003D0CFD71B8E18D09E
:1007A8000FC0F6FF10C0F7FF0F4A102AF86A0800BA
:1007B800F5CF1EF01E50000AD8B433D2640AD8B45C
:1007C80007D00D0AD8B404D0110AD8B4E7D71CD280
:1007D8001BBE1DD011C0D9FF12C0DAFFDFCF13F046
:1007E800020EDE26DFCF14F0000EDD2213C0D9FF83
:1007F80014C0DAFFDECF19F0DDCF1AF01AAE52D0EE
:10080800030E1B12196C1A1ED8B01A2A4BD011C02D
:10081800D9FF12C0DAFFDFCF13F0020EDE26DFCFDA
:1008280014F0000EDD2213C0D9FF14C0DAFFDECFAA
:1008380019F0DDCF1AF036D0010E1E6E050E1E1807
:10084800D8B438D01E50020D3A0EF324F66EFE0EC0
:10085800F420F76EF86A000EF8220900F550195CCA
:100868000900F5501A58D8A025D01E2AE7D7010E3E
:100878001E6E040E1E18D8B41DD01E50020D440E54
:10088800F324F66EFE0EF420F76EF86A000EF822D6
:100898000900F550195C0900F5501A58D8A00AD07B
:1008A8001E2AE7D71B50800B000AD8B4C5D7800A88
:1008B800D8B4DDD71C501D10D8B409D01BC013F014
:1008C800030E1316D8B403D01C06D8A01D06800E3C
:1008D8001EBE7F0E136E1C501E5C1D50800A1358DE
:1008E800D8B007D01E501C5E000E1EBEFF0E1D5A4B
:1008F80004D0000E1D6E000E1C6E1BA478D01BC009
:1009080013F0030E1316D8B435D020EE02F00D50B4
:10091800D9260E50DA22DE50DE10D8B416D020EEDA
:1009280002F00D50D9260E50DA22DECF13F0DDCFBB
:1009380014F001D81FD00500FA6E1350FD6E145044
:10094800FE6EFF6AFA502D0E12000DC0D9FF0EC0C0
:10095800DAFFDECF13F0DDCF14F013C0D9FF14C0D7
:10096800DAFF2D0EDF6E0DC0D9FF0EC0DAFFDE2ACA
:10097800000EDD221C501D10D8B4B4D020EE02F0B9
:100988000D50D9260E50DA22DE50DE10D8B416D01B
:1009980020EE02F00D50D9260E50DA22DECF13F0E9
:1009A800DDCF14F001D81FD00500FA6E1350FD6E8C
:1009B8001450FE6EFF6AFA50300E12000DC0D9FFB7
:1009C8000EC0DAFFDECF13F0DDCF14F013C0D9FF6D
:1009D80014C0DAFF300EDF6E0DC0D9FF0EC0DAFF8B
:1009E800DE2A000EDD221C06D8A01D06C3D71C5027
:1009F8001D10D8B43CD020EE02F00D50D9260E5070
:100A0800DA22DE50DE10D8B416D020EE02F00D50F7
:100A1800D9260E50DA22DECF13F0DDCF14F001D83C
:100A28001FD00500FA6E1350FD6E1450FE6EFF6A5B
:100A3800FA50200E12000DC0D9FF0EC0DAFFDECF2B
:100A480013F0DDCF14F013C0D9FF14C0DAFF200E65
:100A5800DF6E0DC0D9FF0EC0DAFFDE2A000EDD22E0
:100A68001C06D8A01D061C501D10D8A4C4D71BC036
:100A780013F0030E1316D8B435D020EE02F00D5043
:100A8800D9260E50DA22DE50DE10D8B416D020EE69
:100A980002F00D50D9260E50DA22DECF13F0DDCF4A
:100AA80014F001D81FD00500FA6E1350FD6E1450D3
:100AB800FE6EFF6AFA502D0E12000DC0D9FF0EC04F
:100AC800DAFFDECF13F0DDCF14F013C0D9FF14C066
:100AD800DAFF2D0EDF6E0DC0D9FF0EC0DAFFDE2A59
:100AE800000EDD221EC018F08BD01850020D3A0EF1
:100AF800F324F66EFE0EF420F76EF86A000EF82264
:100B08000900F5CF03F00A00F5CF04F019C001F091
:100B18001AC002F097EC15F001C008F002C009F005
:100B2800000E0B6E0A0E0A6E9CEC16F00850300F81
:100B38001E6E31D019C001F01AC002F01850020D13
:100B4800440EF324F66EFE0EF420F76EF86A000EDB
:100B5800F8220900F5CF03F00A00F5CF04F097EC6E
:100B680015F001500F0B176E1750010D780EF32476
:100B7800F66EFE0EF420F76EF86A000EF8220800F2
:100B8800F5CF1EF008D01B50800B000AD8B4ADD7A3
:100B9800800AD8B4CFD720EE02F00D50D9260E50D7
:100BA800DA22DE50DE10D8B416D020EE02F00D5056
:100BB800D9260E50DA22DECF13F0DDCF14F001D89B
:100BC8001FD00500FA6E1350FD6E1450FE6EFF6ABA
:100BD800FA501E5012000DC0D9FF0EC0DAFFDECF4A
:100BE80013F0DDCF14F013C0D9FF14C0DAFF1EC014
:100BF800DFFF0DC0D9FF0EC0DAFFDE2A000EDD22AE
:100C080018061828D8A4BFD70FC0F6FF10C0F7FFE2
:100C18000F4A102AF86A0800F5CF1EF01E50D8A413
:100C28002FD5000E0E6E000E0D6E120073EC18F02C
:100C3800000E0001BA6F000EB96F000E0001BC6F04
:100C4800000EBB6F000E0001C06F000EBF6F0001E9
:100C5800C0BF08D00001C05118E1060E0001BF5DF9
:100C6800D8B013D0D8900001BF35D96E0001C03577
:100C7800DA6EE90ED926000EDA22000EDE6E000EBC
:100C8800DD6E0001BF4BC02BE2D74EEC17F0300EE3
:100C980000019E6FFF0E00019F6F0FEC16F0D7EC5E
:100CA80013F079EC0EF0AAC0B4F0ABC0B5F0B1D037
:100CB800C00E46EC18F07F0E00019E6FFF0E00017B
:100CC8009F6F0FEC16F080A0FED780A0A2D0C00EB8
:100CD80046EC18F0AB0E00019E6FFE0E00019F6FF0
:100CE8000FEC16F012EC14F00B0E0001B36F260E89
:100CF8000001B26F5D0EE82EFED7B22FFCD7B32FDE
:100D0800FAD700D080B210D0C00E46EC18F0FB0E17
:100D180000019E6FFF0E00019F6F0FEC16F0000E92
:100D28000001BA6F000E0FD0C00E46EC18F0F60E98
:100D380000019E6FFF0E00019F6F0FEC16F0000E72
:100D48000001BA6F010EB96F80B480A601D00DD032
:100D5800DF0E00019E6FFF0E00019F6F0FEC16F073
:100D6800000E0001BC6F000E0CD0C50E00019E6F76
:100D7800FF0E00019F6F0FEC16F0000E0001BC6F14
:100D8800010EBB6F0001EB4BEC2BB9C0B2F0BAC03F
:100D9800B3F0D8900001B237B3370001BB5100015E
:100DA800B2270001BC510001B323020E0001B22595
:100DB8000001BD6F000E0001B3210001BE6FD89085
:100DC8000001BD35D96E0001BE35DA6EE90ED926AF
:100DD800000EDA22DE2A000EDD220B0E0001B36FB0
:100DE800260E0001B26F5D0EE82EFED7B22FFCD79B
:100DF800B32FFAD700D0FE0E0001BD250001806F89
:100E0800FF0E0001BE210001816F46EC14F034ECA6
:100E180016F00001ECBF4CD70001EC5105E10A0EB9
:100E28000001EB5DD8A044D76FEC18F04EEC17F03A
:100E3800540E00019E6FFE0E00019F6F0FEC16F01E
:100E4800C00E46EC18F09A0E00019E6FFE0E0001CF
:100E58009F6F0FEC16F0D7EC13F079EC0EF0AAC0E8
:100E6800B6F0ABC0B7F0B4C0B2F0B5C0B3F0000193
:100E7800B21FB31FB24BB32B0001B6510001B2250C
:100E88000001E96F0001B7510001B3210001EA6FC9
:100E9800000E0001C06F000EBF6F0001C0BF08D078
:100EA8000001C0511BE1070E0001BF5DD8B016D08C
:100EB800E00E0001BF25D96E000E0001C021DA6ED8
:100EC800D90E0001BF25E16E000E0001C021E26EBF
:100ED800DFCFE7FF0001BF4BC02BDFD784EC07F063
:100EE80068EC17F00001B86F2C0EF66EFE0EF76E68
:100EF800F86A0800F5500001B819D8B41200F0D704
:100F0800000E00018D6F000E8C6F00018DBF08D0A0
:100F180000018D5140E10D0E00018C5DD8B03BD031
:100F28008CC080F08DC081F0000E0001836F0C0E24
:100F3800826F18EC17F0900E000180250001866F73
:100F4800010E000181210001876F08EC18F00001F3
:100F5800896F0001895100018A6F8B6B8CC080F00A
:100F68008DC081F0000E0001836F0C0E826F18ECAB
:100F780017F0580E000180250001866F020E00014F
:100F880081210001876F8AC088F0AEEC17F000015C
:100F98008C4B8D2BBAD7000E00018D6F000E8C6F15
:100FA80000018DBF08D000018D5140E10D0E0001F8
:100FB8008C5DD8B03BD08CC080F08DC081F0000E25
:100FC8000001836F0C0E826F18EC17F0C80E000139
:100FD80080250001866F000E000181210001876FC6
:100FE80008EC18F00001896F0001895100018A6F2F
:100FF8008B6B8CC080F08DC081F0000E0001836F78
:101008000C0E826F18EC17F0900E0001802500017D
:10101800866F010E000181210001876F8AC088F068
:10102800AEEC17F000018C4B8D2BBAD7000E0001E7
:101038008D6F000E8C6F00018DBF08D000018D519F
:101048003AE10D0E00018C5DD8B035D08CC080F02F
:101058008DC081F0000E0001836F0C0E826F18ECBA
:1010680017F080C086F081C087F008EC18F0000106
:10107800896F0001895100018A6F8B6B8CC080F0E9
:101088008DC081F0000E0001836F0C0E826F18EC8A
:1010980017F0C80E000180250001866F000E0001C0
:1010A80081210001876F8AC088F0AEEC17F000013B
:1010B8008C4B8D2BC0D7000E00018D6F000E8C6FEE
:1010C80000018DBF08D000018D5128E1060E0001F6
:1010D8008C5DD8B023D08CC080F08DC081F0000E1C
:1010E8000001836F0C0E826F18EC17F080C086F039
:1010F80081C087F0D89000018C35D96E00018D35FC
:10110800DA6EE90ED926000EDA22DF500001886F68
:10111800AEEC17F000018C4B8D2BD2D7000E0001DE
:101128008D6F000E8C6F00018DBF08D000018D51AE
:101138002BE1070E00018C5DD8B01200060E0001ED
:101148008C250001806F000E00018D210001816F48
:10115800000E0001836F0C0E826F18EC17F080C030
:1011680086F081C087F0D90E00018C25D96E000E5B
:1011780000018D21DA6EDF500001886FAEEC17F0A8
:1011880000018C4B8D2BCFD71200000E0001D16FC0
:10119800000ED06FD0C0ACF0D1C0ADF0FBEC12F0B7
:1011A80068EC17F00001CF6F2C0EF66EFE0EF76E8E
:1011B800F86A0800F5500001CF19D8A4CBD0000E6A
:1011C8000001D36F000ED26F0001D3BF08D0000119
:1011D800D35123E1060E0001D25DD8B01ED0D890BD
:1011E8000001D235D96E0001D335DA6EE90ED92661
:1011F800000EDA22D8900001D235E16E0001D33515
:10120800E26EC30EE126000EE222DECFE6FFDDCF5E
:10121800E5FF0001D24BD32BD7D7000E0001D36FC7
:10122800000ED26F0001D3BF08D00001D35124E1D2
:10123800070E0001D25DD8B01FD0D90E0001D2250B
:10124800D96E000E0001D321DA6EDF500001B36FB2
:10125800B46BD8900001D235D96E0001D335DA6E5F
:10126800B50ED926000EDA22B3C0DEFFB4C0DDFF0A
:101278000001D24BD32BD6D7D0C088F0D1C089F08B
:10128800DFEC0DF046EC12F0D0C0ACF0D1C0ADF000
:10129800FBEC12F0000E0001D36F000ED26F0001BC
:1012A800D3BF08D00001D35123E1060E0001D25D5F
:1012B800D8B01ED0D8900001D235D96E0001D335F0
:1012C800DA6EC30ED926000EDA22D8900001D23584
:1012D800E16E0001D335E26EE90EE126000EE2224E
:1012E800DECFE6FFDDCFE5FF0001D24BD32BD7D70A
:1012F800000E0001D36F000ED26F0001D3BF0AD0D9
:101308000001D35106E1070E0001D25DD8B048D7DD
:1013180001D046D7D8900001D235D96E0001D33517
:10132800DA6EB50ED926000EDA22D90E0001D225C2
:10133800E16E000E0001D321E26EDFCFE7FF00016E
:10134800D24BD32B0001D3BFE5D70001D35101E124
:10135800DAD726D7380EF66EFE0EF76EF86A080052
:10136800F5500001CF19D8B412002D0EF66EFE0EFE
:10137800F76EF86A0800F5500001CF19D8A419D003
:10138800D00E0001806F000E0001816F000E000179
:10139800836F000E826F000E0001856F030E846F4D
:1013A800FAEC16F0D0C0ACF0D1C0ADF0FBEC12F006
:1013B800F7D62F0EF66EFE0EF76EF86A0800F55097
:1013C8000001CF19D8A4ECD6D00E0001806F000E12
:1013D8000001816F000E0001836F000E826F000E06
:1013E8000001856F030E846FDCEC16F0D0C0ACF002
:1013F800D1C0ADF0FBEC12F0D3D64EEC17F081D093
:101408004EEC17F0600E00019E6FFF0E00019F6FFB
:10141800E9C0A0F0EAC0A1F00FEC16F092D04EECB3
:1014280017F0B70E00019E6FFF0E00019F6FEBC013
:10143800A0F0ECC0A1F00FEC16F083D04EEC17F042
:10144800A90E00019E6FFF0E00019F6FEDC0A0F076
:10145800EEC0A1F00FEC16F074D04EEC17F0500E61
:1014680000019E6FFF0E00019F6FEFC0A0F0F0C05B
:10147800A1F00FEC16F065D04EEC17F0400E00010D
:101488009E6FFF0E00019F6FF1C0A0F0F2C0A1F0A7
:101498000FEC16F056D04EEC17F0EF0E00019E6FD1
:1014A800FE0E00019F6FF3C0A0F0F4C0A1F00FEC96
:1014B80016F047D04EEC17F0D20E00019E6FFF0ECB
:1014C80000019F6FDEC0A0F00001A16BDDC0A2F09B
:1014D8000001A36B0FEC16F0700E00019E6FFF0E5B
:1014E80000019F6FDBC0A0F00001A16BDAC0A2F081
:1014F8000001A36BD9C0A4F00001A56B0FEC16F096
:1015080020D0ACC0AEF0ADC0AFF00001AF51000AC2
:10151800D8A417D00001AE51000AD8B471D7010A77
:10152800D8B47DD7030AD8B489D7010AD8B495D7D7
:10153800070AD8B4A1D7010AD8B4ADD7030AD8B4DA
:10154800B9D7C00E46EC18F0660E00019E6FFE0E6D
:1015580000019F6F0FEC16F012008AC08EF0000198
:101568008F6B906B0001893500018E3701E38F8105
:1015780000018E510001916F00019151D8A40AD049
:10158800000E0001886F000E0001896F000E000137
:101598008A6F12008DC08EF000018F6B906B000176
:1015A8008C3500018E3701E38F8100018E510001D7
:1015B800966F00019651D8A40AD0000E0001886FDA
:1015C800000E0001896F000E00018A6F12000001F1
:1015D80096517B0F000191278AC096F000018D512A
:1015E8000001961B800E000196170001898F0001EB
:1015F8008C8FFF0E00018B17FF0E00018C17000E59
:1016080000018D17000E0001926F000E0001936F0C
:10161800000E0001946F070E0001956F000188A16C
:101628000CD000018B510001922700018C51000160
:10163800932300018D51000194230001D8908A332F
:10164800893388330001D8908B378C378D37000168
:10165800952FE4D7090E0001956F000188A10CD0E1
:1016680000018B510001922700018C510001932346
:1016780000018D51000194230001D8908A338933E9
:1016880088330001D8909433933392330001952F17
:10169800E4D792C080F093C081F094C082F091C0EA
:1016A80083F096C084F007EC0FF080C088F081C00A
:1016B80089F082C08AF0120099C09DF000019E6BEB
:1016C8009F6B0001983500019D3701E39E81000161
:1016D8009D510001A46F0001A451D8A40AD0000EA6
:1016E8000001976F000E0001986F000E0001996FBE
:1016F80012009CC09DF000019E6B9F6B00019B3502
:1017080000019D3701E39E8100019D510001A56FF5
:101718000001A551D8A40AD0000E0001976F000E51
:101728000001986F000E0001996F1200000E000171
:10173800A16F000E0001A26F000E0001A36F00014F
:10174800A551890F0001A45F99C0A5F000019C5123
:101758000001A51B800E0001A5170001988FFF0E40
:1017680000019717FF0E00019817000E0001991746
:1017780000019B8FFF0E00019A17FF0E00019B17B7
:10178800000E00019C17180E0001A06F0001D890F0
:10179800A137A237A33700019A510001975D0001D4
:1017A8009B510001985900019C5100019959D8A0FA
:1017B8000ED000019A510001975F00019B51000172
:1017C800985B00019C510001995B0001A181000117
:1017D800D8909737983799370001A02FD7D7A1C04D
:1017E80080F0A2C081F0A3C082F0A4C083F0A5C09D
:1017F80084F007EC0FF080C097F081C098F082C0A9
:1018080099F01200A8C0AAF00001AB6BAC6B000104
:10181800A7350001AA3701E3AB810001AA510001F5
:10182800B46F0001B451D8A40AD0000E0001A66F0D
:10183800000EA76F000EA86F000EA96F1200170EFA
:101848000001AA6FA6C0ABF0A7C0ACF0A8C0ADF06D
:101858000001AA290001AE6F05D00001D890AD3370
:10186800AC33AB330001AE2FF8D70001AB51000108
:10187800AF6F0001A78FFF0E0001A617FF0E000132
:10188800A717000E0001A8170001A6510001B06FAC
:101898000001A7510001B16F0001A8510001B26F0A
:1018A8000001B36B8E0E0001B45F0001B4AF1AD013
:1018B8000001B451800A8F0FD8B00AD0000E000181
:1018C800A66F000EA76F000EA86F000EA96F12007A
:1018D8000001D890B333B233B133B0330001B43F11
:1018E800F7D71BD0170E0001B46512D0000E000107
:1018F800A66F000EA76F000EA86F000EA96F12004A
:101908000001D890B037B137B237B3370001B40708
:101918000001B4510001D8A4F3D70001AF51000170
:10192800D8B409D00001B31FB21FB11FB06D000EAB
:10193800B123B223B323B0C0A6F0B1C0A7F0B2C0A0
:10194800A8F0B3C0A9F012000600FACF36F0FBCF1A
:1019580037F0E9CF38F0EACF39F0E1CF3AF0E2CF0B
:101968003BF0D9CF3CF0DACF3DF0F3CF3EF0F4CFE7
:101978003FF0F6CF40F0F7CF41F0F8CF42F0F5CF87
:1019880043F0F29EF2BAF2A411D0260E4B184C1076
:10199800D8A409D0AEEC14F0BDEC16F0000E4C6ED5
:1019A800000E4B6E02D04B4A4C2AF2949DB09EA07A
:1019B80048D0070E49184A10D8A406D08282000ED3
:1019C8004A6E000E496E03D08292494A4A2A9E9076
:1019D800000E446E200E456E410E466E000E1B6EC4
:1019E800000E1C6E410E1D6E000E0C6EFA0E0D6E72
:1019F800440E0E6E44C009F045C00AF046C00BF014
:101A080082EC10F009C018F00AC019F00BC01AF0E7
:101A180075EC11F018C027F019C028F01AC029F089
:101A280008EC10F0271E281E274A282AFF0E272414
:101A3800476EFF0E2820486E4850CF6E47C0CEFF35
:101A4800CD80F28E43C0F5FF42C0F8FF41C0F7FFDA
:101A580040C0F6FF3FC0F4FF3EC0F3FF3DC0DAFFD1
:101A68003CC0D9FF3BC0E2FF3AC0E1FF39C0EAFF02
:101A780038C0E9FF37C0FBFF36C0FAFF4F921100AC
:101A8800E8EC17F068EC17F00001D86F4E0EF66E10
:101A9800FE0EF76E000EF86E0900F5CFD6F00900BD
:101AA800F5CFD7F0290E0001D625F66EFE0ED72108
:101AB800F76EF86A000EF8220800F5500001D819F0
:101AC800D8A403D0E8EC15F0DDD7500EF66EFE0E64
:101AD800F76E000EF86E0900F5CFD6F00900F5CFC5
:101AE800D7F0290E0001D625F66EFE0ED721F76E27
:101AF800F86A000EF8220800F5500001D819D8A499
:101B080015D0E70E0001806F000E0001816F000EF6
:101B18000001836F000E826F000E0001856F030EB7
:101B2800846FFAEC16F04DEC13F0ACD7520EF66E4B
:101B3800FE0EF76E000EF86E0900F5CFD6F009001C
:101B4800F5CFD7F0290E0001D625F66EFE0ED72167
:101B5800F76EF86A000EF8220800F5500001D8194F
:101B6800D8A415D0E70E0001806F000E0001816F28
:101B7800000E0001836F000E826F000E0001856F5A
:101B8800030E846FDCEC16F04DEC13F07BD7290EB6
:101B9800F66EFE0EF76E000EF86E0800F5500001A6
:101BA800D819D8A46FD7000E0001816F000E806F7E
:101BB80046EC14F067D7000E00018F6F000E8E6F91
:101BC80000018FBF08D000018F5143E1060E0001CC
:101BD8008E5DD8B03ED08EC080F08FC081F0000EF0
:101BE8000001836F0C0E826F18EC17F080C08AF02A
:101BF80081C08BF088C080F089C081F0000E0001A0
:101C0800836FC80E826F18EC17F000018051000135
:101C18008A250001866F0001815100018B21000196
:101C2800876F08EC18F000018C6F8D6BD89000015D
:101C38008E35D96E00018F35DA6EE90ED926000E81
:101C4800DA228CC0DEFF8DC0DDFF00018E4B8F2BAA
:101C5800B7D7000E00018F6F000E8E6F00018FBF87
:101C680008D000018F5140E1070E00018E5DD8B009
:101C78001200D90E00018E25D96E000E00018F21A9
:101C8800DA6E060E00018E250001806F000E00013D
:101C98008F210001816F000E0001836F0C0E826F8F
:101CA80018EC17F080C08AF081C08BF088C080F0F3
:101CB80089C081F0000E0001836FC80E826F18EC96
:101CC80017F00001805100018A250001866F00018C
:101CD800815100018B210001876F08EC18F0DF6E3D
:101CE80000018E4B8F2BBAD71200000E0001AD6F8A
:101CF800000EAC6FB00E00019E6F000E00019F6FCA
:101D08007A0E0001A06FFF0E0001A16FE0C0A2F0E3
:101D18000001A36B6EEC15F0B00E0001866F000E8B
:101D28000001876FFCEC10F0000186510001AC2720
:101D3800000187510001AD23B00E00019E6F000E17
:101D480000019F6F7A0E0001A06FFF0E0001A16FC6
:101D5800E1C0A2F00001A36B6EEC15F0B00E00011B
:101D6800866F000E0001876FFCEC10F086C0AEF0A5
:101D780087C0AFF0AEC080F0AFC081F0000E0001A8
:101D8800836F3C0E826F18EC17F000018051000140
:101D9800AC27000181510001AD23B00E00019E6FF8
:101DA800000E00019F6F7A0E0001A06FFF0E000168
:101DB800A16FE2C0A2F00001A36B6EEC15F0B00EAB
:101DC8000001866F000E0001876FFCEC10F086C0E2
:101DD800AEF087C0AFF0AEC080F0AFC081F00E0E9D
:101DE8000001836F100E826F18EC17F0000180510C
:101DF8000001AC27000181510001AD23ACC0AAF05D
:101E0800ADC0ABF01200000183510001D8B408D076
:101E1800000180510001811100018211D8A411D064
:101E2800000E0001806F000E0001816F000E00019E
:101E3800826F12000001832B0001D8908233813316
:101E48008033000E000180150001856F000E00012F
:101E580081150001866FFE0E000182150001876F53
:101E6800000185510001861100018711D8B411D0F5
:101E7800E1D70001832B010E00018027000E00012D
:101E88008123000E000182230001D8908233813320
:101E98008033000E000180150001856F000E0001DF
:101EA80081150001866FFF0E000182150001876F02
:101EB800000185510001861100018711D8B408D0AE
:101EC800D8D7000183070001D8908037813782373F
:101ED800000181BF04D0020E00018361F2D7000126
:101EE80083B102D00001819F0001D89083330001A3
:101EF800835100018213000184510001D8B402D03B
:101F08000001828F80C080F081C081F082C082F0A1
:101F18001200F00ED36E9B8C92689368000E946E3C
:101F2800000E956E000E966E000E896E000E8A6E7B
:101F3800000E8B6E000E8C6E000E8D6E000EC26E43
:101F4800C168F19E000EB56EB496C08ED580D5825C
:101F5800D584D596D59AD58C800ECD6ECD8ACD8870
:101F6800CD96CD84CD92000E0001B56F200E0001F4
:101F7800B66F410E0001B76F000E00019A6F000E98
:101F880000019B6F410E00019C6F000E00018B6FDA
:101F9800FA0E00018C6F440E00018D6FB5C088F0F9
:101FA800B6C089F0B7C08AF0B1EC0AF088C097F0E3
:101FB80089C098F08AC099F060EC0BF097C0A6F041
:101FC80098C0A7F099C0A8F006EC0CF00001A61F75
:101FD8000001A71F0001A64BA72BFF0E0001A62595
:101FE8000001B86FFF0E0001A7210001B96F0001C1
:101FF800B951CF6EB8C0CEFFF28AF284D58E9D90CB
:102008009E80CD80F28C120029C02BF02C6A2D6A9C
:1020180028342B3601E32C802B50356E3550D8A44C
:1020280009D0000E276E000E286E000E296E000ED5
:102038002A6E1200170E2B6E27C02CF028C02DF028
:1020480029C02EF02B282F6E04D0D8902E322D3296
:102058002C322F2EFAD72C50306E288EFF0E2716D2
:10206800FF0E2816000E29162750316E2850326EA2
:102078002950336E346A8E0E355E35AE16D0355023
:10208800800A8F0FD8B009D0000E276E000E286E78
:10209800000E296E000E2A6E1200D89034323332A8
:1020A80032323132353EF9D715D0170E35640FD09C
:1020B800000E276E000E286E000E296E000E2A6E86
:1020C8001200D8903136323633363436350635502C
:1020D800D8A4F7D73050D8B408D0341E331E321ED7
:1020E800316C000E32223322342231C027F032C044
:1020F80028F033C029F034C02AF012000BC00FF0CA
:10210800106A116A0A340F3601E310800F50126EFC
:102118001250D8A407D0000E096E000E0A6E000EE9
:102128000B6E12000EC00FF0106A116A0D340F36D4
:1021380001E310800F50176E1750D8A407D0000E77
:10214800096E000E0A6E000E0B6E120017507B0F00
:1021580012260BC017F00E50171A800E17160A8E8B
:102168000D8EFF0E0C16FF0E0D16000E0E16000E2D
:10217800136E000E146E000E156E070E166E09A073
:1021880006D00C5013260D5014220E501522D8904C
:102198000B320A320932D8900C360D360E36162E0E
:1021A800EED7090E166E09A006D00C5013260D5056
:1021B80014220E501522D8900B320A320932D890C8
:1021C800153214321332162EEED713C001F014C094
:1021D80002F015C003F012C004F017C005F0A4EC1B
:1021E80012F001C009F002C00AF003C00BF012009F
:1021F80003D00001864B872B86C0D9FF87C0DAFF42
:10220800200EDE18D8B4F5D786C0D9FF87C0DAFF0C
:10221800090EDE18D8B4EDD7000E00018C6F000E41
:102228008B6F000E00018A6F86C0D9FF87C0DAFF66
:102238002D0EDE18D8A403D000018A2B2ED086C01C
:10224800D9FF87C0DAFF2B0EDE18D8A429D025D0F5
:102258008BC080F08CC081F0000E0001836F0A0EE5
:10226800826F18EC17F086C0D9FF87C0DAFFDF50FD
:102278000001886F896B00018051000188270001E7
:10228800815100018923D00E0001882500018B6F40
:10229800FF0E0001892100018C6F0001864B872BFE
:1022A80086C0D9FF87C0DAFFDF5099EC17F0D8B0A5
:1022B800CFD700018A510001D8B40ED08BC088F066
:1022C8008CC089F00001881F891F884B892B88C022
:1022D80086F089C087F012008BC086F08CC087F02A
:1022E80012001AC01EF01F6A206A19341E3601E354
:1022F8001F801E50256E2550D8A407D0000E186EDA
:10230800000E196E000E1A6E12001DC01EF01F6A14
:10231800206A1C341E3601E31F801E50266E26508C
:10232800D8A407D0000E186E000E196E000E1A6E93
:102338001200000E226E000E236E000E246E265030
:10234800890F255E1AC026F01D50261A800E261603
:10235800198EFF0E1816FF0E1916000E1A161C8E6F
:10236800FF0E1B16FF0E1C16000E1D16180E216EF2
:10237800D8902236233624361B50185C1C50195826
:102388001D501A58D8A007D01B50185E1C50195A57
:102398001D501A5A2280D890183619361A36212E0E
:1023A800E7D722C001F023C002F024C003F025C003
:1023B80004F026C005F0A4EC12F001C018F002C029
:1023C80019F003C01AF01200000E0001886F000E09
:1023D800896F000E8A6F000E8B6F00018451000117
:1023E80085110001861100018711D8B442D0010E71
:1023F80000018C6F08D00001D89084378537863764
:10240800873700018C2B000187AFF5D70001D890E2
:10241800883789378A378B37000184510001805DFE
:10242800000185510001815900018651000182593E
:102438000001875100018359D8A012D000018451AE
:102448000001805F000185510001815B0001865118
:102458000001825B000187510001835B00018881D4
:102468000001D890873386338533843300018C2F5D
:10247800CDD788C080F089C081F08AC082F08BC037
:1024880083F01200000E0001B26F060EB16FB1C0EA
:10249800ACF0B2C0ADF001EC0AF068EC17F0000146
:1024A800B06F380EF66EFE0EF76EF86A0800F5503B
:1024B8000001B019D8B412002D0EF66EFE0EF76E9C
:1024C800F86A0800F5500001B019D8A417D0B1C0B7
:1024D80080F0B2C081F0000E0001836F000E826FA1
:1024E800000E0001856F060E846FFAEC16F0B1C07D
:1024F800ACF0B2C0ADF001EC0AF0CFD72F0EF66EFB
:10250800FE0EF76EF86A0800F5500001B019D8A45D
:10251800C4D7B1C080F0B2C081F0000E0001836F53
:10252800000E826F000E0001856F060E846FDCECD2
:1025380016F0B1C0ACF0B2C0ADF001EC0AF0ADD706
:102548000450D8B405D0015002100310D8A40CD000
:10255800000E016E000E026E000E036E1200042AB9
:10256800D890033202320132000E0114066E000EBA
:102578000214076EFE0E0314086E065007100810AA
:10258800D8B40CD0ECD7042A010E0126000E022282
:10259800000E0322D890033202320132000E0114D9
:1025A800066E000E0214076EFF0E0314086E065026
:1025B80007100810D8B406D0E6D70406D89001361C
:1025C8000236033602BE03D0020E0460F6D704A01A
:1025D800029ED8900432045003120550D8A4038EEA
:1025E80001C001F002C002F003C003F012004EEC7B
:1025F80017F02CD04EEC17F0EB0E00019E6FFF0E7B
:1026080000019F6F0FEC16F038D04EEC17F0000E5B
:1026180000019E6FFF0E00019F6F0FEC16F02DD08A
:102628004EEC17F0100E00019E6FFF0E00019F6F19
:102638000FEC16F022D04EEC17F0200E00019E6F22
:10264800FF0E00019F6F0FEC16F017D0ACC0AEF074
:10265800ADC0AFF00001AF51000AD8A40ED0000100
:10266800AE51000AD8B4C6D7010AD8B4CED7030AE7
:10267800D8B4D6D7010AD8B4DED7C00E46EC18F0C5
:10268800DE0E00019E6FFE0E00019F6F0FEC16F02C
:1026980012004EEC17F026D04EEC17F09B0E0001FE
:1026A8009E6FFF0E00019F6F0FEC16F032D0D7EC33
:1026B80013F0C0EC15F02DD04EEC17F08D0E000184
:1026C8009E6FFF0E00019F6F0FEC16F022D04EECAC
:1026D80017F0BC0E00019E6FFE0E00019F6F0FECFD
:1026E80016F017D0E7C0AEF0E8C0AFF00001AF5168
:1026F800000AD8A40ED00001AE51000AD8B4CCD735
:10270800010AD8B4D4D7030AD8B4D6D7010AD8B4A2
:10271800DED7C00E46EC18F0CD0E00019E6FFE0EFF
:1027280000019F6F0FEC16F033EC18F01200000E4A
:102738000001856F000E846F000182510001831132
:10274800D8B42CD0010E0001866F06D00001D890B5
:10275800823783370001862B000183AFF7D700014A
:10276800D89084378537000182510001805D0001CF
:10277800835100018159D8A00AD00001825100017B
:10278800805F000183510001815B000184810001A9
:10279800D890833382330001862FE1D784C080F03C
:1027A80085C081F012007BEC18F0000E0001826FEA
:1027B800D00E816F65EC18F0000E0001826F000EDC
:1027C800816F65EC18F077EC18F07BEC18F0000ED0
:1027D8000001826FD10E816F65EC18F0000E0001C8
:1027E800836F050E0001836501D010D0000183516D
:1027F800010DE00EF324D96E000EF420DA6E010EFE
:1028080082EC17F0DF6E0001832BEBD7000E82EC11
:1028180017F00001E66F77EC18F01200000E0001C7
:10282800836F000E826F000183511DE10A0E0001C3
:10283800825DD8B018D08284060E0001806FB50E74
:10284800E82EFED7802FFCD700D082942F0E0001EF
:10285800806F3A0EE82EFED7802FFCD700F00001DB
:10286800824B832BE0D7060E0001816F130E000107
:10287800806FAD0EE82EFED7802FFCD7812FFAD7B8
:1028880000D01200000E0001856F000E846F000159
:1028980085511DE1140E0001845DD8B018D08382E3
:1028A800060E0001826FB50EE82EFED7822FFCD7E8
:1028B80000D083922F0E0001826F3A0EE82EFED7C9
:1028C800822FFCD700F00001844B852BE0D7150E32
:1028D8000001836F4B0E0001826FBE0EE82EFED7FB
:1028E800822FFCD7832FFAD700F012000001816FE6
:1028F80000018151F00B0001806F8C500F0B8C6E22
:10290800000180518C108C6E8C96100EE82EFED72C
:1029180000D08C86100EE82EFED700D00001813939
:10292800F00B0001816F00018151F00B0001806FF5
:102938008C500F0B8C6E000180518C108C6E8C9615
:10294800100EE82EFED700D08C86100EE82EFED78B
:1029580000D0120083EC18F0000E036ED00E026E49
:102968006AEC18F0000E036E000E026E6AEC18F0A6
:102978007FEC18F083EC18F0000E036ED10E026E97
:102988006AEC18F0000E046E050E046401D00ED037
:102998000450010DE00EF324D96E000EF420DA6E17
:1029A800010EC2EC17F0DF6E042AEED7000EC2EC5F
:1029B80017F00001E66F7FEC18F012000001895152
:1029C80000018A11D8B426D0010E00018B6F06D001
:1029D8000001D89089378A3700018B2B00018AAF14
:1029E800F7D7000189510001875D00018A51000174
:1029F8008859D8A008D0000189510001875F0001DB
:102A08008A510001885B0001D8908A33893300011C
:102A18008B2FE7D787C087F088C088F01200000E98
:102A2800C76E280EC66E000EC56E000E0001806FC0
:102A3800120E816F7A0E826F000E836F8DC091F037
:102A48008EC092F08FC093F090C094F0020ED89090
:102A580000019137923793379437E82EF8D791C011
:102A680084F092C085F093C086F094C087F0E8ECBB
:102A780011F000018005C86E948694881200026ED9
:102A88000250F00B016E8C500F0B8C6E01508C10A5
:102A98008C6E8C96100EE82EFED700D08C86100E09
:102AA800E82EFED700D00238F00B026E0250F00B71
:102AB800016E8C500F0B8C6E01508C108C6E8C96A6
:102AC800100EE82EFED700D08C86100EE82EFED70A
:102AD80000D012009EC0A6F09FC0A7F0000E000113
:102AE800A86F000E0001A96FA20E0001A46F000ECE
:102AF8000001A56FA60E00018C6F000E00018D6FFE
:102B0800A0C08EF0A1C08FF0A40E0001906F000E3F
:102B18000001916F09EC00F0A6C0D9FFA7C0DAFF49
:102B2800000EDF6E1200000E066E000E056E0350DA
:102B38000410D8B41CD0010E076E04D0D890033608
:102B48000436072A04AEFAD7D8900536063603505D
:102B5800015C04500258D8A005D00350015E04500F
:102B6800025A0580D89004320332072EEDD705C0EB
:102B780001F006C002F01200800E46EC18F0D20EEA
:102B880000019E6FFF0E00019F6FE5C0A0F00001DD
:102B9800A16BE4C0A2F00001A36B0FEC16F0700E5D
:102BA80000019E6FFF0E00019F6FE2C0A0F00001C0
:102BB800A16BE1C0A2F00001A36BE0C0A4F000018A
:102BC800A56B0FEC16F012000CD01AEC06F020D012
:102BD80060EC18F01DD0C9EC08F01AD046EC12F0E1
:102BE80017D0E7C0D4F0E8C0D5F00001D551000AED
:102BF800D8A40ED00001D451000AD8B4E6D7010AEF
:102C0800D8B4E6D7030AD8B4E6D7010AD8B4E6D7C9
:102C18004DEC13F01200000E0001A86F000E000129
:102C2800A96F280E0001AA6F300E0001AB6FA00E2D
:102C38000001A66F000E0001A76FA80E00018C6F9F
:102C4800000E00018D6F9EC08EF09FC08FF0A60E03
:102C58000001906F000E0001916F09EC00F0120066
:102C6800000E0001826F000E816F000182511BE18E
:102C78000A0E0001815DD8B012008284E40E00D0F3
:102C880000D0E82EFCD700D000D08294320E00018C
:102C9800806FDD0EE82EFED7802FFCD700D0000114
:102CA800814B822BE2D71200270E0001836FF50EAD
:102CB800E82EFED7832FFCD7330E46EC18F0320EE1
:102CC80046EC18F0280E46EC18F00F0E46EC18F0FB
:102CD800060E46EC18F0010E46EC18F0270E00011F
:102CE800836FF50EE82EFED7832FFCD712009C0EBB
:102CF800F66E300EF76E000EF86E00EEE9F010EE8C
:102D08000CF00900F5CFEEFFE550E150FAE100EED6
:102D1800D9F0100EEE6AE806FDE14E6A4D6A4C6A7B
:102D28004B6A4A6A496A4F904F92000144EF0DF08E
:102D38000A500B10D8B418D0010E0C6E04D0D890DD
:102D48000A360B360C2A0BAEFAD70A50085C0B5021
:102D58000958D8A004D00A50085E0B50095AD890D8
:102D68000B320A320C2EF1D708C008F009C009F05E
:102D78001200800E5AEC18F0D20E1F6EFF0E206E55
:102D8800E5C021F0226AE4C023F0246A33EC17F08E
:102D9800700E1F6EFF0E206EE2C021F0226AE1C0A5
:102DA80023F0246AE0C025F0266A33EC17F01200FD
:102DB80080C0D9FF81C0DAFF00018451DE180EE11E
:102DC80000018551DE18D8A409D080C0D9FF81C080
:102DD800DAFF82C0DEFF83C0DDFF120080C0D9FFAA
:102DE80081C0DAFFDE2A000EDD22120080C0D9FF82
:102DF80081C0DAFF00018251DE180EE10001835123
:102E0800DE18D8A409D080C0D9FF81C0DAFF84C0F9
:102E1800DEFF85C0DDFF120080C0D9FF81C0DAFF68
:102E2800DE06000EDD5A1200000180510001820307
:102E3800F3CF84F0F4CF85F00001805100018303C3
:102E4800F350000185270001815100018203F350EE
:102E58000001852784C080F085C081F01200000E33
:102E6800296E000E2A6EA80E2B6E300E2C6E210EC7
:102E7800276E000E286E290E0D6E000E0E6E1FC0F6
:102E88000FF020C010F0270E116E000E126E43ECEA
:102E980003F01200800E46EC18F0890E00019E6FB8
:102EA800FE0E00019F6F0FEC16F0C00E46EC18F0F6
:102EB800890E00019E6FFE0E00019F6F0FEC16F049
:102EC800800E46EC18F0120081A2FED781380F0B55
:102ED8000F0B0001806F81B2FED700F000F00001F7
:102EE8008051010D290EF324F66EFE0EF420F76EC4
:102EF800F86A000EF8220800F55012000001816FF0
:102F080029EC18F0C58629EC18F0C9CF82F029EC15
:102F180018F0000181510001D8A402D0C58A01D05F
:102F2800C59AC5880001825112000001826F000E07
:102F38000001816F3A0E0001826107D02F0E000157
:102F4800826503D0010E0001816F81C080F000010D
:102F58008031120000018751AA6E86C0A9FF88C07F
:102F6800A8FFA69EA69CA684550EA76EAA0EA76EBD
:102F7800A682A1A8FED7A198A6941200026E3DECE5
:102F880018F0C5863DEC18F0C9CF03F03DEC18F0F9
:102F98000250D8A402D0C58A01D0C59AC58803506A
:102FA800120001500302F3CF05F0F4CF06F00150F0
:102FB8000402F350062602500302F350062605C009
:102FC80001F006C002F012008DEC0FF0100E0001A7
:102FD8008D6F270E8E6F000E8F6F000E906F13ECA3
:102FE80015F0F29E1FEC18F01200036E000E026E30
:102FF8003A0E036005D02F0E036402D0010E026E54
:1030080002C001F00130120000018751AA6E86C08B
:10301800A9FFA69EA69CA680A6B0FED7A85012001F
:103028004FB254EF18F00001826F8C840001825176
:103038007AEC14F0120058EC16F0000E0001AD6F97
:10304800000EAC6F4DEC13F01200C7B4FED7C5CF1D
:1030580080F01F0E00018017D8B41200F6D70001C7
:10306800E7050001E811D8A402D0F28E1200F29E02
:103078001200C7B4FED7C5CF01F01F0E0116D8B491
:103088001200F7D70001826F8C94000182517AEC0C
:1030980014F0120028000A000200030003000200D6
:1030A800036E8C84035043EC15F01200036E8C946D
:1030B800035043EC15F0120012EC14F034EC16F047
:1030C800120029EC18F081C0C9FF12003DEC18F07D
:1030D80002C0C9FF1200F29EF28A9D901200F29A75
:1030E8009D80F28E120029EC18F0C584120029EC9C
:1030F80018F0C58012003DEC18F0C58412003DECB4
:0631080018F0C580120062
:10FE2800003132334134353642373839432A3023AA
:10FE3800440001000A006400E803102701001000D4
:10FE4800000100100F00030001000200434F4D5055
:10FE58004C455445442121212020202020003C34B9
:10FE680020204261636B3A2020442020363E200047
:10FE78003031323334353637383961626364656618
:10FE8800002020202020202020202020202020208A
:10FE980020004120746F206261636B2020202020A5
:10FEA800202000424F54544C4520494E5349444564
:10FEB80020202000416363657373204C61737420B4
:10FEC80052756E20003C34202053746172743A20BD
:10FED800412020363E003C3420204E61763A2041B5
:10FEE8002F442020363E0045736B6120772F6F200A
:10FEF8004361703A202569002020205061737420E6
:10FF080052756E203220200020202050617374200A
:10FF180052756E20332020002020205061737420F9
:10FF280052756E20342020002E2E2E4F706572617F
:10FF380074696E672E2E2E0045736B6120772F2013
:10FF48004361703A20256900596F7020772F6F2020
:10FF58004361703A2025690054696D652074616BAE
:10FF6800656E3A2025697300253032783A2530329B
:10FF7800783A25303278004E4F20424F54544C4541
:10FF8800202020200041636365737320454550524B
:10FF98004F4D00426567696E20536F7274696E67D2
:10FFA80000596F7020772F4361703A20256900232C
:10FFB80020426F74746C65733A2025690020772F8E
:10FFC8006F204361702020202000253032782F25B3
:10FFD8003032782020200020772F204361702020A5
:10FFE800202000526563656E742052756E0045537B
:08FFF8004B4100594F5000007D
:020000040020DA
:08000000FFFFFFFFFFFFFFFF00
:020000040030CA
:0E000000FF021F1EFF8381FF0FC00FE00F40A5
:00000001FF
