:0400000017EF09F0FD
:10100000003132334134353642373839432A3023C0
:1010100044002020202020202020202020202020CC
:1010200020200020412D6E6578742020442D6261BF
:10103000636B200020412D636F6E742E20442D625F
:1010400061636B200023594F50772F6F434150202D
:101050002D2031300031372F30322F303120527572
:101060006E203400424F54544C455320494E53494E
:101070004445004E4F20424F54544C4553004F506E
:1010800045524154494E470045534B4100594F503A
:101090000000000E946E000E956E9368000E8A6E2E
:1010A000000E8B6E000EC26EC168C9EC08F0000E17
:1010B000926E8980899289948986550E046E100EED
:1010C000056E02EC09F0C00E24EC09F0230E046E4C
:1010D000100E056E02EC09F081A2FED781380F0BCD
:1010E0000F0B096E81B2FED700F000F00950010D20
:1010F000010EF324F66E100EF420F76E0800F5CF03
:101100000AF0040EF66E100EF76E0800F5CF0BF025
:101110000B500A18D8A4E0D7ECEC08F0450E046E8A
:10112000100E056E02EC09F0C00E24EC09F0340E2E
:10113000046E100E056E02EC09F0CED7026E02505E
:10114000F00B016E8C500F0B8C6E01508C108C6E5E
:101150008C96100EE82EFED700D08C86100EE82E4E
:10116000FED700D00238F00B026E0250F00B016E79
:101170008C500F0B8C6E01508C108C6E8C96100E58
:10118000E82EFED700D08C86100EE82EFED700D0B9
:101190001200270E046EF50EE82EFED7042EFCD7A3
:1011A00000F0330E24EC09F0320E24EC09F0280E86
:1011B00024EC09F00F0E24EC09F0060E24EC09F0E3
:1011C000010E24EC09F0270E046EF50EE82EFED772
:1011D000042EFCD700F01200800E24EC09F0120E51
:1011E000046E100E056E02EC09F0C00E24EC09F03E
:1011F000120E046E100E056E02EC09F0800E24EC47
:1012000009F01200060E066E000E076E03D008509D
:101210001EEC09F004C0F6FF05C0F7FF044A052ADA
:101220000800F5CF08F00850D8B41200F0D7000E2F
:10123000F86E100EF76E000149EF08F0036E8C8413
:1012400003509EEC08F01200036E8C9403509EEC49
:0412500008F0120090
:020000040020DA
:08000000FFFFFFFFFFFFFFFF00
:020000040030CA
:0E000000FF021F1EFF8381FF0FC00FE00F40A5
:00000001FF
