:0400000004EF76F0A3
:10EB0A00A4EC75F0C5801200A4EC75F0C58412005F
:10EB1A00A4EC75F002C0C9FF1200036E8C94035076
:10EB2A00C6EC76F01200036E8C840350C6EC76F0C5
:10EB3A00120028000A000200030003000200C7B402
:10EB4A00FED7C5CF01F01F0E0116D8B41200F7D7B1
:10EB5A0081A2FED781380F0B0F0B016E81B2FED74F
:10EB6A0000F000F001501200036E000E026E3A0E21
:10EB7A00036005D02F0E036402D0010E026E02C09C
:10EB8A0001F00130120001500302F3CF05F0F4CF77
:10EB9A0006F001500402F350062602500302F35015
:10EBAA00062605C001F006C002F01200026EA4ECAF
:10EBBA0075F0C586A4EC75F0C9CF03F0A4EC75F026
:10EBCA000250D8A402D0C58A01D0C59AC58803507C
:10EBDA001200800E92EC75F0730E1F6EFE0E206E00
:10EBEA001DEC76F0C00E92EC75F0730E1F6EFE0EE1
:10EBFA00206E1DEC76F0800E92EC75F012003C0E41
:10EC0A00F66EEB0EF76E000EF86E00EE49F010EE9F
:10EC1A000CF00900F5CFEEFFE550E150FAE100EE05
:10EC2A0055F0070EEE6AE806FDE100017EEF7AF084
:10EC3A00000E296E000E2A6E300E2B6EEB0E2C6E15
:10EC4A00210E276E000E286E290E0D6E000E0E6E16
:10EC5A001FC00FF020C010F0270E116E000E126EAA
:10EC6A0036EC7CF012000A500B10D8B418D0010E02
:10EC7A000C6E04D0D8900A360B360C2A0BAEFAD793
:10EC8A000A50085C0B500958D8A004D00A50085EF4
:10EC9A000B50095AD8900B320A320C2EF1D708C001
:10ECAA0008F009C009F012001FC027F020C028F0A0
:10ECBA00000E296E000E2A6E230E256E000E266E99
:10ECCA00270E0D6E000E0E6E21C00FF022C010F03E
:10ECDA00250E116E000E126E36EC7CF027C0D9FF9D
:10ECEA0028C0DAFF000EDF6E1200270E046EF50E42
:10ECFA00E82EFED7042EFCD700F0330E92EC75F006
:10ED0A00320E92EC75F0280E92EC75F00F0E92EC22
:10ED1A0075F0060E92EC75F0010E92EC75F0270E66
:10ED2A00046EF50EE82EFED7042EFCD700F0120072
:10ED3A00000E066E000E056E03500410D8B41CD0E7
:10ED4A00010E076E04D0D89003360436072A04AEA3
:10ED5A00FAD7D890053606360350015C045002589B
:10ED6A00D8A005D00350015E0450025A0580D890FD
:10ED7A0004320332072EEDD705C001F006C002F0B7
:10ED8A001200026E0250F00B016E8C500F0B8C6E4B
:10ED9A0001508C108C6E8C96100EE82EFED700D087
:10EDAA008C86100EE82EFED700D00238F00B026EC9
:10EDBA000250F00B016E8C500F0B8C6E01508C10B0
:10EDCA008C6E8C96100EE82EFED700D08C86100E14
:10EDDA00E82EFED700D01200000EC76E280EC66EAF
:10EDEA00000EC56E000E016E120E026E7A0E036ED2
:10EDFA00000E046E0EC012F00FC013F010C014F013
:10EE0A0011C015F0020ED890123613361436153684
:10EE1A00E82EF9D712C005F013C006F014C007F0A7
:10EE2A0015C008F082EC77F00104C86E94869488C5
:10EE3A001200700ED36E0C0EBD6EFB0E946E960E03
:10EE4A00CA6ECB68120EBE6EEEEC75F0B70E1F6E70
:10EE5A00FE0E206E1DEC76F081A2FED7EEEC75F068
:10EE6A001A0E2D6EF80EE82EFED72D2EFCD700D0E6
:10EE7A00180EBE6002D0BE2A02D00C0EBE6E81B23F
:10EE8A00FED71A0E2D6EF80EE82EFED72D2EFCD7C1
:10EE9A0000D0E2D785EC75F0000E036ED00E026E3C
:10EEAA008DEC75F0000E036E000E026E8DEC75F09F
:10EEBA0089EC75F085EC75F0000E036ED10E026ECA
:10EECA008DEC75F0000E046E050E046401D00ED0B0
:10EEDA000450010D550EF324D96E000EF420DA6E9B
:10EEEA00010EDBEC75F0DF6E042AEED7000EDBECC8
:10EEFA0075F05B6E89EC75F01200000E096E000E5B
:10EF0A000A6E000E0B6E000E0C6E055006100710EE
:10EF1A000810D8B42AD0010E0D6E06D0D890053646
:10EF2A000636073608360D2A08AEF8D7D8900936BD
:10EF3A000A360B360C360550015C0650025807504B
:10EF4A00035808500458D8A009D00550015E06504D
:10EF5A00025A0750035A0850045A0980D8900832B6
:10EF6A000732063205320D2EE1D709C001F00AC078
:10EF7A0002F00BC003F00CC004F01200EEEC75F0C6
:10EF8A0024D0EEEC75F0FB0E1F6EFE0E206E1DEC0B
:10EF9A0076F030D0EEEC75F00B0E1F6EFF0E206E81
:10EFAA001DEC76F027D0EEEC75F01B0E1F6EFF0EEF
:10EFBA00206E1DEC76F01ED0EEEC75F02B0E1F6E57
:10EFCA00FF0E206E1DEC76F015D02DC02FF02EC04E
:10EFDA0030F03050000AD8A40DD02F50000AD8B40F
:10EFEA00D0D7010AD8B4D6D7030AD8B4DCD7010AD5
:10EFFA00D8B4E2D7C00E92EC75F0D90E1F6EFE0E91
:10F00A00206E1DEC76F01200EEEC75F03BD0EEECC3
:10F01A0075F0A60E1F6EFF0E206E1DEC76F047D01F
:10F02A004FEC77F0EEEC75F0DD0E1F6EFF0E206EE2
:10F03A005AC021F0226A59C023F0246A1DEC76F0E6
:10F04A007B0E1F6EFF0E206E57C021F0226A56C03B
:10F05A0023F0246A55C025F0266A1DEC76F027D0E5
:10F06A00EEEC75F0980E1F6EFF0E206E1DEC76F01A
:10F07A001ED0EEEC75F0A60E1F6EFE0E206E1DEC75
:10F08A0076F015D02DC02FF02EC030F03050000A87
:10F09A00D8A40DD02F50000AD8B4B9D7010AD8B4D1
:10F0AA00BFD7030AD8B4DCD7010AD8B4E2D7C00E56
:10F0BA0092EC75F0C80E1F6EFE0E206E1DEC76F0F7
:10F0CA001200000E346E000E336E33C02DF034C0C1
:10F0DA002EF008EC7AF0ADEC75F0316E3150010D7E
:10F0EA001B0EF324F66EFE0EF420F76EF86A000E7D
:10F0FA00F8220800F5CF32F02A0EF66EFE0EF76EF1
:10F10A00F86A0800F5503218D8B412001F0EF66ECD
:10F11A00FE0EF76EF86A0800F5503218D8A413D01C
:10F12A0033503410D8A405D0000E346E050E336E59
:10F13A0003D03306D8A0340633C02DF034C02EF0E5
:10F14A0008EC7AF0C8D7210EF66EFE0EF76EF86A52
:10F15A000800F5503218D8A4BED7050E331834105B
:10F16A00D8A405D0000E346E000E336E02D0334A96
:10F17A00342A33C02DF034C02EF008EC7AF0ABD725
:10F18A0002D0074A082A07C0D9FF08C0DAFF200EB2
:10F19A00DE18D8B4F6D707C0D9FF08C0DAFF090EBF
:10F1AA00DE18D8B4EED7000E0D6E000E0C6E000EEF
:10F1BA000B6E07C0D9FF08C0DAFF2D0EDE18D8A4DF
:10F1CA0002D00B2A24D007C0D9FF08C0DAFF2B0EC1
:10F1DA00DE18D8A41ED01BD00CC001F00DC002F05E
:10F1EA00000E046E0A0E036EC8EC75F007C0D9FF54
:10F1FA0008C0DAFFDF50096E0A6A01500926025078
:10F20A000A22D00E09240C6EFF0E0A200D6E074A40
:10F21A00082A07C0D9FF08C0DAFFDF50B9EC75F039
:10F22A00D8B0DAD70B50D8B40DD00CC009F00DC045
:10F23A000AF0091E0A1E094A0A2A09C007F00AC06A
:10F24A0008F012000CC007F00DC008F01200000E02
:10F25A002E6E000E2D6E310E1F6E000E206E850E64
:10F26A00216EFF0E226E55C023F0246A59EC76F007
:10F27A00310E076E000E086EC5EC78F007502D2689
:10F28A0008502E22310E1F6E000E206E850E216E42
:10F29A00FF0E226E56C023F0246A59EC76F0310E26
:10F2AA00076E000E086EC5EC78F007C02FF008C094
:10F2BA0030F02FC001F030C002F0000E046E3C0E98
:10F2CA00036EC8EC75F001502D2602502E22310E25
:10F2DA001F6E000E206E850E216EFF0E226E57C025
:10F2EA0023F0246A59EC76F0310E076E000E086E90
:10F2FA00C5EC78F007C02FF008C030F02FC001F03D
:10F30A0030C002F00E0E046E100E036EC8EC75F0DB
:10F31A0001502D2602502E222DC02BF02EC02CF08B
:10F32A001200000E386E000E376E37C02DF038C04E
:10F33A002EF0C3EC77F0ADEC75F0356E3550010D5B
:10F34A001B0EF324F66EFE0EF420F76EF86A000E1A
:10F35A00F8220800F5CF36F01E0EF66EFE0EF76E96
:10F36A00F86A0800F5503618D8A409D066EC78F087
:10F37A0037C02DF038C02EF0C3EC77F0DCD72A0E58
:10F38A00F66EFE0EF76EF86A0800F5503618D8B415
:10F39A0012001F0EF66EFE0EF76EF86A0800F550A0
:10F3AA003618D8A413D037503810D8A405D0000E78
:10F3BA00386E030E376E03D03706D8A0380637C02A
:10F3CA002DF038C02EF0C3EC77F0B5D7210EF66ECB
:10F3DA00FE0EF76EF86A0800F5503618D8A4ABD7B7
:10F3EA00030E37183810D8A405D0000E386E000E58
:10F3FA00376E02D0374A382A37C02DF038C02EF07F
:10F40A00C3EC77F098D7EEEC75F04ED0EEEC75F0D1
:10F41A006B0E1F6EFF0E206E49C021F04AC022F00B
:10F42A001DEC76F05CD0EEEC75F0C20E1F6EFF0E8E
:10F43A00206E4BC021F04CC022F01DEC76F04FD06C
:10F44A00EEEC75F0B40E1F6EFF0E206E4DC021F06B
:10F45A004EC022F01DEC76F042D0EEEC75F05B0E59
:10F46A001F6EFF0E206E4FC021F050C022F01DEC1F
:10F47A0076F035D0EEEC75F04B0E1F6EFF0E206E57
:10F48A0051C021F052C022F01DEC76F028D0EEECEB
:10F49A0075F0EA0E1F6EFE0E206E53C021F054C0A6
:10F4AA0022F01DEC76F01BD02DC02FF02EC030F0CC
:10F4BA003050000AD8A413D02F50000AD8B4A6D7C7
:10F4CA00010AD8B4B0D7030AD8B4BAD7010AD8B453
:10F4DA00C4D7070AD8B4CED7010AD8B4D8D7C00E31
:10F4EA0092EC75F0500E1F6EFE0E206E1DEC76F03B
:10F4FA00120092689368000E946E000E956E000ECC
:10F50A00966E000E8A6E000E8B6E000E8C6E000ECA
:10F51A008D6E000EC26EC168F19E7AEC76F0100E06
:10F52A000E6E270E0F6E000E106E000E116EF1ECAD
:10F53A0076F0F29E000E486E000E476E47C02DF020
:10F54A0048C02EF009EC78F0ADEC75F0446E4450EA
:10F55A00010D1B0EF324F66EFE0EF420F76EF86A08
:10F56A00000EF8220800F5CF46F01E0EF66EFE0ECB
:10F57A00F76EF86A0800F5504618D8B40DD028D0AE
:10F58A0031EC7BF01ED01EEC77F01BD096EC79F0B4
:10F59A0018D066EC78F015D047C044F048C045F062
:10F5AA004550000AD8A40DD04450000AD8B4E8D770
:10F5BA00010AD8B4E8D7030AD8B4E8D7010AD8B4FC
:10F5CA00E8D747C02DF048C02EF009EC78F039D0C2
:10F5DA001F0EF66EFE0EF76EF86A0800F550461812
:10F5EA00D8A413D047504810D8A405D0000E486EAE
:10F5FA00030E476E03D04706D8A0480647C02DF031
:10F60A0048C02EF009EC78F01CD0210EF66EFE0EE2
:10F61A00F76EF86A0800F5504618D8A412D0030EFF
:10F62A0047184810D8A405D0000E486E000E476E41
:10F63A0002D0474A482A47C02DF048C02EF009ECAC
:10F64A0078F047044810D8A47FD747C02DF048C0A7
:10F65A002EF009EC78F078D78280000E366E000E14
:10F66A00356E000E3F6E000E3E6E000E416E000EAD
:10F67A00406E000E436E000E426E43BE06D04350EB
:10F68A0014E1060E425CD8B010D0D8904234D96E3C
:10F69A004334DA6E490ED926000EDA22000EDE6EE7
:10F6AA00000EDD6E424A432AE8D7EEEC75F03B0EB7
:10F6BA001F6EFF0E206E1DEC76F04FEC77F02CECEF
:10F6CA0079F02BC037F02CC038F07FD0C00E92EC06
:10F6DA0075F08A0E1F6EFF0E206E1DEC76F080A06C
:10F6EA00FED780A072D0C00E92EC75F0950E1F6EF8
:10F6FA00FE0E206E1DEC76F00B0E346E260E336E67
:10F70A005E0EE82EFED7332EFCD7342EFAD780B2FF
:10F71A000DD0C00E92EC75F0FB0E1F6EFF0E206E20
:10F72A001DEC76F0000E3F6E000E0CD0C00E92EC6F
:10F73A0075F0F60E1F6EFF0E206E1DEC76F0000EB1
:10F74A003F6E010E3E6E80B480A601D00AD0EA0E4A
:10F75A001F6EFF0E206E1DEC76F0000E416E000E3D
:10F76A0009D0D00E1F6EFF0E206E1DEC76F0000E33
:10F77A00416E010E406E4B4A4C2A3EC033F03FC0E8
:10F78A0034F0D89033363436405033264150342240
:10F79A00020E3324396E000E34203A6ED890393472
:10F7AA00D96E3A34DA6E490ED926000EDA22DE2AEA
:10F7BA00000EDD220B0E346E260E336E5E0EE82E20
:10F7CA00FED7332EFCD7342EFAD74CBE7FD74C50F7
:10F7DA0004E10A0E4B5CD8A079D78290EEEC75F062
:10F7EA003E0E1F6EFE0E206E1DEC76F0C00E92ECE1
:10F7FA0075F0840E1F6EFE0E206E1DEC76F04FEC37
:10F80A0077F02CEC79F02BC03BF02CC03CF037C0E1
:10F81A0033F038C034F0331E341E334A342A3B5096
:10F82A003324496E3C5034204A6EADEC75F0336E89
:10F83A003350010D1B0EF324F66EFE0EF420F76E04
:10F84A00F86A000EF8220800F5CF3DF01E0EF66E9B
:10F85A00FE0EF76EF86A0800F5503D18D8B412008B
:10F86A00E4D7C4D2250E1E18D8B436D020EE02F042
:10F87A000D50D9260E50DA22DE50DE10D8B416D03A
:10F88A0020EE02F00D50D9260E50DA22DECF13F008
:10F89A00DDCF14F001D8AAD20500FA6E1350FD6E1E
:10F8AA001450FE6EFF6AFA501E5012000DC0D9FFA6
:10F8BA000EC0DAFFDECF13F0DDCF14F013C0D9FF8C
:10F8CA0014C0DAFF1EC0DFFF0DC0D9FF0EC0DAFF79
:10F8DA00DE2A000EDD228AD2000E1D6E000E1C6E7C
:10F8EA00000E1B6E03D01B840F4A102A0FC0F6FFAE
:10F8FA0010C0F7FFF86A0800F550300AD8B4F3D7F9
:10F90A000FC0F6FF10C0F7FFF86A0800F550B9EC0F
:10F91A0075F0D8A037D0000E1D6E000E1C6E1CC0EC
:10F92A0001F01DC002F0000E046E0A0E036EC8EC50
:10F93A0075F001C01CF002C01DF0D00E136EFF0E50
:10F94A00146E0FC0F6FF10C0F7FFF86A0800F550F2
:10F95A00156E166A135015261450162215501C26B9
:10F96A0016501D220F4A102A0FC0F6FF10C0F7FFCB
:10F97A00F86A0800F550B9EC75F0D8A003D0CFD7D3
:10F98A001B8E18D00FC0F6FF10C0F7FF0F4A102ABF
:10F99A00F86A0800F5CF1EF01E50000AD8B433D218
:10F9AA00640AD8B407D00D0AD8B404D0110AD8B45E
:10F9BA00E7D71CD21BBE1DD011C0D9FF12C0DAFF77
:10F9CA00DFCF13F0020EDE26DFCF14F0000EDD22A9
:10F9DA0013C0D9FF14C0DAFFDECF19F0DDCF1AF059
:10F9EA001AAE52D0030E1B12196C1A1ED8B01A2A5C
:10F9FA004BD011C0D9FF12C0DAFFDFCF13F0020ECD
:10FA0A00DE26DFCF14F0000EDD2213C0D9FF14C0AA
:10FA1A00DAFFDECF19F0DDCF1AF036D0010E1E6EF6
:10FA2A00050E1E18D8B438D01E50020D2C0EF32421
:10FA3A00F66EFE0EF420F76EF86A000EF822090040
:10FA4A00F550195C0900F5501A58D8A025D01E2A7D
:10FA5A00E7D7010E1E6E040E1E18D8B41DD01E5014
:10FA6A00020D360EF324F66EFE0EF420F76EF86AD7
:10FA7A00000EF8220900F550195C0900F5501A58D1
:10FA8A00D8A00AD01E2AE7D71B50800B000AD8B488
:10FA9A00C5D7800AD8B4DDD71C501D10D8B409D0F8
:10FAAA001BC013F0030E1316D8B403D01C06D8A03B
:10FABA001D06800E1EBE7F0E136E1C501E5C1D504E
:10FACA00800A1358D8B007D01E501C5E000E1EBE06
:10FADA00FF0E1D5A04D0000E1D6E000E1C6E1BA4D4
:10FAEA0078D01BC013F0030E1316D8B435D020EE0D
:10FAFA0002F00D50D9260E50DA22DE50DE10D8B4AC
:10FB0A0016D020EE02F00D50D9260E50DA22DECFA2
:10FB1A0013F0DDCF14F001D81FD00500FA6E135090
:10FB2A00FD6E1450FE6EFF6AFA502D0E12000DC0C3
:10FB3A00D9FF0EC0DAFFDECF13F0DDCF14F013C009
:10FB4A00D9FF14C0DAFF2D0EDF6E0DC0D9FF0EC02B
:10FB5A00DAFFDE2A000EDD221C501D10D8B4B4D004
:10FB6A0020EE02F00D50D9260E50DA22DE50DE10B9
:10FB7A00D8B416D020EE02F00D50D9260E50DA2253
:10FB8A00DECF13F0DDCF14F001D81FD00500FA6ED6
:10FB9A001350FD6E1450FE6EFF6AFA50300E1200BA
:10FBAA000DC0D9FF0EC0DAFFDECF13F0DDCF14F09F
:10FBBA0013C0D9FF14C0DAFF300EDF6E0DC0D9FFB3
:10FBCA000EC0DAFFDE2A000EDD221C06D8A01D06B2
:10FBDA00C3D71C501D10D8B43CD020EE02F00D50F3
:10FBEA00D9260E50DA22DE50DE10D8B416D020EE16
:10FBFA0002F00D50D9260E50DA22DECF13F0DDCFF7
:10FC0A0014F001D81FD00500FA6E1350FD6E14507F
:10FC1A00FE6EFF6AFA50200E12000DC0D9FF0EC008
:10FC2A00DAFFDECF13F0DDCF14F013C0D9FF14C012
:10FC3A00DAFF200EDF6E0DC0D9FF0EC0DAFFDE2A12
:10FC4A00000EDD221C06D8A01D061C501D10D8A4CB
:10FC5A00C4D71BC013F0030E1316D8B435D020EE48
:10FC6A0002F00D50D9260E50DA22DE50DE10D8B43A
:10FC7A0016D020EE02F00D50D9260E50DA22DECF31
:10FC8A0013F0DDCF14F001D81FD00500FA6E13501F
:10FC9A00FD6E1450FE6EFF6AFA502D0E12000DC052
:10FCAA00D9FF0EC0DAFFDECF13F0DDCF14F013C098
:10FCBA00D9FF14C0DAFF2D0EDF6E0DC0D9FF0EC0BA
:10FCCA00DAFFDE2A000EDD221EC018F08BD0185093
:10FCDA00020D2C0EF324F66EFE0EF420F76EF86A6F
:10FCEA00000EF8220900F5CF03F00A00F5CF04F060
:10FCFA0019C001F01AC002F09DEC76F001C008F0BC
:10FD0A0002C009F0000E0B6E0A0E0A6E38EC76F08D
:10FD1A000850300F1E6E31D019C001F01AC002F01F
:10FD2A001850020D360EF324F66EFE0EF420F76E0E
:10FD3A00F86A000EF8220900F5CF03F00A00F5CFA1
:10FD4A0004F09DEC76F001500F0B176E1750010D61
:10FD5A00620EF324F66EFE0EF420F76EF86A000EB9
:10FD6A00F8220800F5CF1EF008D01B50800B000ABD
:10FD7A00D8B4ADD7800AD8B4CFD720EE02F00D5050
:10FD8A00D9260E50DA22DE50DE10D8B416D020EE74
:10FD9A0002F00D50D9260E50DA22DECF13F0DDCF55
:10FDAA0014F001D81FD00500FA6E1350FD6E1450DE
:10FDBA00FE6EFF6AFA501E5012000DC0D9FF0EC027
:10FDCA00DAFFDECF13F0DDCF14F013C0D9FF14C071
:10FDDA00DAFF1EC0DFFF0DC0D9FF0EC0DAFFDE2A30
:10FDEA00000EDD2218061828D8A4BFD70FC0F6FFC8
:10FDFA0010C0F7FF0F4A102AF86A0800F5CF1EF064
:10FE0A001E50D8A42FD5000E0E6E000E0D6E1200D5
:10FE1A00003132334134353642373839432A3023B8
:10FE2A00440001000A006400E803102701001000E2
:10FE3A0000010010434F4D504C45544544212121A7
:10FE4A002020202020003C3420204261636B3A208D
:10FE5A0020442020363E20003031323334353637C4
:10FE6A0038396162636465660020202020202020E2
:10FE7A00202020202020202020004120746F206292
:10FE8A0061636B2020202020202000424F54544CD4
:10FE9A004520494E5349444520202000416363656B
:10FEAA007373204C6173742052756E2000736572EF
:10FEBA00766F2074657374696E67212121003C3462
:10FECA00202053746172743A20412020363E003C4F
:10FEDA003420204E61763A20412F442020363E00BD
:10FEEA0045736B6120772F6F204361703A20256933
:10FEFA0000202020506173742052756E203120201A
:10FF0A0000202020506173742052756E2032202008
:10FF1A0000202020506173742052756E20332020F7
:10FF2A0000202020506173742052756E20342020E6
:10FF3A00002E2E2E4F7065726174696E672E2E2EFA
:10FF4A000045736B6120772F204361703A20256941
:10FF5A0000596F7020772F6F204361703A2025690E
:10FF6A000054696D652074616B656E3A202569736A
:10FF7A0000253032783A253032783A253032780006
:10FF8A004E4F20424F54544C4520202020004163BC
:10FF9A006365737320454550524F4D00426567694A
:10FFAA006E20536F7274696E6700596F7020772FD5
:10FFBA004361703A202569002320426F74746C658E
:10FFCA00733A2025690020772F6F20436170202023
:10FFDA00202000253032782F25303278202020004A
:10FFEA0020772F20436170202020200045534B4169
:06FFFA0000594F50000009
:020000040020DA
:08000000FFFFFFFFFFFFFFFF00
:020000040030CA
:0E000000FF021F1EFF8381FF0FC00FE00F40A5
:00000001FF
